{
  "_format": "hh-sol-artifact-1",
  "contractName": "RideSharing",
  "sourceName": "contracts/Ridesharing.sol",
  "abi": [
    {
      "inputs": [
        {
          "internalType": "string",
          "name": "msg",
          "type": "string"
        }
      ],
      "name": "AlreadyRegistered",
      "type": "error"
    },
    {
      "inputs": [
        {
          "internalType": "string",
          "name": "msg",
          "type": "string"
        }
      ],
      "name": "lessThanFair",
      "type": "error"
    },
    {
      "inputs": [
        {
          "internalType": "string",
          "name": "msg",
          "type": "string"
        }
      ],
      "name": "ridenotCompleted",
      "type": "error"
    },
    {
      "anonymous": false,
      "inputs": [
        {
          "indexed": false,
          "internalType": "uint256",
          "name": "id",
          "type": "uint256"
        }
      ],
      "name": "RideCreated",
      "type": "event"
    },
    {
      "anonymous": false,
      "inputs": [
        {
          "indexed": false,
          "internalType": "uint256",
          "name": "Type",
          "type": "uint256"
        },
        {
          "indexed": false,
          "internalType": "uint256",
          "name": "id",
          "type": "uint256"
        }
      ],
      "name": "UserType",
      "type": "event"
    },
    {
      "anonymous": false,
      "inputs": [
        {
          "indexed": false,
          "internalType": "uint256",
          "name": "driverId",
          "type": "uint256"
        },
        {
          "indexed": false,
          "internalType": "string",
          "name": "name",
          "type": "string"
        },
        {
          "indexed": false,
          "internalType": "string",
          "name": "nic",
          "type": "string"
        },
        {
          "indexed": false,
          "internalType": "string",
          "name": "regNum",
          "type": "string"
        }
      ],
      "name": "registeredDriver",
      "type": "event"
    },
    {
      "anonymous": false,
      "inputs": [
        {
          "indexed": false,
          "internalType": "uint256",
          "name": "RiderId",
          "type": "uint256"
        },
        {
          "indexed": false,
          "internalType": "string",
          "name": "name",
          "type": "string"
        },
        {
          "indexed": false,
          "internalType": "string",
          "name": "email",
          "type": "string"
        },
        {
          "indexed": false,
          "internalType": "string",
          "name": "cellno",
          "type": "string"
        }
      ],
      "name": "registeredRider",
      "type": "event"
    },
    {
      "inputs": [
        {
          "internalType": "uint256",
          "name": "",
          "type": "uint256"
        }
      ],
      "name": "RideIDTodriverId",
      "outputs": [
        {
          "internalType": "uint256",
          "name": "",
          "type": "uint256"
        }
      ],
      "stateMutability": "view",
      "type": "function"
    },
    {
      "inputs": [
        {
          "internalType": "uint256",
          "name": "",
          "type": "uint256"
        }
      ],
      "name": "RideIdToRider",
      "outputs": [
        {
          "internalType": "uint256",
          "name": "Id",
          "type": "uint256"
        },
        {
          "internalType": "string",
          "name": "name",
          "type": "string"
        },
        {
          "internalType": "string",
          "name": "email",
          "type": "string"
        },
        {
          "internalType": "string",
          "name": "cellno",
          "type": "string"
        }
      ],
      "stateMutability": "view",
      "type": "function"
    },
    {
      "inputs": [
        {
          "internalType": "address",
          "name": "",
          "type": "address"
        }
      ],
      "name": "addressToDriver",
      "outputs": [
        {
          "internalType": "uint256",
          "name": "Id",
          "type": "uint256"
        },
        {
          "internalType": "string",
          "name": "name",
          "type": "string"
        },
        {
          "internalType": "string",
          "name": "nic",
          "type": "string"
        },
        {
          "internalType": "string",
          "name": "email",
          "type": "string"
        },
        {
          "internalType": "string",
          "name": "cellno",
          "type": "string"
        },
        {
          "internalType": "string",
          "name": "LiscenceNo",
          "type": "string"
        },
        {
          "internalType": "bool",
          "name": "isRegistered",
          "type": "bool"
        },
        {
          "components": [
            {
              "internalType": "string",
              "name": "regNum",
              "type": "string"
            },
            {
              "internalType": "string",
              "name": "modelName",
              "type": "string"
            }
          ],
          "internalType": "struct RideSharing.Car",
          "name": "car",
          "type": "tuple"
        }
      ],
      "stateMutability": "view",
      "type": "function"
    },
    {
      "inputs": [
        {
          "internalType": "address",
          "name": "",
          "type": "address"
        }
      ],
      "name": "addressToRider",
      "outputs": [
        {
          "internalType": "uint256",
          "name": "Id",
          "type": "uint256"
        },
        {
          "internalType": "string",
          "name": "name",
          "type": "string"
        },
        {
          "internalType": "string",
          "name": "email",
          "type": "string"
        },
        {
          "internalType": "string",
          "name": "cellno",
          "type": "string"
        }
      ],
      "stateMutability": "view",
      "type": "function"
    },
    {
      "inputs": [
        {
          "internalType": "uint256",
          "name": "rideId",
          "type": "uint256"
        }
      ],
      "name": "completeRide",
      "outputs": [],
      "stateMutability": "nonpayable",
      "type": "function"
    },
    {
      "inputs": [
        {
          "internalType": "string",
          "name": "location",
          "type": "string"
        },
        {
          "internalType": "string",
          "name": "sourceLong",
          "type": "string"
        },
        {
          "internalType": "string",
          "name": "sourceLat",
          "type": "string"
        },
        {
          "internalType": "string",
          "name": "destLong",
          "type": "string"
        },
        {
          "internalType": "string",
          "name": "destLat",
          "type": "string"
        },
        {
          "internalType": "string",
          "name": "startTime",
          "type": "string"
        }
      ],
      "name": "createRide",
      "outputs": [],
      "stateMutability": "nonpayable",
      "type": "function"
    },
    {
      "inputs": [
        {
          "internalType": "address",
          "name": "",
          "type": "address"
        }
      ],
      "name": "driverIsRegistered",
      "outputs": [
        {
          "internalType": "bool",
          "name": "",
          "type": "bool"
        }
      ],
      "stateMutability": "view",
      "type": "function"
    },
    {
      "inputs": [],
      "name": "getAllRides",
      "outputs": [
        {
          "components": [
            {
              "internalType": "uint256",
              "name": "rideId",
              "type": "uint256"
            },
            {
              "internalType": "address payable",
              "name": "creator",
              "type": "address"
            },
            {
              "internalType": "string",
              "name": "StartTime",
              "type": "string"
            },
            {
              "internalType": "string",
              "name": "location",
              "type": "string"
            },
            {
              "internalType": "string",
              "name": "sourceLong",
              "type": "string"
            },
            {
              "internalType": "string",
              "name": "sourceLat",
              "type": "string"
            },
            {
              "internalType": "string",
              "name": "destLong",
              "type": "string"
            },
            {
              "internalType": "string",
              "name": "destLat",
              "type": "string"
            },
            {
              "internalType": "enum RideSharing.state",
              "name": "currState",
              "type": "uint8"
            },
            {
              "internalType": "bool",
              "name": "isPayed",
              "type": "bool"
            },
            {
              "internalType": "bool",
              "name": "isJoined",
              "type": "bool"
            },
            {
              "internalType": "uint256",
              "name": "fair",
              "type": "uint256"
            }
          ],
          "internalType": "struct RideSharing.Ride[]",
          "name": "",
          "type": "tuple[]"
        }
      ],
      "stateMutability": "view",
      "type": "function"
    },
    {
      "inputs": [
        {
          "internalType": "address",
          "name": "_driver",
          "type": "address"
        }
      ],
      "name": "getDriverByAddress",
      "outputs": [
        {
          "internalType": "uint256",
          "name": "",
          "type": "uint256"
        }
      ],
      "stateMutability": "view",
      "type": "function"
    },
    {
      "inputs": [
        {
          "internalType": "uint256",
          "name": "DriverId",
          "type": "uint256"
        }
      ],
      "name": "getRidesByDriverId",
      "outputs": [
        {
          "components": [
            {
              "internalType": "uint256",
              "name": "rideId",
              "type": "uint256"
            },
            {
              "internalType": "address payable",
              "name": "creator",
              "type": "address"
            },
            {
              "internalType": "string",
              "name": "StartTime",
              "type": "string"
            },
            {
              "internalType": "string",
              "name": "location",
              "type": "string"
            },
            {
              "internalType": "string",
              "name": "sourceLong",
              "type": "string"
            },
            {
              "internalType": "string",
              "name": "sourceLat",
              "type": "string"
            },
            {
              "internalType": "string",
              "name": "destLong",
              "type": "string"
            },
            {
              "internalType": "string",
              "name": "destLat",
              "type": "string"
            },
            {
              "internalType": "enum RideSharing.state",
              "name": "currState",
              "type": "uint8"
            },
            {
              "internalType": "bool",
              "name": "isPayed",
              "type": "bool"
            },
            {
              "internalType": "bool",
              "name": "isJoined",
              "type": "bool"
            },
            {
              "internalType": "uint256",
              "name": "fair",
              "type": "uint256"
            }
          ],
          "internalType": "struct RideSharing.Ride[]",
          "name": "",
          "type": "tuple[]"
        }
      ],
      "stateMutability": "view",
      "type": "function"
    },
    {
      "inputs": [
        {
          "internalType": "uint256",
          "name": "riderId",
          "type": "uint256"
        }
      ],
      "name": "getRidesByRiderId",
      "outputs": [
        {
          "components": [
            {
              "internalType": "uint256",
              "name": "rideId",
              "type": "uint256"
            },
            {
              "internalType": "address payable",
              "name": "creator",
              "type": "address"
            },
            {
              "internalType": "string",
              "name": "StartTime",
              "type": "string"
            },
            {
              "internalType": "string",
              "name": "location",
              "type": "string"
            },
            {
              "internalType": "string",
              "name": "sourceLong",
              "type": "string"
            },
            {
              "internalType": "string",
              "name": "sourceLat",
              "type": "string"
            },
            {
              "internalType": "string",
              "name": "destLong",
              "type": "string"
            },
            {
              "internalType": "string",
              "name": "destLat",
              "type": "string"
            },
            {
              "internalType": "enum RideSharing.state",
              "name": "currState",
              "type": "uint8"
            },
            {
              "internalType": "bool",
              "name": "isPayed",
              "type": "bool"
            },
            {
              "internalType": "bool",
              "name": "isJoined",
              "type": "bool"
            },
            {
              "internalType": "uint256",
              "name": "fair",
              "type": "uint256"
            }
          ],
          "internalType": "struct RideSharing.Ride[]",
          "name": "",
          "type": "tuple[]"
        }
      ],
      "stateMutability": "view",
      "type": "function"
    },
    {
      "inputs": [
        {
          "internalType": "address",
          "name": "user",
          "type": "address"
        }
      ],
      "name": "getUserType",
      "outputs": [
        {
          "internalType": "uint256",
          "name": "",
          "type": "uint256"
        },
        {
          "internalType": "uint256",
          "name": "",
          "type": "uint256"
        },
        {
          "internalType": "uint256",
          "name": "",
          "type": "uint256"
        }
      ],
      "stateMutability": "view",
      "type": "function"
    },
    {
      "inputs": [
        {
          "internalType": "uint256",
          "name": "",
          "type": "uint256"
        }
      ],
      "name": "idToDriver",
      "outputs": [
        {
          "internalType": "uint256",
          "name": "Id",
          "type": "uint256"
        },
        {
          "internalType": "string",
          "name": "name",
          "type": "string"
        },
        {
          "internalType": "string",
          "name": "nic",
          "type": "string"
        },
        {
          "internalType": "string",
          "name": "email",
          "type": "string"
        },
        {
          "internalType": "string",
          "name": "cellno",
          "type": "string"
        },
        {
          "internalType": "string",
          "name": "LiscenceNo",
          "type": "string"
        },
        {
          "internalType": "bool",
          "name": "isRegistered",
          "type": "bool"
        },
        {
          "components": [
            {
              "internalType": "string",
              "name": "regNum",
              "type": "string"
            },
            {
              "internalType": "string",
              "name": "modelName",
              "type": "string"
            }
          ],
          "internalType": "struct RideSharing.Car",
          "name": "car",
          "type": "tuple"
        }
      ],
      "stateMutability": "view",
      "type": "function"
    },
    {
      "inputs": [
        {
          "internalType": "uint256",
          "name": "",
          "type": "uint256"
        }
      ],
      "name": "idToRide",
      "outputs": [
        {
          "internalType": "uint256",
          "name": "rideId",
          "type": "uint256"
        },
        {
          "internalType": "address payable",
          "name": "creator",
          "type": "address"
        },
        {
          "internalType": "string",
          "name": "StartTime",
          "type": "string"
        },
        {
          "internalType": "string",
          "name": "location",
          "type": "string"
        },
        {
          "internalType": "string",
          "name": "sourceLong",
          "type": "string"
        },
        {
          "internalType": "string",
          "name": "sourceLat",
          "type": "string"
        },
        {
          "internalType": "string",
          "name": "destLong",
          "type": "string"
        },
        {
          "internalType": "string",
          "name": "destLat",
          "type": "string"
        },
        {
          "internalType": "enum RideSharing.state",
          "name": "currState",
          "type": "uint8"
        },
        {
          "internalType": "bool",
          "name": "isPayed",
          "type": "bool"
        },
        {
          "internalType": "bool",
          "name": "isJoined",
          "type": "bool"
        },
        {
          "internalType": "uint256",
          "name": "fair",
          "type": "uint256"
        }
      ],
      "stateMutability": "view",
      "type": "function"
    },
    {
      "inputs": [
        {
          "internalType": "uint256",
          "name": "",
          "type": "uint256"
        }
      ],
      "name": "idToRider",
      "outputs": [
        {
          "internalType": "uint256",
          "name": "Id",
          "type": "uint256"
        },
        {
          "internalType": "string",
          "name": "name",
          "type": "string"
        },
        {
          "internalType": "string",
          "name": "email",
          "type": "string"
        },
        {
          "internalType": "string",
          "name": "cellno",
          "type": "string"
        }
      ],
      "stateMutability": "view",
      "type": "function"
    },
    {
      "inputs": [
        {
          "internalType": "uint256",
          "name": "rideId",
          "type": "uint256"
        },
        {
          "internalType": "uint256",
          "name": "riderId",
          "type": "uint256"
        }
      ],
      "name": "joinRide",
      "outputs": [],
      "stateMutability": "nonpayable",
      "type": "function"
    },
    {
      "inputs": [
        {
          "internalType": "uint256",
          "name": "rideId",
          "type": "uint256"
        }
      ],
      "name": "payForRide",
      "outputs": [],
      "stateMutability": "payable",
      "type": "function"
    },
    {
      "inputs": [
        {
          "internalType": "string",
          "name": "_name",
          "type": "string"
        },
        {
          "internalType": "string",
          "name": "_nic",
          "type": "string"
        },
        {
          "internalType": "string",
          "name": "_email",
          "type": "string"
        },
        {
          "internalType": "string",
          "name": "_cellno",
          "type": "string"
        },
        {
          "internalType": "string",
          "name": "_regNum",
          "type": "string"
        },
        {
          "internalType": "string",
          "name": "_modelName",
          "type": "string"
        },
        {
          "internalType": "string",
          "name": "_LiscenceNo",
          "type": "string"
        }
      ],
      "name": "registerForDriver",
      "outputs": [],
      "stateMutability": "nonpayable",
      "type": "function"
    },
    {
      "inputs": [
        {
          "internalType": "string",
          "name": "_name",
          "type": "string"
        },
        {
          "internalType": "string",
          "name": "_email",
          "type": "string"
        },
        {
          "internalType": "string",
          "name": "_cellno",
          "type": "string"
        }
      ],
      "name": "registerForRider",
      "outputs": [],
      "stateMutability": "nonpayable",
      "type": "function"
    },
    {
      "inputs": [
        {
          "internalType": "uint256",
          "name": "",
          "type": "uint256"
        }
      ],
      "name": "riderIdtoride",
      "outputs": [
        {
          "internalType": "uint256",
          "name": "rideId",
          "type": "uint256"
        },
        {
          "internalType": "address payable",
          "name": "creator",
          "type": "address"
        },
        {
          "internalType": "string",
          "name": "StartTime",
          "type": "string"
        },
        {
          "internalType": "string",
          "name": "location",
          "type": "string"
        },
        {
          "internalType": "string",
          "name": "sourceLong",
          "type": "string"
        },
        {
          "internalType": "string",
          "name": "sourceLat",
          "type": "string"
        },
        {
          "internalType": "string",
          "name": "destLong",
          "type": "string"
        },
        {
          "internalType": "string",
          "name": "destLat",
          "type": "string"
        },
        {
          "internalType": "enum RideSharing.state",
          "name": "currState",
          "type": "uint8"
        },
        {
          "internalType": "bool",
          "name": "isPayed",
          "type": "bool"
        },
        {
          "internalType": "bool",
          "name": "isJoined",
          "type": "bool"
        },
        {
          "internalType": "uint256",
          "name": "fair",
          "type": "uint256"
        }
      ],
      "stateMutability": "view",
      "type": "function"
    },
    {
      "inputs": [
        {
          "internalType": "uint256",
          "name": "",
          "type": "uint256"
        }
      ],
      "name": "riderIdtorideId",
      "outputs": [
        {
          "internalType": "uint256",
          "name": "",
          "type": "uint256"
        }
      ],
      "stateMutability": "view",
      "type": "function"
    },
    {
      "inputs": [
        {
          "internalType": "address",
          "name": "",
          "type": "address"
        }
      ],
      "name": "riderIsRegistered",
      "outputs": [
        {
          "internalType": "bool",
          "name": "",
          "type": "bool"
        }
      ],
      "stateMutability": "view",
      "type": "function"
    },
    {
      "inputs": [
        {
          "internalType": "uint256",
          "name": "rideId",
          "type": "uint256"
        },
        {
          "internalType": "uint256",
          "name": "fair",
          "type": "uint256"
        }
      ],
      "name": "setFair",
      "outputs": [],
      "stateMutability": "nonpayable",
      "type": "function"
    },
    {
      "inputs": [
        {
          "internalType": "uint256",
          "name": "rideId",
          "type": "uint256"
        }
      ],
      "name": "startRide",
      "outputs": [],
      "stateMutability": "nonpayable",
      "type": "function"
    }
  ],
  "bytecode": "0x608060405234801561001057600080fd5b506159e080620000216000396000f3fe60806040526004361061014b5760003560e01c80639e473a47116100b6578063d7e78c611161006f578063d7e78c611461051d578063e147d78714610565578063e656b578146105a2578063e9c14b1e146105e2578063ec7a52201461060b578063f2c5c2f11461064f5761014b565b80639e473a47146103d0578063a9b6bbde1461040d578063ba1ac3771461044a578063bbe3803a14610473578063c092e399146104b0578063c416dd0b146104f45761014b565b8063472b06c011610108578063472b06c014610278578063632c728e146102a157806366ec451c146102de57806374cc9f1d14610326578063787660c3146103665780638b3f863f146103915761014b565b806305c41e0e146101505780630c826fa1146101905780630df39bb1146101b95780631840110a146101d55780631a5378fa146102125780632acc07e01461024f575b600080fd5b34801561015c57600080fd5b5061017760048036038101906101729190614ee4565b610678565b604051610187949392919061546f565b60405180910390f35b34801561019c57600080fd5b506101b760048036038101906101b29190614f0d565b610840565b005b6101d360048036038101906101ce9190614ee4565b610865565b005b3480156101e157600080fd5b506101fc60048036038101906101f79190614ee4565b610eb6565b6040516102099190615370565b60405180910390f35b34801561021e57600080fd5b5061023960048036038101906102349190614ee4565b610ece565b60405161024691906152b3565b60405180910390f35b34801561025b57600080fd5b5061027660048036038101906102719190614c85565b6114f3565b005b34801561028457600080fd5b5061029f600480360381019061029a9190614bee565b6119ef565b005b3480156102ad57600080fd5b506102c860048036038101906102c39190614ee4565b611c78565b6040516102d591906152b3565b60405180910390f35b3480156102ea57600080fd5b5061030560048036038101906103009190614ee4565b611da7565b60405161031d9c9b9a9998979695949392919061538b565b60405180910390f35b34801561033257600080fd5b5061034d60048036038101906103489190614ee4565b61217e565b60405161035d949392919061546f565b60405180910390f35b34801561037257600080fd5b5061037b612346565b60405161038891906152b3565b60405180910390f35b34801561039d57600080fd5b506103b860048036038101906103b39190614bc5565b61299c565b6040516103c793929190615571565b60405180910390f35b3480156103dc57600080fd5b506103f760048036038101906103f29190614bc5565b6130de565b60405161040491906152d5565b60405180910390f35b34801561041957600080fd5b50610434600480360381019061042f9190614bc5565b6130fe565b6040516104419190615370565b60405180910390f35b34801561045657600080fd5b50610471600480360381019061046c9190614d9e565b61314f565b005b34801561047f57600080fd5b5061049a60048036038101906104959190614ee4565b613550565b6040516104a79190615370565b60405180910390f35b3480156104bc57600080fd5b506104d760048036038101906104d29190614bc5565b613568565b6040516104eb9897969594939291906154c9565b60405180910390f35b34801561050057600080fd5b5061051b60048036038101906105169190614ee4565b613993565b005b34801561052957600080fd5b50610544600480360381019061053f9190614ee4565b613a01565b60405161055c9c9b9a9998979695949392919061538b565b60405180910390f35b34801561057157600080fd5b5061058c60048036038101906105879190614bc5565b613dd8565b60405161059991906152d5565b60405180910390f35b3480156105ae57600080fd5b506105c960048036038101906105c49190614bc5565b613df8565b6040516105d9949392919061546f565b60405180910390f35b3480156105ee57600080fd5b5061060960048036038101906106049190614ee4565b613fc0565b005b34801561061757600080fd5b50610632600480360381019061062d9190614ee4565b61402e565b6040516106469897969594939291906154c9565b60405180910390f35b34801561065b57600080fd5b5061067660048036038101906106719190614f0d565b614459565b005b60066020528060005260406000206000915090508060000154908060010180546106a190615725565b80601f01602080910402602001604051908101604052809291908181526020018280546106cd90615725565b801561071a5780601f106106ef5761010080835404028352916020019161071a565b820191906000526020600020905b8154815290600101906020018083116106fd57829003601f168201915b50505050509080600201805461072f90615725565b80601f016020809104026020016040519081016040528092919081815260200182805461075b90615725565b80156107a85780601f1061077d576101008083540402835291602001916107a8565b820191906000526020600020905b81548152906001019060200180831161078b57829003601f168201915b5050505050908060030180546107bd90615725565b80601f01602080910402602001604051908101604052809291908181526020018280546107e990615725565b80156108365780601f1061080b57610100808354040283529160200191610836565b820191906000526020600020905b81548152906001019060200180831161081957829003601f168201915b5050505050905084565b6000600a60008481526020019081526020016000209050818160090181905550505050565b6000600a600083815260200190815260200160002060405180610180016040529081600082015481526020016001820160009054906101000a900473ffffffffffffffffffffffffffffffffffffffff1673ffffffffffffffffffffffffffffffffffffffff1673ffffffffffffffffffffffffffffffffffffffff1681526020016002820180546108f690615725565b80601f016020809104026020016040519081016040528092919081815260200182805461092290615725565b801561096f5780601f106109445761010080835404028352916020019161096f565b820191906000526020600020905b81548152906001019060200180831161095257829003601f168201915b5050505050815260200160038201805461098890615725565b80601f01602080910402602001604051908101604052809291908181526020018280546109b490615725565b8015610a015780601f106109d657610100808354040283529160200191610a01565b820191906000526020600020905b8154815290600101906020018083116109e457829003601f168201915b50505050508152602001600482018054610a1a90615725565b80601f0160208091040260200160405190810160405280929190818152602001828054610a4690615725565b8015610a935780601f10610a6857610100808354040283529160200191610a93565b820191906000526020600020905b815481529060010190602001808311610a7657829003601f168201915b50505050508152602001600582018054610aac90615725565b80601f0160208091040260200160405190810160405280929190818152602001828054610ad890615725565b8015610b255780601f10610afa57610100808354040283529160200191610b25565b820191906000526020600020905b815481529060010190602001808311610b0857829003601f168201915b50505050508152602001600682018054610b3e90615725565b80601f0160208091040260200160405190810160405280929190818152602001828054610b6a90615725565b8015610bb75780601f10610b8c57610100808354040283529160200191610bb7565b820191906000526020600020905b815481529060010190602001808311610b9a57829003601f168201915b50505050508152602001600782018054610bd090615725565b80601f0160208091040260200160405190810160405280929190818152602001828054610bfc90615725565b8015610c495780601f10610c1e57610100808354040283529160200191610c49565b820191906000526020600020905b815481529060010190602001808311610c2c57829003601f168201915b505050505081526020016008820160009054906101000a900460ff166002811115610c9d577f4e487b7100000000000000000000000000000000000000000000000000000000600052602160045260246000fd5b6002811115610cd5577f4e487b7100000000000000000000000000000000000000000000000000000000600052602160045260246000fd5b81526020016008820160019054906101000a900460ff161515151581526020016008820160029054906101000a900460ff16151515158152602001600982015481525050905060016002811115610d55577f4e487b7100000000000000000000000000000000000000000000000000000000600052602160045260246000fd5b8161010001516002811115610d93577f4e487b7100000000000000000000000000000000000000000000000000000000600052602160045260246000fd5b1415610dd4576040517f56f5dc62000000000000000000000000000000000000000000000000000000008152600401610dcb906152f0565b60405180910390fd5b600081602001519050816101600151341015610e25576040517fb399a5e0000000000000000000000000000000000000000000000000000000008152600401610e1c90615350565b60405180910390fd5b60008173ffffffffffffffffffffffffffffffffffffffff166108fc349081150290604051600060405180830381858888f19350505050905080610e9e576040517f08c379a0000000000000000000000000000000000000000000000000000000008152600401610e9590615310565b60405180910390fd5b60018361012001901515908115158152505050505050565b600b6020528060005260406000206000915090505481565b60606000806000600190505b610ee4600161492c565b8111610f27578460096000838152602001908152602001600020541415610f14578280610f1090615788565b9350505b8080610f1f90615788565b915050610eda565b5060008267ffffffffffffffff811115610f6a577f4e487b7100000000000000000000000000000000000000000000000000000000600052604160045260246000fd5b604051908082528060200260200182016040528015610fa357816020015b610f90614950565b815260200190600190039081610f885790505b5090506000600190505b8381116114e75785600960008381526020019081526020016000205414156114d457600a600082815260200190815260200160002060405180610180016040529081600082015481526020016001820160009054906101000a900473ffffffffffffffffffffffffffffffffffffffff1673ffffffffffffffffffffffffffffffffffffffff1673ffffffffffffffffffffffffffffffffffffffff16815260200160028201805461105e90615725565b80601f016020809104026020016040519081016040528092919081815260200182805461108a90615725565b80156110d75780601f106110ac576101008083540402835291602001916110d7565b820191906000526020600020905b8154815290600101906020018083116110ba57829003601f168201915b505050505081526020016003820180546110f090615725565b80601f016020809104026020016040519081016040528092919081815260200182805461111c90615725565b80156111695780601f1061113e57610100808354040283529160200191611169565b820191906000526020600020905b81548152906001019060200180831161114c57829003601f168201915b5050505050815260200160048201805461118290615725565b80601f01602080910402602001604051908101604052809291908181526020018280546111ae90615725565b80156111fb5780601f106111d0576101008083540402835291602001916111fb565b820191906000526020600020905b8154815290600101906020018083116111de57829003601f168201915b5050505050815260200160058201805461121490615725565b80601f016020809104026020016040519081016040528092919081815260200182805461124090615725565b801561128d5780601f106112625761010080835404028352916020019161128d565b820191906000526020600020905b81548152906001019060200180831161127057829003601f168201915b505050505081526020016006820180546112a690615725565b80601f01602080910402602001604051908101604052809291908181526020018280546112d290615725565b801561131f5780601f106112f45761010080835404028352916020019161131f565b820191906000526020600020905b81548152906001019060200180831161130257829003601f168201915b5050505050815260200160078201805461133890615725565b80601f016020809104026020016040519081016040528092919081815260200182805461136490615725565b80156113b15780601f10611386576101008083540402835291602001916113b1565b820191906000526020600020905b81548152906001019060200180831161139457829003601f168201915b505050505081526020016008820160009054906101000a900460ff166002811115611405577f4e487b7100000000000000000000000000000000000000000000000000000000600052602160045260246000fd5b600281111561143d577f4e487b7100000000000000000000000000000000000000000000000000000000600052602160045260246000fd5b81526020016008820160019054906101000a900460ff161515151581526020016008820160029054906101000a900460ff161515151581526020016009820154815250508284815181106114ba577f4e487b7100000000000000000000000000000000000000000000000000000000600052603260045260246000fd5b602002602001018190525082806114d090615788565b9350505b80806114df90615788565b915050610fad565b50809350505050919050565b60011515600360003373ffffffffffffffffffffffffffffffffffffffff1673ffffffffffffffffffffffffffffffffffffffff16815260200190815260200160002060009054906101000a900460ff1615151461155057600080fd5b600061155b336130fe565b9050611567600161493a565b6000611573600161492c565b905060006040518061018001604052808381526020013373ffffffffffffffffffffffffffffffffffffffff1681526020018581526020018a815260200189815260200188815260200187815260200186815260200160006002811115611603577f4e487b7100000000000000000000000000000000000000000000000000000000600052602160045260246000fd5b81526020016000151581526020016000151581526020016000815250905080600a60008481526020019081526020016000206000820151816000015560208201518160010160006101000a81548173ffffffffffffffffffffffffffffffffffffffff021916908373ffffffffffffffffffffffffffffffffffffffff16021790555060408201518160020190805190602001906116a2929190614a03565b5060608201518160030190805190602001906116bf929190614a03565b5060808201518160040190805190602001906116dc929190614a03565b5060a08201518160050190805190602001906116f9929190614a03565b5060c0820151816006019080519060200190611716929190614a03565b5060e0820151816007019080519060200190611733929190614a03565b506101008201518160080160006101000a81548160ff02191690836002811115611786577f4e487b7100000000000000000000000000000000000000000000000000000000600052602160045260246000fd5b02179055506101208201518160080160016101000a81548160ff0219169083151502179055506101408201518160080160026101000a81548160ff021916908315150217905550610160820151816009015590505082600960008481526020019081526020016000208190555080600e60008581526020019081526020016000206000820151816000015560208201518160010160006101000a81548173ffffffffffffffffffffffffffffffffffffffff021916908373ffffffffffffffffffffffffffffffffffffffff1602179055506040820151816002019080519060200190611874929190614a03565b506060820151816003019080519060200190611891929190614a03565b5060808201518160040190805190602001906118ae929190614a03565b5060a08201518160050190805190602001906118cb929190614a03565b5060c08201518160060190805190602001906118e8929190614a03565b5060e0820151816007019080519060200190611905929190614a03565b506101008201518160080160006101000a81548160ff02191690836002811115611958577f4e487b7100000000000000000000000000000000000000000000000000000000600052602160045260246000fd5b02179055506101208201518160080160016101000a81548160ff0219169083151502179055506101408201518160080160026101000a81548160ff02191690831515021790555061016082015181600901559050507fc27ec3789f4bc1d6d2f29681b715c37ef81e0befe9801d926a95d607f42a2c53826040516119dc9190615370565b60405180910390a1505050505050505050565b60011515600460003373ffffffffffffffffffffffffffffffffffffffff1673ffffffffffffffffffffffffffffffffffffffff16815260200190815260200160002060009054906101000a900460ff1615151415611a83576040517f0a7a3d7c000000000000000000000000000000000000000000000000000000008152600401611a7a90615330565b60405180910390fd5b611a8d600261493a565b6000611a99600261492c565b9050600060405180608001604052808381526020018681526020018581526020018481525090506001600460003373ffffffffffffffffffffffffffffffffffffffff1673ffffffffffffffffffffffffffffffffffffffff16815260200190815260200160002060006101000a81548160ff0219169083151502179055508060066000848152602001908152602001600020600082015181600001556020820151816001019080519060200190611b52929190614a03565b506040820151816002019080519060200190611b6f929190614a03565b506060820151816003019080519060200190611b8c929190614a03565b5090505080600860003373ffffffffffffffffffffffffffffffffffffffff1673ffffffffffffffffffffffffffffffffffffffff168152602001908152602001600020600082015181600001556020820151816001019080519060200190611bf6929190614a03565b506040820151816002019080519060200190611c13929190614a03565b506060820151816003019080519060200190611c30929190614a03565b509050507f22e9c31ba948c6fb17673cf7d4f73d44f2090424bd885b5c4adb3b24b00ba0fe82868686604051611c69949392919061546f565b60405180910390a15050505050565b60606000806000600190505b611c8e600161492c565b8111611cd15784600f6000838152602001908152602001600020541415611cbe578280611cba90615788565b9350505b8080611cc990615788565b915050611c84565b5060008267ffffffffffffffff811115611d14577f4e487b7100000000000000000000000000000000000000000000000000000000600052604160045260246000fd5b604051908082528060200260200182016040528015611d4d57816020015b611d3a614950565b815260200190600190039081611d325790505b5090506000600190505b838111611d9b5785600f6000838152602001908152602001600020541415611d88578280611d8490615788565b9350505b8080611d9390615788565b915050611d57565b50809350505050919050565b600a6020528060005260406000206000915090508060000154908060010160009054906101000a900473ffffffffffffffffffffffffffffffffffffffff1690806002018054611df690615725565b80601f0160208091040260200160405190810160405280929190818152602001828054611e2290615725565b8015611e6f5780601f10611e4457610100808354040283529160200191611e6f565b820191906000526020600020905b815481529060010190602001808311611e5257829003601f168201915b505050505090806003018054611e8490615725565b80601f0160208091040260200160405190810160405280929190818152602001828054611eb090615725565b8015611efd5780601f10611ed257610100808354040283529160200191611efd565b820191906000526020600020905b815481529060010190602001808311611ee057829003601f168201915b505050505090806004018054611f1290615725565b80601f0160208091040260200160405190810160405280929190818152602001828054611f3e90615725565b8015611f8b5780601f10611f6057610100808354040283529160200191611f8b565b820191906000526020600020905b815481529060010190602001808311611f6e57829003601f168201915b505050505090806005018054611fa090615725565b80601f0160208091040260200160405190810160405280929190818152602001828054611fcc90615725565b80156120195780601f10611fee57610100808354040283529160200191612019565b820191906000526020600020905b815481529060010190602001808311611ffc57829003601f168201915b50505050509080600601805461202e90615725565b80601f016020809104026020016040519081016040528092919081815260200182805461205a90615725565b80156120a75780601f1061207c576101008083540402835291602001916120a7565b820191906000526020600020905b81548152906001019060200180831161208a57829003601f168201915b5050505050908060070180546120bc90615725565b80601f01602080910402602001604051908101604052809291908181526020018280546120e890615725565b80156121355780601f1061210a57610100808354040283529160200191612135565b820191906000526020600020905b81548152906001019060200180831161211857829003601f168201915b5050505050908060080160009054906101000a900460ff16908060080160019054906101000a900460ff16908060080160029054906101000a900460ff1690806009015490508c565b600d6020528060005260406000206000915090508060000154908060010180546121a790615725565b80601f01602080910402602001604051908101604052809291908181526020018280546121d390615725565b80156122205780601f106121f557610100808354040283529160200191612220565b820191906000526020600020905b81548152906001019060200180831161220357829003601f168201915b50505050509080600201805461223590615725565b80601f016020809104026020016040519081016040528092919081815260200182805461226190615725565b80156122ae5780601f10612283576101008083540402835291602001916122ae565b820191906000526020600020905b81548152906001019060200180831161229157829003601f168201915b5050505050908060030180546122c390615725565b80601f01602080910402602001604051908101604052809291908181526020018280546122ef90615725565b801561233c5780601f106123115761010080835404028352916020019161233c565b820191906000526020600020905b81548152906001019060200180831161231f57829003601f168201915b5050505050905084565b60606000806000600190505b61235c600161492c565b81116123b45760001515600a600083815260200190815260200160002060080160029054906101000a900460ff16151514156123a157818061239d90615788565b9250505b80806123ac90615788565b915050612352565b5060008167ffffffffffffffff8111156123f7577f4e487b7100000000000000000000000000000000000000000000000000000000600052604160045260246000fd5b60405190808252806020026020018201604052801561243057816020015b61241d614950565b8152602001906001900390816124155790505b5090506000600190505b612444600161492c565b81116129925760001515600a600083815260200190815260200160002060080160029054906101000a900460ff161515141561297f57600a600082815260200190815260200160002060405180610180016040529081600082015481526020016001820160009054906101000a900473ffffffffffffffffffffffffffffffffffffffff1673ffffffffffffffffffffffffffffffffffffffff1673ffffffffffffffffffffffffffffffffffffffff16815260200160028201805461250990615725565b80601f016020809104026020016040519081016040528092919081815260200182805461253590615725565b80156125825780601f1061255757610100808354040283529160200191612582565b820191906000526020600020905b81548152906001019060200180831161256557829003601f168201915b5050505050815260200160038201805461259b90615725565b80601f01602080910402602001604051908101604052809291908181526020018280546125c790615725565b80156126145780601f106125e957610100808354040283529160200191612614565b820191906000526020600020905b8154815290600101906020018083116125f757829003601f168201915b5050505050815260200160048201805461262d90615725565b80601f016020809104026020016040519081016040528092919081815260200182805461265990615725565b80156126a65780601f1061267b576101008083540402835291602001916126a6565b820191906000526020600020905b81548152906001019060200180831161268957829003601f168201915b505050505081526020016005820180546126bf90615725565b80601f01602080910402602001604051908101604052809291908181526020018280546126eb90615725565b80156127385780601f1061270d57610100808354040283529160200191612738565b820191906000526020600020905b81548152906001019060200180831161271b57829003601f168201915b5050505050815260200160068201805461275190615725565b80601f016020809104026020016040519081016040528092919081815260200182805461277d90615725565b80156127ca5780601f1061279f576101008083540402835291602001916127ca565b820191906000526020600020905b8154815290600101906020018083116127ad57829003601f168201915b505050505081526020016007820180546127e390615725565b80601f016020809104026020016040519081016040528092919081815260200182805461280f90615725565b801561285c5780601f106128315761010080835404028352916020019161285c565b820191906000526020600020905b81548152906001019060200180831161283f57829003601f168201915b505050505081526020016008820160009054906101000a900460ff1660028111156128b0577f4e487b7100000000000000000000000000000000000000000000000000000000600052602160045260246000fd5b60028111156128e8577f4e487b7100000000000000000000000000000000000000000000000000000000600052602160045260246000fd5b81526020016008820160019054906101000a900460ff161515151581526020016008820160029054906101000a900460ff16151515158152602001600982015481525050828581518110612965577f4e487b7100000000000000000000000000000000000000000000000000000000600052603260045260246000fd5b6020026020010181905250838061297b90615788565b9450505b808061298a90615788565b91505061243a565b5080935050505090565b6000806000806000806000600860008973ffffffffffffffffffffffffffffffffffffffff1673ffffffffffffffffffffffffffffffffffffffff16815260200190815260200160002060405180608001604052908160008201548152602001600182018054612a0b90615725565b80601f0160208091040260200160405190810160405280929190818152602001828054612a3790615725565b8015612a845780601f10612a5957610100808354040283529160200191612a84565b820191906000526020600020905b815481529060010190602001808311612a6757829003601f168201915b50505050508152602001600282018054612a9d90615725565b80601f0160208091040260200160405190810160405280929190818152602001828054612ac990615725565b8015612b165780601f10612aeb57610100808354040283529160200191612b16565b820191906000526020600020905b815481529060010190602001808311612af957829003601f168201915b50505050508152602001600382018054612b2f90615725565b80601f0160208091040260200160405190810160405280929190818152602001828054612b5b90615725565b8015612ba85780601f10612b7d57610100808354040283529160200191612ba8565b820191906000526020600020905b815481529060010190602001808311612b8b57829003601f168201915b50505050508152505090506000600760008a73ffffffffffffffffffffffffffffffffffffffff1673ffffffffffffffffffffffffffffffffffffffff1681526020019081526020016000206040518061010001604052908160008201548152602001600182018054612c1a90615725565b80601f0160208091040260200160405190810160405280929190818152602001828054612c4690615725565b8015612c935780601f10612c6857610100808354040283529160200191612c93565b820191906000526020600020905b815481529060010190602001808311612c7657829003601f168201915b50505050508152602001600282018054612cac90615725565b80601f0160208091040260200160405190810160405280929190818152602001828054612cd890615725565b8015612d255780601f10612cfa57610100808354040283529160200191612d25565b820191906000526020600020905b815481529060010190602001808311612d0857829003601f168201915b50505050508152602001600382018054612d3e90615725565b80601f0160208091040260200160405190810160405280929190818152602001828054612d6a90615725565b8015612db75780601f10612d8c57610100808354040283529160200191612db7565b820191906000526020600020905b815481529060010190602001808311612d9a57829003601f168201915b50505050508152602001600482018054612dd090615725565b80601f0160208091040260200160405190810160405280929190818152602001828054612dfc90615725565b8015612e495780601f10612e1e57610100808354040283529160200191612e49565b820191906000526020600020905b815481529060010190602001808311612e2c57829003601f168201915b50505050508152602001600582018054612e6290615725565b80601f0160208091040260200160405190810160405280929190818152602001828054612e8e90615725565b8015612edb5780601f10612eb057610100808354040283529160200191612edb565b820191906000526020600020905b815481529060010190602001808311612ebe57829003601f168201915b505050505081526020016006820160009054906101000a900460ff1615151515815260200160078201604051806040016040529081600082018054612f1f90615725565b80601f0160208091040260200160405190810160405280929190818152602001828054612f4b90615725565b8015612f985780601f10612f6d57610100808354040283529160200191612f98565b820191906000526020600020905b815481529060010190602001808311612f7b57829003601f168201915b50505050508152602001600182018054612fb190615725565b80601f0160208091040260200160405190810160405280929190818152602001828054612fdd90615725565b801561302a5780601f10612fff5761010080835404028352916020019161302a565b820191906000526020600020905b81548152906001019060200180831161300d57829003601f168201915b5050505050815250508152505090506000826000015114801561305257506000816000015114155b156130675760019450806000015192506130c9565b6000826000015114158015613080575060008160000151145b156130955760029450816000015193506130c8565b60008260000151141580156130af57506000816000015114155b156130c7576003945080600001519250816000015193505b5b5b84848497509750975050505050509193909250565b60036020528060005260406000206000915054906101000a900460ff1681565b600080600760008473ffffffffffffffffffffffffffffffffffffffff1673ffffffffffffffffffffffffffffffffffffffff16815260200190815260200160002090508060000154915050919050565b60011515600360003373ffffffffffffffffffffffffffffffffffffffff1673ffffffffffffffffffffffffffffffffffffffff16815260200190815260200160002060009054906101000a900460ff16151514156131e3576040517f0a7a3d7c0000000000000000000000000000000000000000000000000000000081526004016131da90615330565b60405180910390fd5b60006040518060400160405280858152602001848152509050613206600061493a565b6000613212600061492c565b905060006040518061010001604052808381526020018b81526020018a81526020018981526020018881526020018581526020016001151581526020018481525090506001600360003373ffffffffffffffffffffffffffffffffffffffff1673ffffffffffffffffffffffffffffffffffffffff16815260200190815260200160002060006101000a81548160ff02191690831515021790555080600560008481526020019081526020016000206000820151816000015560208201518160010190805190602001906132e7929190614a03565b506040820151816002019080519060200190613304929190614a03565b506060820151816003019080519060200190613321929190614a03565b50608082015181600401908051906020019061333e929190614a03565b5060a082015181600501908051906020019061335b929190614a03565b5060c08201518160060160006101000a81548160ff02191690831515021790555060e08201518160070160008201518160000190805190602001906133a1929190614a03565b5060208201518160010190805190602001906133be929190614a03565b50505090505080600760003373ffffffffffffffffffffffffffffffffffffffff1673ffffffffffffffffffffffffffffffffffffffff16815260200190815260200160002060008201518160000155602082015181600101908051906020019061342a929190614a03565b506040820151816002019080519060200190613447929190614a03565b506060820151816003019080519060200190613464929190614a03565b506080820151816004019080519060200190613481929190614a03565b5060a082015181600501908051906020019061349e929190614a03565b5060c08201518160060160006101000a81548160ff02191690831515021790555060e08201518160070160008201518160000190805190602001906134e4929190614a03565b506020820151816001019080519060200190613501929190614a03565b5050509050507f3de04171a543da1b7f9e1fabae52c6c8f0ab266b234a95ede56668caebce1bec828b8b8960405161353c949392919061546f565b60405180910390a150505050505050505050565b60096020528060005260406000206000915090505481565b600760205280600052604060002060009150905080600001549080600101805461359190615725565b80601f01602080910402602001604051908101604052809291908181526020018280546135bd90615725565b801561360a5780601f106135df5761010080835404028352916020019161360a565b820191906000526020600020905b8154815290600101906020018083116135ed57829003601f168201915b50505050509080600201805461361f90615725565b80601f016020809104026020016040519081016040528092919081815260200182805461364b90615725565b80156136985780601f1061366d57610100808354040283529160200191613698565b820191906000526020600020905b81548152906001019060200180831161367b57829003601f168201915b5050505050908060030180546136ad90615725565b80601f01602080910402602001604051908101604052809291908181526020018280546136d990615725565b80156137265780601f106136fb57610100808354040283529160200191613726565b820191906000526020600020905b81548152906001019060200180831161370957829003601f168201915b50505050509080600401805461373b90615725565b80601f016020809104026020016040519081016040528092919081815260200182805461376790615725565b80156137b45780601f10613789576101008083540402835291602001916137b4565b820191906000526020600020905b81548152906001019060200180831161379757829003601f168201915b5050505050908060050180546137c990615725565b80601f01602080910402602001604051908101604052809291908181526020018280546137f590615725565b80156138425780601f1061381757610100808354040283529160200191613842565b820191906000526020600020905b81548152906001019060200180831161382557829003601f168201915b5050505050908060060160009054906101000a900460ff16908060070160405180604001604052908160008201805461387a90615725565b80601f01602080910402602001604051908101604052809291908181526020018280546138a690615725565b80156138f35780601f106138c8576101008083540402835291602001916138f3565b820191906000526020600020905b8154815290600101906020018083116138d657829003601f168201915b5050505050815260200160018201805461390c90615725565b80601f016020809104026020016040519081016040528092919081815260200182805461393890615725565b80156139855780601f1061395a57610100808354040283529160200191613985565b820191906000526020600020905b81548152906001019060200180831161396857829003601f168201915b505050505081525050905088565b6000600a6000838152602001908152602001600020905060028160080160006101000a81548160ff021916908360028111156139f8577f4e487b7100000000000000000000000000000000000000000000000000000000600052602160045260246000fd5b02179055505050565b600c6020528060005260406000206000915090508060000154908060010160009054906101000a900473ffffffffffffffffffffffffffffffffffffffff1690806002018054613a5090615725565b80601f0160208091040260200160405190810160405280929190818152602001828054613a7c90615725565b8015613ac95780601f10613a9e57610100808354040283529160200191613ac9565b820191906000526020600020905b815481529060010190602001808311613aac57829003601f168201915b505050505090806003018054613ade90615725565b80601f0160208091040260200160405190810160405280929190818152602001828054613b0a90615725565b8015613b575780601f10613b2c57610100808354040283529160200191613b57565b820191906000526020600020905b815481529060010190602001808311613b3a57829003601f168201915b505050505090806004018054613b6c90615725565b80601f0160208091040260200160405190810160405280929190818152602001828054613b9890615725565b8015613be55780601f10613bba57610100808354040283529160200191613be5565b820191906000526020600020905b815481529060010190602001808311613bc857829003601f168201915b505050505090806005018054613bfa90615725565b80601f0160208091040260200160405190810160405280929190818152602001828054613c2690615725565b8015613c735780601f10613c4857610100808354040283529160200191613c73565b820191906000526020600020905b815481529060010190602001808311613c5657829003601f168201915b505050505090806006018054613c8890615725565b80601f0160208091040260200160405190810160405280929190818152602001828054613cb490615725565b8015613d015780601f10613cd657610100808354040283529160200191613d01565b820191906000526020600020905b815481529060010190602001808311613ce457829003601f168201915b505050505090806007018054613d1690615725565b80601f0160208091040260200160405190810160405280929190818152602001828054613d4290615725565b8015613d8f5780601f10613d6457610100808354040283529160200191613d8f565b820191906000526020600020905b815481529060010190602001808311613d7257829003601f168201915b5050505050908060080160009054906101000a900460ff16908060080160019054906101000a900460ff16908060080160029054906101000a900460ff1690806009015490508c565b60046020528060005260406000206000915054906101000a900460ff1681565b6008602052806000526040600020600091509050806000015490806001018054613e2190615725565b80601f0160208091040260200160405190810160405280929190818152602001828054613e4d90615725565b8015613e9a5780601f10613e6f57610100808354040283529160200191613e9a565b820191906000526020600020905b815481529060010190602001808311613e7d57829003601f168201915b505050505090806002018054613eaf90615725565b80601f0160208091040260200160405190810160405280929190818152602001828054613edb90615725565b8015613f285780601f10613efd57610100808354040283529160200191613f28565b820191906000526020600020905b815481529060010190602001808311613f0b57829003601f168201915b505050505090806003018054613f3d90615725565b80601f0160208091040260200160405190810160405280929190818152602001828054613f6990615725565b8015613fb65780601f10613f8b57610100808354040283529160200191613fb6565b820191906000526020600020905b815481529060010190602001808311613f9957829003601f168201915b5050505050905084565b6000600a6000838152602001908152602001600020905060028160080160006101000a81548160ff02191690836002811115614025577f4e487b7100000000000000000000000000000000000000000000000000000000600052602160045260246000fd5b02179055505050565b600560205280600052604060002060009150905080600001549080600101805461405790615725565b80601f016020809104026020016040519081016040528092919081815260200182805461408390615725565b80156140d05780601f106140a5576101008083540402835291602001916140d0565b820191906000526020600020905b8154815290600101906020018083116140b357829003601f168201915b5050505050908060020180546140e590615725565b80601f016020809104026020016040519081016040528092919081815260200182805461411190615725565b801561415e5780601f106141335761010080835404028352916020019161415e565b820191906000526020600020905b81548152906001019060200180831161414157829003601f168201915b50505050509080600301805461417390615725565b80601f016020809104026020016040519081016040528092919081815260200182805461419f90615725565b80156141ec5780601f106141c1576101008083540402835291602001916141ec565b820191906000526020600020905b8154815290600101906020018083116141cf57829003601f168201915b50505050509080600401805461420190615725565b80601f016020809104026020016040519081016040528092919081815260200182805461422d90615725565b801561427a5780601f1061424f5761010080835404028352916020019161427a565b820191906000526020600020905b81548152906001019060200180831161425d57829003601f168201915b50505050509080600501805461428f90615725565b80601f01602080910402602001604051908101604052809291908181526020018280546142bb90615725565b80156143085780601f106142dd57610100808354040283529160200191614308565b820191906000526020600020905b8154815290600101906020018083116142eb57829003601f168201915b5050505050908060060160009054906101000a900460ff16908060070160405180604001604052908160008201805461434090615725565b80601f016020809104026020016040519081016040528092919081815260200182805461436c90615725565b80156143b95780601f1061438e576101008083540402835291602001916143b9565b820191906000526020600020905b81548152906001019060200180831161439c57829003601f168201915b505050505081526020016001820180546143d290615725565b80601f01602080910402602001604051908101604052809291908181526020018280546143fe90615725565b801561444b5780601f106144205761010080835404028352916020019161444b565b820191906000526020600020905b81548152906001019060200180831161442e57829003601f168201915b505050505081525050905088565b81600b600083815260200190815260200160002081905550600060066000838152602001908152602001600020604051806080016040529081600082015481526020016001820180546144ab90615725565b80601f01602080910402602001604051908101604052809291908181526020018280546144d790615725565b80156145245780601f106144f957610100808354040283529160200191614524565b820191906000526020600020905b81548152906001019060200180831161450757829003601f168201915b5050505050815260200160028201805461453d90615725565b80601f016020809104026020016040519081016040528092919081815260200182805461456990615725565b80156145b65780601f1061458b576101008083540402835291602001916145b6565b820191906000526020600020905b81548152906001019060200180831161459957829003601f168201915b505050505081526020016003820180546145cf90615725565b80601f01602080910402602001604051908101604052809291908181526020018280546145fb90615725565b80156146485780601f1061461d57610100808354040283529160200191614648565b820191906000526020600020905b81548152906001019060200180831161462b57829003601f168201915b50505050508152505090506000600a6000858152602001908152602001600020905060018160080160026101000a81548160ff02191690831515021790555081600d60008681526020019081526020016000206000820151816000015560208201518160010190805190602001906146c1929190614a03565b5060408201518160020190805190602001906146de929190614a03565b5060608201518160030190805190602001906146fb929190614a03565b5090505082600f60008681526020019081526020016000208190555080600c6000858152602001908152602001600020600082015481600001556001820160009054906101000a900473ffffffffffffffffffffffffffffffffffffffff168160010160006101000a81548173ffffffffffffffffffffffffffffffffffffffff021916908373ffffffffffffffffffffffffffffffffffffffff16021790555060028201816002019080546147b090615725565b6147bb929190614a89565b5060038201816003019080546147d090615725565b6147db929190614a89565b5060048201816004019080546147f090615725565b6147fb929190614a89565b50600582018160050190805461481090615725565b61481b929190614a89565b50600682018160060190805461483090615725565b61483b929190614a89565b50600782018160070190805461485090615725565b61485b929190614a89565b506008820160009054906101000a900460ff168160080160006101000a81548160ff021916908360028111156148ba577f4e487b7100000000000000000000000000000000000000000000000000000000600052602160045260246000fd5b02179055506008820160019054906101000a900460ff168160080160016101000a81548160ff0219169083151502179055506008820160029054906101000a900460ff168160080160026101000a81548160ff0219169083151502179055506009820154816009015590505050505050565b600081600001549050919050565b6001816000016000828254019250508190555050565b60405180610180016040528060008152602001600073ffffffffffffffffffffffffffffffffffffffff168152602001606081526020016060815260200160608152602001606081526020016060815260200160608152602001600060028111156149e4577f4e487b7100000000000000000000000000000000000000000000000000000000600052602160045260246000fd5b8152602001600015158152602001600015158152602001600081525090565b828054614a0f90615725565b90600052602060002090601f016020900481019282614a315760008555614a78565b82601f10614a4a57805160ff1916838001178555614a78565b82800160010185558215614a78579182015b82811115614a77578251825591602001919060010190614a5c565b5b509050614a859190614b16565b5090565b828054614a9590615725565b90600052602060002090601f016020900481019282614ab75760008555614b05565b82601f10614ac85780548555614b05565b82800160010185558215614b0557600052602060002091601f016020900482015b82811115614b04578254825591600101919060010190614ae9565b5b509050614b129190614b16565b5090565b5b80821115614b2f576000816000905550600101614b17565b5090565b6000614b46614b41846155cd565b6155a8565b905082815260208101848484011115614b5e57600080fd5b614b698482856156e3565b509392505050565b600081359050614b808161597c565b92915050565b600082601f830112614b9757600080fd5b8135614ba7848260208601614b33565b91505092915050565b600081359050614bbf81615993565b92915050565b600060208284031215614bd757600080fd5b6000614be584828501614b71565b91505092915050565b600080600060608486031215614c0357600080fd5b600084013567ffffffffffffffff811115614c1d57600080fd5b614c2986828701614b86565b935050602084013567ffffffffffffffff811115614c4657600080fd5b614c5286828701614b86565b925050604084013567ffffffffffffffff811115614c6f57600080fd5b614c7b86828701614b86565b9150509250925092565b60008060008060008060c08789031215614c9e57600080fd5b600087013567ffffffffffffffff811115614cb857600080fd5b614cc489828a01614b86565b965050602087013567ffffffffffffffff811115614ce157600080fd5b614ced89828a01614b86565b955050604087013567ffffffffffffffff811115614d0a57600080fd5b614d1689828a01614b86565b945050606087013567ffffffffffffffff811115614d3357600080fd5b614d3f89828a01614b86565b935050608087013567ffffffffffffffff811115614d5c57600080fd5b614d6889828a01614b86565b92505060a087013567ffffffffffffffff811115614d8557600080fd5b614d9189828a01614b86565b9150509295509295509295565b600080600080600080600060e0888a031215614db957600080fd5b600088013567ffffffffffffffff811115614dd357600080fd5b614ddf8a828b01614b86565b975050602088013567ffffffffffffffff811115614dfc57600080fd5b614e088a828b01614b86565b965050604088013567ffffffffffffffff811115614e2557600080fd5b614e318a828b01614b86565b955050606088013567ffffffffffffffff811115614e4e57600080fd5b614e5a8a828b01614b86565b945050608088013567ffffffffffffffff811115614e7757600080fd5b614e838a828b01614b86565b93505060a088013567ffffffffffffffff811115614ea057600080fd5b614eac8a828b01614b86565b92505060c088013567ffffffffffffffff811115614ec957600080fd5b614ed58a828b01614b86565b91505092959891949750929550565b600060208284031215614ef657600080fd5b6000614f0484828501614bb0565b91505092915050565b60008060408385031215614f2057600080fd5b6000614f2e85828601614bb0565b9250506020614f3f85828601614bb0565b9150509250929050565b6000614f55838361516e565b905092915050565b614f6681615676565b82525050565b614f7581615676565b82525050565b6000614f868261560e565b614f908185615631565b935083602082028501614fa2856155fe565b8060005b85811015614fde5784840389528151614fbf8582614f49565b9450614fca83615624565b925060208a01995050600181019050614fa6565b50829750879550505050505092915050565b614ff981615688565b82525050565b61500881615688565b82525050565b615017816156d1565b82525050565b615026816156d1565b82525050565b600061503782615619565b6150418185615642565b93506150518185602086016156f2565b61505a8161588d565b840191505092915050565b600061507082615619565b61507a8185615653565b935061508a8185602086016156f2565b6150938161588d565b840191505092915050565b60006150ab601583615653565b91506150b68261589e565b602082019050919050565b60006150ce601483615653565b91506150d9826158c7565b602082019050919050565b60006150f1602283615653565b91506150fc826158f0565b604082019050919050565b6000615114601c83615653565b915061511f8261593f565b602082019050919050565b60006040830160008301518482036000860152615147828261502c565b91505060208301518482036020860152615161828261502c565b9150508091505092915050565b6000610180830160008301516151876000860182615295565b50602083015161519a6020860182614f5d565b50604083015184820360408601526151b2828261502c565b915050606083015184820360608601526151cc828261502c565b915050608083015184820360808601526151e6828261502c565b91505060a083015184820360a0860152615200828261502c565b91505060c083015184820360c086015261521a828261502c565b91505060e083015184820360e0860152615234828261502c565b91505061010083015161524b61010086018261500e565b50610120830151615260610120860182614ff0565b50610140830151615275610140860182614ff0565b5061016083015161528a610160860182615295565b508091505092915050565b61529e816156c7565b82525050565b6152ad816156c7565b82525050565b600060208201905081810360008301526152cd8184614f7b565b905092915050565b60006020820190506152ea6000830184614fff565b92915050565b600060208201905081810360008301526153098161509e565b9050919050565b60006020820190508181036000830152615329816150c1565b9050919050565b60006020820190508181036000830152615349816150e4565b9050919050565b6000602082019050818103600083015261536981615107565b9050919050565b600060208201905061538560008301846152a4565b92915050565b6000610180820190506153a1600083018f6152a4565b6153ae602083018e614f6c565b81810360408301526153c0818d615065565b905081810360608301526153d4818c615065565b905081810360808301526153e8818b615065565b905081810360a08301526153fc818a615065565b905081810360c08301526154108189615065565b905081810360e08301526154248188615065565b905061543461010083018761501d565b615442610120830186614fff565b615450610140830185614fff565b61545e6101608301846152a4565b9d9c50505050505050505050505050565b600060808201905061548460008301876152a4565b81810360208301526154968186615065565b905081810360408301526154aa8185615065565b905081810360608301526154be8184615065565b905095945050505050565b6000610100820190506154df600083018b6152a4565b81810360208301526154f1818a615065565b905081810360408301526155058189615065565b905081810360608301526155198188615065565b9050818103608083015261552d8187615065565b905081810360a08301526155418186615065565b905061555060c0830185614fff565b81810360e0830152615562818461512a565b90509998505050505050505050565b600060608201905061558660008301866152a4565b61559360208301856152a4565b6155a060408301846152a4565b949350505050565b60006155b26155c3565b90506155be8282615757565b919050565b6000604051905090565b600067ffffffffffffffff8211156155e8576155e761585e565b5b6155f18261588d565b9050602081019050919050565b6000819050602082019050919050565b600081519050919050565b600081519050919050565b6000602082019050919050565b600082825260208201905092915050565b600082825260208201905092915050565b600082825260208201905092915050565b600061566f826156a7565b9050919050565b6000615681826156a7565b9050919050565b60008115159050919050565b60008190506156a282615968565b919050565b600073ffffffffffffffffffffffffffffffffffffffff82169050919050565b6000819050919050565b60006156dc82615694565b9050919050565b82818337600083830152505050565b60005b838110156157105780820151818401526020810190506156f5565b8381111561571f576000848401525b50505050565b6000600282049050600182168061573d57607f821691505b602082108114156157515761575061582f565b5b50919050565b6157608261588d565b810181811067ffffffffffffffff8211171561577f5761577e61585e565b5b80604052505050565b6000615793826156c7565b91507fffffffffffffffffffffffffffffffffffffffffffffffffffffffffffffffff8214156157c6576157c56157d1565b5b600182019050919050565b7f4e487b7100000000000000000000000000000000000000000000000000000000600052601160045260246000fd5b7f4e487b7100000000000000000000000000000000000000000000000000000000600052602160045260246000fd5b7f4e487b7100000000000000000000000000000000000000000000000000000000600052602260045260246000fd5b7f4e487b7100000000000000000000000000000000000000000000000000000000600052604160045260246000fd5b6000601f19601f8301169050919050565b7f72696465206973206e6f7420636f6d706c657465640000000000000000000000600082015250565b7f4661696c656420746f2073656e64204574686572000000000000000000000000600082015250565b7f54686973204164647265737320697320616c726561647920526567697374657260008201527f6564000000000000000000000000000000000000000000000000000000000000602082015250565b7f76616c75652073656e74206973206c657373207468616e206661697200000000600082015250565b6003811061597957615978615800565b5b50565b61598581615664565b811461599057600080fd5b50565b61599c816156c7565b81146159a757600080fd5b5056fea2646970667358221220e26ccad3fdf8470ae139de8788ab51ea214bace944043ae55522261dd0b12ab364736f6c63430008040033",
  "linkReferences": {},
  "deployedLinkReferences": {}
}