{
  "_format": "hh-sol-artifact-1",
  "contractName": "RideSharing",
  "sourceName": "contracts/Ridesharing.sol",
  "abi": [
    {
      "inputs": [
        {
          "internalType": "string",
          "name": "msg",
          "type": "string"
        }
      ],
      "name": "AlreadyRegistered",
      "type": "error"
    },
    {
      "inputs": [
        {
          "internalType": "string",
          "name": "msg",
          "type": "string"
        }
      ],
      "name": "lessThanFair",
      "type": "error"
    },
    {
      "inputs": [
        {
          "internalType": "string",
          "name": "msg",
          "type": "string"
        }
      ],
      "name": "ridenotCompleted",
      "type": "error"
    },
    {
      "anonymous": false,
      "inputs": [
        {
          "indexed": false,
          "internalType": "uint256",
          "name": "id",
          "type": "uint256"
        }
      ],
      "name": "RideCreated",
      "type": "event"
    },
    {
      "anonymous": false,
      "inputs": [
        {
          "indexed": false,
          "internalType": "uint256",
          "name": "Type",
          "type": "uint256"
        },
        {
          "indexed": false,
          "internalType": "uint256",
          "name": "id",
          "type": "uint256"
        }
      ],
      "name": "UserType",
      "type": "event"
    },
    {
      "anonymous": false,
      "inputs": [
        {
          "indexed": false,
          "internalType": "uint256",
          "name": "driverId",
          "type": "uint256"
        },
        {
          "indexed": false,
          "internalType": "string",
          "name": "name",
          "type": "string"
        },
        {
          "indexed": false,
          "internalType": "string",
          "name": "nic",
          "type": "string"
        },
        {
          "indexed": false,
          "internalType": "string",
          "name": "regNum",
          "type": "string"
        }
      ],
      "name": "registeredDriver",
      "type": "event"
    },
    {
      "anonymous": false,
      "inputs": [
        {
          "indexed": false,
          "internalType": "uint256",
          "name": "RiderId",
          "type": "uint256"
        },
        {
          "indexed": false,
          "internalType": "string",
          "name": "name",
          "type": "string"
        },
        {
          "indexed": false,
          "internalType": "string",
          "name": "email",
          "type": "string"
        },
        {
          "indexed": false,
          "internalType": "string",
          "name": "cellno",
          "type": "string"
        }
      ],
      "name": "registeredRider",
      "type": "event"
    },
    {
      "inputs": [
        {
          "internalType": "uint256",
          "name": "",
          "type": "uint256"
        }
      ],
      "name": "RideIDTodriverId",
      "outputs": [
        {
          "internalType": "uint256",
          "name": "",
          "type": "uint256"
        }
      ],
      "stateMutability": "view",
      "type": "function"
    },
    {
      "inputs": [
        {
          "internalType": "uint256",
          "name": "",
          "type": "uint256"
        }
      ],
      "name": "RideIdToRider",
      "outputs": [
        {
          "internalType": "uint256",
          "name": "Id",
          "type": "uint256"
        },
        {
          "internalType": "string",
          "name": "name",
          "type": "string"
        },
        {
          "internalType": "string",
          "name": "email",
          "type": "string"
        },
        {
          "internalType": "string",
          "name": "cellno",
          "type": "string"
        }
      ],
      "stateMutability": "view",
      "type": "function"
    },
    {
      "inputs": [
        {
          "internalType": "address",
          "name": "",
          "type": "address"
        }
      ],
      "name": "addressToDriver",
      "outputs": [
        {
          "internalType": "uint256",
          "name": "Id",
          "type": "uint256"
        },
        {
          "internalType": "string",
          "name": "name",
          "type": "string"
        },
        {
          "internalType": "string",
          "name": "nic",
          "type": "string"
        },
        {
          "internalType": "string",
          "name": "email",
          "type": "string"
        },
        {
          "internalType": "string",
          "name": "cellno",
          "type": "string"
        },
        {
          "internalType": "string",
          "name": "LiscenceNo",
          "type": "string"
        },
        {
          "internalType": "bool",
          "name": "isRegistered",
          "type": "bool"
        },
        {
          "components": [
            {
              "internalType": "string",
              "name": "regNum",
              "type": "string"
            },
            {
              "internalType": "string",
              "name": "modelName",
              "type": "string"
            }
          ],
          "internalType": "struct RideSharing.Car",
          "name": "car",
          "type": "tuple"
        }
      ],
      "stateMutability": "view",
      "type": "function"
    },
    {
      "inputs": [
        {
          "internalType": "address",
          "name": "",
          "type": "address"
        }
      ],
      "name": "addressToRider",
      "outputs": [
        {
          "internalType": "uint256",
          "name": "Id",
          "type": "uint256"
        },
        {
          "internalType": "string",
          "name": "name",
          "type": "string"
        },
        {
          "internalType": "string",
          "name": "email",
          "type": "string"
        },
        {
          "internalType": "string",
          "name": "cellno",
          "type": "string"
        }
      ],
      "stateMutability": "view",
      "type": "function"
    },
    {
      "inputs": [
        {
          "internalType": "uint256",
          "name": "rideId",
          "type": "uint256"
        }
      ],
      "name": "completeRide",
      "outputs": [],
      "stateMutability": "nonpayable",
      "type": "function"
    },
    {
      "inputs": [
        {
          "internalType": "string",
          "name": "location",
          "type": "string"
        },
        {
          "internalType": "string",
          "name": "sourceLong",
          "type": "string"
        },
        {
          "internalType": "string",
          "name": "sourceLat",
          "type": "string"
        },
        {
          "internalType": "string",
          "name": "destLong",
          "type": "string"
        },
        {
          "internalType": "string",
          "name": "destLat",
          "type": "string"
        },
        {
          "internalType": "string",
          "name": "startTime",
          "type": "string"
        }
      ],
      "name": "createRide",
      "outputs": [],
      "stateMutability": "nonpayable",
      "type": "function"
    },
    {
      "inputs": [
        {
          "internalType": "address",
          "name": "",
          "type": "address"
        }
      ],
      "name": "driverIsRegistered",
      "outputs": [
        {
          "internalType": "bool",
          "name": "",
          "type": "bool"
        }
      ],
      "stateMutability": "view",
      "type": "function"
    },
    {
      "inputs": [],
      "name": "getAllRides",
      "outputs": [
        {
          "components": [
            {
              "internalType": "uint256",
              "name": "rideId",
              "type": "uint256"
            },
            {
              "internalType": "address payable",
              "name": "creator",
              "type": "address"
            },
            {
              "internalType": "string",
              "name": "StartTime",
              "type": "string"
            },
            {
              "internalType": "string",
              "name": "location",
              "type": "string"
            },
            {
              "internalType": "string",
              "name": "sourceLong",
              "type": "string"
            },
            {
              "internalType": "string",
              "name": "sourceLat",
              "type": "string"
            },
            {
              "internalType": "string",
              "name": "destLong",
              "type": "string"
            },
            {
              "internalType": "string",
              "name": "destLat",
              "type": "string"
            },
            {
              "internalType": "enum RideSharing.state",
              "name": "currState",
              "type": "uint8"
            },
            {
              "internalType": "bool",
              "name": "isPayed",
              "type": "bool"
            },
            {
              "internalType": "uint256",
              "name": "fair",
              "type": "uint256"
            }
          ],
          "internalType": "struct RideSharing.Ride[]",
          "name": "",
          "type": "tuple[]"
        }
      ],
      "stateMutability": "view",
      "type": "function"
    },
    {
      "inputs": [
        {
          "internalType": "address",
          "name": "_driver",
          "type": "address"
        }
      ],
      "name": "getDriverByAddress",
      "outputs": [
        {
          "internalType": "uint256",
          "name": "",
          "type": "uint256"
        }
      ],
      "stateMutability": "view",
      "type": "function"
    },
    {
      "inputs": [
        {
          "internalType": "uint256",
          "name": "DriverId",
          "type": "uint256"
        }
      ],
      "name": "getRidesByDriverId",
      "outputs": [
        {
          "components": [
            {
              "internalType": "uint256",
              "name": "rideId",
              "type": "uint256"
            },
            {
              "internalType": "address payable",
              "name": "creator",
              "type": "address"
            },
            {
              "internalType": "string",
              "name": "StartTime",
              "type": "string"
            },
            {
              "internalType": "string",
              "name": "location",
              "type": "string"
            },
            {
              "internalType": "string",
              "name": "sourceLong",
              "type": "string"
            },
            {
              "internalType": "string",
              "name": "sourceLat",
              "type": "string"
            },
            {
              "internalType": "string",
              "name": "destLong",
              "type": "string"
            },
            {
              "internalType": "string",
              "name": "destLat",
              "type": "string"
            },
            {
              "internalType": "enum RideSharing.state",
              "name": "currState",
              "type": "uint8"
            },
            {
              "internalType": "bool",
              "name": "isPayed",
              "type": "bool"
            },
            {
              "internalType": "uint256",
              "name": "fair",
              "type": "uint256"
            }
          ],
          "internalType": "struct RideSharing.Ride[]",
          "name": "",
          "type": "tuple[]"
        }
      ],
      "stateMutability": "view",
      "type": "function"
    },
    {
      "inputs": [
        {
          "internalType": "uint256",
          "name": "riderId",
          "type": "uint256"
        }
      ],
      "name": "getRidesByRiderId",
      "outputs": [
        {
          "components": [
            {
              "internalType": "uint256",
              "name": "rideId",
              "type": "uint256"
            },
            {
              "internalType": "address payable",
              "name": "creator",
              "type": "address"
            },
            {
              "internalType": "string",
              "name": "StartTime",
              "type": "string"
            },
            {
              "internalType": "string",
              "name": "location",
              "type": "string"
            },
            {
              "internalType": "string",
              "name": "sourceLong",
              "type": "string"
            },
            {
              "internalType": "string",
              "name": "sourceLat",
              "type": "string"
            },
            {
              "internalType": "string",
              "name": "destLong",
              "type": "string"
            },
            {
              "internalType": "string",
              "name": "destLat",
              "type": "string"
            },
            {
              "internalType": "enum RideSharing.state",
              "name": "currState",
              "type": "uint8"
            },
            {
              "internalType": "bool",
              "name": "isPayed",
              "type": "bool"
            },
            {
              "internalType": "uint256",
              "name": "fair",
              "type": "uint256"
            }
          ],
          "internalType": "struct RideSharing.Ride[]",
          "name": "",
          "type": "tuple[]"
        }
      ],
      "stateMutability": "view",
      "type": "function"
    },
    {
      "inputs": [
        {
          "internalType": "address",
          "name": "user",
          "type": "address"
        }
      ],
      "name": "getUserType",
      "outputs": [
        {
          "internalType": "uint256",
          "name": "",
          "type": "uint256"
        },
        {
          "internalType": "uint256",
          "name": "",
          "type": "uint256"
        },
        {
          "internalType": "uint256",
          "name": "",
          "type": "uint256"
        }
      ],
      "stateMutability": "view",
      "type": "function"
    },
    {
      "inputs": [
        {
          "internalType": "uint256",
          "name": "",
          "type": "uint256"
        }
      ],
      "name": "idToDriver",
      "outputs": [
        {
          "internalType": "uint256",
          "name": "Id",
          "type": "uint256"
        },
        {
          "internalType": "string",
          "name": "name",
          "type": "string"
        },
        {
          "internalType": "string",
          "name": "nic",
          "type": "string"
        },
        {
          "internalType": "string",
          "name": "email",
          "type": "string"
        },
        {
          "internalType": "string",
          "name": "cellno",
          "type": "string"
        },
        {
          "internalType": "string",
          "name": "LiscenceNo",
          "type": "string"
        },
        {
          "internalType": "bool",
          "name": "isRegistered",
          "type": "bool"
        },
        {
          "components": [
            {
              "internalType": "string",
              "name": "regNum",
              "type": "string"
            },
            {
              "internalType": "string",
              "name": "modelName",
              "type": "string"
            }
          ],
          "internalType": "struct RideSharing.Car",
          "name": "car",
          "type": "tuple"
        }
      ],
      "stateMutability": "view",
      "type": "function"
    },
    {
      "inputs": [
        {
          "internalType": "uint256",
          "name": "",
          "type": "uint256"
        }
      ],
      "name": "idToRide",
      "outputs": [
        {
          "internalType": "uint256",
          "name": "rideId",
          "type": "uint256"
        },
        {
          "internalType": "address payable",
          "name": "creator",
          "type": "address"
        },
        {
          "internalType": "string",
          "name": "StartTime",
          "type": "string"
        },
        {
          "internalType": "string",
          "name": "location",
          "type": "string"
        },
        {
          "internalType": "string",
          "name": "sourceLong",
          "type": "string"
        },
        {
          "internalType": "string",
          "name": "sourceLat",
          "type": "string"
        },
        {
          "internalType": "string",
          "name": "destLong",
          "type": "string"
        },
        {
          "internalType": "string",
          "name": "destLat",
          "type": "string"
        },
        {
          "internalType": "enum RideSharing.state",
          "name": "currState",
          "type": "uint8"
        },
        {
          "internalType": "bool",
          "name": "isPayed",
          "type": "bool"
        },
        {
          "internalType": "uint256",
          "name": "fair",
          "type": "uint256"
        }
      ],
      "stateMutability": "view",
      "type": "function"
    },
    {
      "inputs": [
        {
          "internalType": "uint256",
          "name": "",
          "type": "uint256"
        }
      ],
      "name": "idToRider",
      "outputs": [
        {
          "internalType": "uint256",
          "name": "Id",
          "type": "uint256"
        },
        {
          "internalType": "string",
          "name": "name",
          "type": "string"
        },
        {
          "internalType": "string",
          "name": "email",
          "type": "string"
        },
        {
          "internalType": "string",
          "name": "cellno",
          "type": "string"
        }
      ],
      "stateMutability": "view",
      "type": "function"
    },
    {
      "inputs": [
        {
          "internalType": "uint256",
          "name": "rideId",
          "type": "uint256"
        },
        {
          "internalType": "uint256",
          "name": "riderId",
          "type": "uint256"
        }
      ],
      "name": "joinRide",
      "outputs": [],
      "stateMutability": "nonpayable",
      "type": "function"
    },
    {
      "inputs": [
        {
          "internalType": "uint256",
          "name": "rideId",
          "type": "uint256"
        }
      ],
      "name": "payForRide",
      "outputs": [],
      "stateMutability": "payable",
      "type": "function"
    },
    {
      "inputs": [
        {
          "internalType": "string",
          "name": "_name",
          "type": "string"
        },
        {
          "internalType": "string",
          "name": "_nic",
          "type": "string"
        },
        {
          "internalType": "string",
          "name": "_email",
          "type": "string"
        },
        {
          "internalType": "string",
          "name": "_cellno",
          "type": "string"
        },
        {
          "internalType": "string",
          "name": "_regNum",
          "type": "string"
        },
        {
          "internalType": "string",
          "name": "_modelName",
          "type": "string"
        },
        {
          "internalType": "string",
          "name": "_LiscenceNo",
          "type": "string"
        }
      ],
      "name": "registerForDriver",
      "outputs": [],
      "stateMutability": "nonpayable",
      "type": "function"
    },
    {
      "inputs": [
        {
          "internalType": "string",
          "name": "_name",
          "type": "string"
        },
        {
          "internalType": "string",
          "name": "_email",
          "type": "string"
        },
        {
          "internalType": "string",
          "name": "_cellno",
          "type": "string"
        }
      ],
      "name": "registerForRider",
      "outputs": [],
      "stateMutability": "nonpayable",
      "type": "function"
    },
    {
      "inputs": [
        {
          "internalType": "uint256",
          "name": "",
          "type": "uint256"
        }
      ],
      "name": "riderIdtoride",
      "outputs": [
        {
          "internalType": "uint256",
          "name": "rideId",
          "type": "uint256"
        },
        {
          "internalType": "address payable",
          "name": "creator",
          "type": "address"
        },
        {
          "internalType": "string",
          "name": "StartTime",
          "type": "string"
        },
        {
          "internalType": "string",
          "name": "location",
          "type": "string"
        },
        {
          "internalType": "string",
          "name": "sourceLong",
          "type": "string"
        },
        {
          "internalType": "string",
          "name": "sourceLat",
          "type": "string"
        },
        {
          "internalType": "string",
          "name": "destLong",
          "type": "string"
        },
        {
          "internalType": "string",
          "name": "destLat",
          "type": "string"
        },
        {
          "internalType": "enum RideSharing.state",
          "name": "currState",
          "type": "uint8"
        },
        {
          "internalType": "bool",
          "name": "isPayed",
          "type": "bool"
        },
        {
          "internalType": "uint256",
          "name": "fair",
          "type": "uint256"
        }
      ],
      "stateMutability": "view",
      "type": "function"
    },
    {
      "inputs": [
        {
          "internalType": "uint256",
          "name": "",
          "type": "uint256"
        }
      ],
      "name": "riderIdtorideId",
      "outputs": [
        {
          "internalType": "uint256",
          "name": "",
          "type": "uint256"
        }
      ],
      "stateMutability": "view",
      "type": "function"
    },
    {
      "inputs": [
        {
          "internalType": "address",
          "name": "",
          "type": "address"
        }
      ],
      "name": "riderIsRegistered",
      "outputs": [
        {
          "internalType": "bool",
          "name": "",
          "type": "bool"
        }
      ],
      "stateMutability": "view",
      "type": "function"
    },
    {
      "inputs": [
        {
          "internalType": "uint256",
          "name": "rideId",
          "type": "uint256"
        },
        {
          "internalType": "uint256",
          "name": "fair",
          "type": "uint256"
        }
      ],
      "name": "setFair",
      "outputs": [],
      "stateMutability": "nonpayable",
      "type": "function"
    }
  ],
  "bytecode": "0x608060405234801561001057600080fd5b50615ff780620000216000396000f3fe6080604052600436106101405760003560e01c80638b3f863f116100b6578063c416dd0b1161006f578063c416dd0b146104e8578063d7e78c6114610511578063e147d78714610558578063e656b57814610595578063ec7a5220146105d5578063f2c5c2f11461061957610140565b80638b3f863f146103855780639e473a47146103c4578063a9b6bbde14610401578063ba1ac3771461043e578063bbe3803a14610467578063c092e399146104a457610140565b80632acc07e0116101085780632acc07e014610244578063472b06c01461026d578063632c728e1461029657806366ec451c146102d357806374cc9f1d1461031a578063787660c31461035a57610140565b806305c41e0e146101455780630c826fa1146101855780630df39bb1146101ae5780631840110a146101ca5780631a5378fa14610207575b600080fd5b34801561015157600080fd5b5061016c6004803603810190610167919061551f565b610642565b60405161017c9493929190615a86565b60405180910390f35b34801561019157600080fd5b506101ac60048036038101906101a79190615548565b61080a565b005b6101c860048036038101906101c3919061551f565b61082f565b005b3480156101d657600080fd5b506101f160048036038101906101ec919061551f565b610e65565b6040516101fe9190615996565b60405180910390f35b34801561021357600080fd5b5061022e6004803603810190610229919061551f565b610e7d565b60405161023b91906158d9565b60405180910390f35b34801561025057600080fd5b5061026b600480360381019061026691906152c0565b611487565b005b34801561027957600080fd5b50610294600480360381019061028f9190615229565b611938565b005b3480156102a257600080fd5b506102bd60048036038101906102b8919061551f565b611bc1565b6040516102ca91906158d9565b60405180910390f35b3480156102df57600080fd5b506102fa60048036038101906102f5919061551f565b6121cb565b6040516103119b9a999897969594939291906159b1565b60405180910390f35b34801561032657600080fd5b50610341600480360381019061033c919061551f565b61258f565b6040516103519493929190615a86565b60405180910390f35b34801561036657600080fd5b5061036f612757565b60405161037c91906158d9565b60405180910390f35b34801561039157600080fd5b506103ac60048036038101906103a79190615200565b612cfd565b6040516103bb93929190615b88565b60405180910390f35b3480156103d057600080fd5b506103eb60048036038101906103e69190615200565b61343f565b6040516103f891906158fb565b60405180910390f35b34801561040d57600080fd5b5061042860048036038101906104239190615200565b61345f565b6040516104359190615996565b60405180910390f35b34801561044a57600080fd5b50610465600480360381019061046091906153d9565b6134b0565b005b34801561047357600080fd5b5061048e6004803603810190610489919061551f565b6138b1565b60405161049b9190615996565b60405180910390f35b3480156104b057600080fd5b506104cb60048036038101906104c69190615200565b6138c9565b6040516104df989796959493929190615ae0565b60405180910390f35b3480156104f457600080fd5b5061050f600480360381019061050a919061551f565b613cf4565b005b34801561051d57600080fd5b506105386004803603810190610533919061551f565b613d62565b60405161054f9b9a999897969594939291906159b1565b60405180910390f35b34801561056457600080fd5b5061057f600480360381019061057a9190615200565b614126565b60405161058c91906158fb565b60405180910390f35b3480156105a157600080fd5b506105bc60048036038101906105b79190615200565b614146565b6040516105cc9493929190615a86565b60405180910390f35b3480156105e157600080fd5b506105fc60048036038101906105f7919061551f565b61430e565b604051610610989796959493929190615ae0565b60405180910390f35b34801561062557600080fd5b50610640600480360381019061063b9190615548565b614739565b005b600660205280600052604060002060009150905080600001549080600101805461066b90615d3c565b80601f016020809104026020016040519081016040528092919081815260200182805461069790615d3c565b80156106e45780601f106106b9576101008083540402835291602001916106e4565b820191906000526020600020905b8154815290600101906020018083116106c757829003601f168201915b5050505050908060020180546106f990615d3c565b80601f016020809104026020016040519081016040528092919081815260200182805461072590615d3c565b80156107725780601f1061074757610100808354040283529160200191610772565b820191906000526020600020905b81548152906001019060200180831161075557829003601f168201915b50505050509080600301805461078790615d3c565b80601f01602080910402602001604051908101604052809291908181526020018280546107b390615d3c565b80156108005780601f106107d557610100808354040283529160200191610800565b820191906000526020600020905b8154815290600101906020018083116107e357829003601f168201915b5050505050905084565b6000600a60008481526020019081526020016000209050818160090181905550505050565b6000600a600083815260200190815260200160002060405180610160016040529081600082015481526020016001820160009054906101000a900473ffffffffffffffffffffffffffffffffffffffff1673ffffffffffffffffffffffffffffffffffffffff1673ffffffffffffffffffffffffffffffffffffffff1681526020016002820180546108c090615d3c565b80601f01602080910402602001604051908101604052809291908181526020018280546108ec90615d3c565b80156109395780601f1061090e57610100808354040283529160200191610939565b820191906000526020600020905b81548152906001019060200180831161091c57829003601f168201915b5050505050815260200160038201805461095290615d3c565b80601f016020809104026020016040519081016040528092919081815260200182805461097e90615d3c565b80156109cb5780601f106109a0576101008083540402835291602001916109cb565b820191906000526020600020905b8154815290600101906020018083116109ae57829003601f168201915b505050505081526020016004820180546109e490615d3c565b80601f0160208091040260200160405190810160405280929190818152602001828054610a1090615d3c565b8015610a5d5780601f10610a3257610100808354040283529160200191610a5d565b820191906000526020600020905b815481529060010190602001808311610a4057829003601f168201915b50505050508152602001600582018054610a7690615d3c565b80601f0160208091040260200160405190810160405280929190818152602001828054610aa290615d3c565b8015610aef5780601f10610ac457610100808354040283529160200191610aef565b820191906000526020600020905b815481529060010190602001808311610ad257829003601f168201915b50505050508152602001600682018054610b0890615d3c565b80601f0160208091040260200160405190810160405280929190818152602001828054610b3490615d3c565b8015610b815780601f10610b5657610100808354040283529160200191610b81565b820191906000526020600020905b815481529060010190602001808311610b6457829003601f168201915b50505050508152602001600782018054610b9a90615d3c565b80601f0160208091040260200160405190810160405280929190818152602001828054610bc690615d3c565b8015610c135780601f10610be857610100808354040283529160200191610c13565b820191906000526020600020905b815481529060010190602001808311610bf657829003601f168201915b505050505081526020016008820160009054906101000a900460ff166002811115610c67577f4e487b7100000000000000000000000000000000000000000000000000000000600052602160045260246000fd5b6002811115610c9f577f4e487b7100000000000000000000000000000000000000000000000000000000600052602160045260246000fd5b81526020016008820160019054906101000a900460ff16151515158152602001600982015481525050905060016002811115610d04577f4e487b7100000000000000000000000000000000000000000000000000000000600052602160045260246000fd5b8161010001516002811115610d42577f4e487b7100000000000000000000000000000000000000000000000000000000600052602160045260246000fd5b1415610d83576040517f56f5dc62000000000000000000000000000000000000000000000000000000008152600401610d7a90615916565b60405180910390fd5b600081602001519050816101400151341015610dd4576040517fb399a5e0000000000000000000000000000000000000000000000000000000008152600401610dcb90615976565b60405180910390fd5b60008173ffffffffffffffffffffffffffffffffffffffff166108fc349081150290604051600060405180830381858888f19350505050905080610e4d576040517f08c379a0000000000000000000000000000000000000000000000000000000008152600401610e4490615936565b60405180910390fd5b60018361012001901515908115158152505050505050565b600b6020528060005260406000206000915090505481565b60606000806000600190505b610e936001614ffd565b8111610ed6578460096000838152602001908152602001600020541415610ec3578280610ebf90615d9f565b9350505b8080610ece90615d9f565b915050610e89565b5060008267ffffffffffffffff811115610f19577f4e487b7100000000000000000000000000000000000000000000000000000000600052604160045260246000fd5b604051908082528060200260200182016040528015610f5257816020015b610f3f615021565b815260200190600190039081610f375790505b5090506000600190505b83811161147b57856009600083815260200190815260200160002054141561146857600e600087815260200190815260200160002060405180610160016040529081600082015481526020016001820160009054906101000a900473ffffffffffffffffffffffffffffffffffffffff1673ffffffffffffffffffffffffffffffffffffffff1673ffffffffffffffffffffffffffffffffffffffff16815260200160028201805461100d90615d3c565b80601f016020809104026020016040519081016040528092919081815260200182805461103990615d3c565b80156110865780601f1061105b57610100808354040283529160200191611086565b820191906000526020600020905b81548152906001019060200180831161106957829003601f168201915b5050505050815260200160038201805461109f90615d3c565b80601f01602080910402602001604051908101604052809291908181526020018280546110cb90615d3c565b80156111185780601f106110ed57610100808354040283529160200191611118565b820191906000526020600020905b8154815290600101906020018083116110fb57829003601f168201915b5050505050815260200160048201805461113190615d3c565b80601f016020809104026020016040519081016040528092919081815260200182805461115d90615d3c565b80156111aa5780601f1061117f576101008083540402835291602001916111aa565b820191906000526020600020905b81548152906001019060200180831161118d57829003601f168201915b505050505081526020016005820180546111c390615d3c565b80601f01602080910402602001604051908101604052809291908181526020018280546111ef90615d3c565b801561123c5780601f106112115761010080835404028352916020019161123c565b820191906000526020600020905b81548152906001019060200180831161121f57829003601f168201915b5050505050815260200160068201805461125590615d3c565b80601f016020809104026020016040519081016040528092919081815260200182805461128190615d3c565b80156112ce5780601f106112a3576101008083540402835291602001916112ce565b820191906000526020600020905b8154815290600101906020018083116112b157829003601f168201915b505050505081526020016007820180546112e790615d3c565b80601f016020809104026020016040519081016040528092919081815260200182805461131390615d3c565b80156113605780601f1061133557610100808354040283529160200191611360565b820191906000526020600020905b81548152906001019060200180831161134357829003601f168201915b505050505081526020016008820160009054906101000a900460ff1660028111156113b4577f4e487b7100000000000000000000000000000000000000000000000000000000600052602160045260246000fd5b60028111156113ec577f4e487b7100000000000000000000000000000000000000000000000000000000600052602160045260246000fd5b81526020016008820160019054906101000a900460ff1615151515815260200160098201548152505082848151811061144e577f4e487b7100000000000000000000000000000000000000000000000000000000600052603260045260246000fd5b6020026020010181905250828061146490615d9f565b9350505b808061147390615d9f565b915050610f5c565b50809350505050919050565b60011515600360003373ffffffffffffffffffffffffffffffffffffffff1673ffffffffffffffffffffffffffffffffffffffff16815260200190815260200160002060009054906101000a900460ff161515146114e457600080fd5b60006114ef3361345f565b90506114fb600161500b565b60006115076001614ffd565b905060006040518061016001604052808381526020013373ffffffffffffffffffffffffffffffffffffffff1681526020018581526020018a815260200189815260200188815260200187815260200186815260200160006002811115611597577f4e487b7100000000000000000000000000000000000000000000000000000000600052602160045260246000fd5b81526020016000151581526020016000815250905080600a60008481526020019081526020016000206000820151816000015560208201518160010160006101000a81548173ffffffffffffffffffffffffffffffffffffffff021916908373ffffffffffffffffffffffffffffffffffffffff160217905550604082015181600201908051906020019061162d9291906150cb565b50606082015181600301908051906020019061164a9291906150cb565b5060808201518160040190805190602001906116679291906150cb565b5060a08201518160050190805190602001906116849291906150cb565b5060c08201518160060190805190602001906116a19291906150cb565b5060e08201518160070190805190602001906116be9291906150cb565b506101008201518160080160006101000a81548160ff02191690836002811115611711577f4e487b7100000000000000000000000000000000000000000000000000000000600052602160045260246000fd5b02179055506101208201518160080160016101000a81548160ff021916908315150217905550610140820151816009015590505082600960008481526020019081526020016000208190555080600e60008581526020019081526020016000206000820151816000015560208201518160010160006101000a81548173ffffffffffffffffffffffffffffffffffffffff021916908373ffffffffffffffffffffffffffffffffffffffff16021790555060408201518160020190805190602001906117de9291906150cb565b5060608201518160030190805190602001906117fb9291906150cb565b5060808201518160040190805190602001906118189291906150cb565b5060a08201518160050190805190602001906118359291906150cb565b5060c08201518160060190805190602001906118529291906150cb565b5060e082015181600701908051906020019061186f9291906150cb565b506101008201518160080160006101000a81548160ff021916908360028111156118c2577f4e487b7100000000000000000000000000000000000000000000000000000000600052602160045260246000fd5b02179055506101208201518160080160016101000a81548160ff02191690831515021790555061014082015181600901559050507fc27ec3789f4bc1d6d2f29681b715c37ef81e0befe9801d926a95d607f42a2c53826040516119259190615996565b60405180910390a1505050505050505050565b60011515600460003373ffffffffffffffffffffffffffffffffffffffff1673ffffffffffffffffffffffffffffffffffffffff16815260200190815260200160002060009054906101000a900460ff16151514156119cc576040517f0a7a3d7c0000000000000000000000000000000000000000000000000000000081526004016119c390615956565b60405180910390fd5b6119d6600261500b565b60006119e26002614ffd565b9050600060405180608001604052808381526020018681526020018581526020018481525090506001600460003373ffffffffffffffffffffffffffffffffffffffff1673ffffffffffffffffffffffffffffffffffffffff16815260200190815260200160002060006101000a81548160ff0219169083151502179055508060066000848152602001908152602001600020600082015181600001556020820151816001019080519060200190611a9b9291906150cb565b506040820151816002019080519060200190611ab89291906150cb565b506060820151816003019080519060200190611ad59291906150cb565b5090505080600860003373ffffffffffffffffffffffffffffffffffffffff1673ffffffffffffffffffffffffffffffffffffffff168152602001908152602001600020600082015181600001556020820151816001019080519060200190611b3f9291906150cb565b506040820151816002019080519060200190611b5c9291906150cb565b506060820151816003019080519060200190611b799291906150cb565b509050507f22e9c31ba948c6fb17673cf7d4f73d44f2090424bd885b5c4adb3b24b00ba0fe82868686604051611bb29493929190615a86565b60405180910390a15050505050565b60606000806000600190505b611bd76001614ffd565b8111611c1a5784600f6000838152602001908152602001600020541415611c07578280611c0390615d9f565b9350505b8080611c1290615d9f565b915050611bcd565b5060008267ffffffffffffffff811115611c5d577f4e487b7100000000000000000000000000000000000000000000000000000000600052604160045260246000fd5b604051908082528060200260200182016040528015611c9657816020015b611c83615021565b815260200190600190039081611c7b5790505b5090506000600190505b8381116121bf5785600f60008381526020019081526020016000205414156121ac57600a600082815260200190815260200160002060405180610160016040529081600082015481526020016001820160009054906101000a900473ffffffffffffffffffffffffffffffffffffffff1673ffffffffffffffffffffffffffffffffffffffff1673ffffffffffffffffffffffffffffffffffffffff168152602001600282018054611d5190615d3c565b80601f0160208091040260200160405190810160405280929190818152602001828054611d7d90615d3c565b8015611dca5780601f10611d9f57610100808354040283529160200191611dca565b820191906000526020600020905b815481529060010190602001808311611dad57829003601f168201915b50505050508152602001600382018054611de390615d3c565b80601f0160208091040260200160405190810160405280929190818152602001828054611e0f90615d3c565b8015611e5c5780601f10611e3157610100808354040283529160200191611e5c565b820191906000526020600020905b815481529060010190602001808311611e3f57829003601f168201915b50505050508152602001600482018054611e7590615d3c565b80601f0160208091040260200160405190810160405280929190818152602001828054611ea190615d3c565b8015611eee5780601f10611ec357610100808354040283529160200191611eee565b820191906000526020600020905b815481529060010190602001808311611ed157829003601f168201915b50505050508152602001600582018054611f0790615d3c565b80601f0160208091040260200160405190810160405280929190818152602001828054611f3390615d3c565b8015611f805780601f10611f5557610100808354040283529160200191611f80565b820191906000526020600020905b815481529060010190602001808311611f6357829003601f168201915b50505050508152602001600682018054611f9990615d3c565b80601f0160208091040260200160405190810160405280929190818152602001828054611fc590615d3c565b80156120125780601f10611fe757610100808354040283529160200191612012565b820191906000526020600020905b815481529060010190602001808311611ff557829003601f168201915b5050505050815260200160078201805461202b90615d3c565b80601f016020809104026020016040519081016040528092919081815260200182805461205790615d3c565b80156120a45780601f10612079576101008083540402835291602001916120a4565b820191906000526020600020905b81548152906001019060200180831161208757829003601f168201915b505050505081526020016008820160009054906101000a900460ff1660028111156120f8577f4e487b7100000000000000000000000000000000000000000000000000000000600052602160045260246000fd5b6002811115612130577f4e487b7100000000000000000000000000000000000000000000000000000000600052602160045260246000fd5b81526020016008820160019054906101000a900460ff16151515158152602001600982015481525050828481518110612192577f4e487b7100000000000000000000000000000000000000000000000000000000600052603260045260246000fd5b602002602001018190525082806121a890615d9f565b9350505b80806121b790615d9f565b915050611ca0565b50809350505050919050565b600a6020528060005260406000206000915090508060000154908060010160009054906101000a900473ffffffffffffffffffffffffffffffffffffffff169080600201805461221a90615d3c565b80601f016020809104026020016040519081016040528092919081815260200182805461224690615d3c565b80156122935780601f1061226857610100808354040283529160200191612293565b820191906000526020600020905b81548152906001019060200180831161227657829003601f168201915b5050505050908060030180546122a890615d3c565b80601f01602080910402602001604051908101604052809291908181526020018280546122d490615d3c565b80156123215780601f106122f657610100808354040283529160200191612321565b820191906000526020600020905b81548152906001019060200180831161230457829003601f168201915b50505050509080600401805461233690615d3c565b80601f016020809104026020016040519081016040528092919081815260200182805461236290615d3c565b80156123af5780601f10612384576101008083540402835291602001916123af565b820191906000526020600020905b81548152906001019060200180831161239257829003601f168201915b5050505050908060050180546123c490615d3c565b80601f01602080910402602001604051908101604052809291908181526020018280546123f090615d3c565b801561243d5780601f106124125761010080835404028352916020019161243d565b820191906000526020600020905b81548152906001019060200180831161242057829003601f168201915b50505050509080600601805461245290615d3c565b80601f016020809104026020016040519081016040528092919081815260200182805461247e90615d3c565b80156124cb5780601f106124a0576101008083540402835291602001916124cb565b820191906000526020600020905b8154815290600101906020018083116124ae57829003601f168201915b5050505050908060070180546124e090615d3c565b80601f016020809104026020016040519081016040528092919081815260200182805461250c90615d3c565b80156125595780601f1061252e57610100808354040283529160200191612559565b820191906000526020600020905b81548152906001019060200180831161253c57829003601f168201915b5050505050908060080160009054906101000a900460ff16908060080160019054906101000a900460ff1690806009015490508b565b600d6020528060005260406000206000915090508060000154908060010180546125b890615d3c565b80601f01602080910402602001604051908101604052809291908181526020018280546125e490615d3c565b80156126315780601f1061260657610100808354040283529160200191612631565b820191906000526020600020905b81548152906001019060200180831161261457829003601f168201915b50505050509080600201805461264690615d3c565b80601f016020809104026020016040519081016040528092919081815260200182805461267290615d3c565b80156126bf5780601f10612694576101008083540402835291602001916126bf565b820191906000526020600020905b8154815290600101906020018083116126a257829003601f168201915b5050505050908060030180546126d490615d3c565b80601f016020809104026020016040519081016040528092919081815260200182805461270090615d3c565b801561274d5780601f106127225761010080835404028352916020019161274d565b820191906000526020600020905b81548152906001019060200180831161273057829003601f168201915b5050505050905084565b60606000806127666001614ffd565b67ffffffffffffffff8111156127a5577f4e487b7100000000000000000000000000000000000000000000000000000000600052604160045260246000fd5b6040519080825280602002602001820160405280156127de57816020015b6127cb615021565b8152602001906001900390816127c35790505b5090506000600190505b6127f26001614ffd565b8111612cf457600a600082815260200190815260200160002060405180610160016040529081600082015481526020016001820160009054906101000a900473ffffffffffffffffffffffffffffffffffffffff1673ffffffffffffffffffffffffffffffffffffffff1673ffffffffffffffffffffffffffffffffffffffff16815260200160028201805461288790615d3c565b80601f01602080910402602001604051908101604052809291908181526020018280546128b390615d3c565b80156129005780601f106128d557610100808354040283529160200191612900565b820191906000526020600020905b8154815290600101906020018083116128e357829003601f168201915b5050505050815260200160038201805461291990615d3c565b80601f016020809104026020016040519081016040528092919081815260200182805461294590615d3c565b80156129925780601f1061296757610100808354040283529160200191612992565b820191906000526020600020905b81548152906001019060200180831161297557829003601f168201915b505050505081526020016004820180546129ab90615d3c565b80601f01602080910402602001604051908101604052809291908181526020018280546129d790615d3c565b8015612a245780601f106129f957610100808354040283529160200191612a24565b820191906000526020600020905b815481529060010190602001808311612a0757829003601f168201915b50505050508152602001600582018054612a3d90615d3c565b80601f0160208091040260200160405190810160405280929190818152602001828054612a6990615d3c565b8015612ab65780601f10612a8b57610100808354040283529160200191612ab6565b820191906000526020600020905b815481529060010190602001808311612a9957829003601f168201915b50505050508152602001600682018054612acf90615d3c565b80601f0160208091040260200160405190810160405280929190818152602001828054612afb90615d3c565b8015612b485780601f10612b1d57610100808354040283529160200191612b48565b820191906000526020600020905b815481529060010190602001808311612b2b57829003601f168201915b50505050508152602001600782018054612b6190615d3c565b80601f0160208091040260200160405190810160405280929190818152602001828054612b8d90615d3c565b8015612bda5780601f10612baf57610100808354040283529160200191612bda565b820191906000526020600020905b815481529060010190602001808311612bbd57829003601f168201915b505050505081526020016008820160009054906101000a900460ff166002811115612c2e577f4e487b7100000000000000000000000000000000000000000000000000000000600052602160045260246000fd5b6002811115612c66577f4e487b7100000000000000000000000000000000000000000000000000000000600052602160045260246000fd5b81526020016008820160019054906101000a900460ff16151515158152602001600982015481525050828481518110612cc8577f4e487b7100000000000000000000000000000000000000000000000000000000600052603260045260246000fd5b60200260200101819052508280612cde90615d9f565b9350508080612cec90615d9f565b9150506127e8565b50809250505090565b6000806000806000806000600860008973ffffffffffffffffffffffffffffffffffffffff1673ffffffffffffffffffffffffffffffffffffffff16815260200190815260200160002060405180608001604052908160008201548152602001600182018054612d6c90615d3c565b80601f0160208091040260200160405190810160405280929190818152602001828054612d9890615d3c565b8015612de55780601f10612dba57610100808354040283529160200191612de5565b820191906000526020600020905b815481529060010190602001808311612dc857829003601f168201915b50505050508152602001600282018054612dfe90615d3c565b80601f0160208091040260200160405190810160405280929190818152602001828054612e2a90615d3c565b8015612e775780601f10612e4c57610100808354040283529160200191612e77565b820191906000526020600020905b815481529060010190602001808311612e5a57829003601f168201915b50505050508152602001600382018054612e9090615d3c565b80601f0160208091040260200160405190810160405280929190818152602001828054612ebc90615d3c565b8015612f095780601f10612ede57610100808354040283529160200191612f09565b820191906000526020600020905b815481529060010190602001808311612eec57829003601f168201915b50505050508152505090506000600760008a73ffffffffffffffffffffffffffffffffffffffff1673ffffffffffffffffffffffffffffffffffffffff1681526020019081526020016000206040518061010001604052908160008201548152602001600182018054612f7b90615d3c565b80601f0160208091040260200160405190810160405280929190818152602001828054612fa790615d3c565b8015612ff45780601f10612fc957610100808354040283529160200191612ff4565b820191906000526020600020905b815481529060010190602001808311612fd757829003601f168201915b5050505050815260200160028201805461300d90615d3c565b80601f016020809104026020016040519081016040528092919081815260200182805461303990615d3c565b80156130865780601f1061305b57610100808354040283529160200191613086565b820191906000526020600020905b81548152906001019060200180831161306957829003601f168201915b5050505050815260200160038201805461309f90615d3c565b80601f01602080910402602001604051908101604052809291908181526020018280546130cb90615d3c565b80156131185780601f106130ed57610100808354040283529160200191613118565b820191906000526020600020905b8154815290600101906020018083116130fb57829003601f168201915b5050505050815260200160048201805461313190615d3c565b80601f016020809104026020016040519081016040528092919081815260200182805461315d90615d3c565b80156131aa5780601f1061317f576101008083540402835291602001916131aa565b820191906000526020600020905b81548152906001019060200180831161318d57829003601f168201915b505050505081526020016005820180546131c390615d3c565b80601f01602080910402602001604051908101604052809291908181526020018280546131ef90615d3c565b801561323c5780601f106132115761010080835404028352916020019161323c565b820191906000526020600020905b81548152906001019060200180831161321f57829003601f168201915b505050505081526020016006820160009054906101000a900460ff161515151581526020016007820160405180604001604052908160008201805461328090615d3c565b80601f01602080910402602001604051908101604052809291908181526020018280546132ac90615d3c565b80156132f95780601f106132ce576101008083540402835291602001916132f9565b820191906000526020600020905b8154815290600101906020018083116132dc57829003601f168201915b5050505050815260200160018201805461331290615d3c565b80601f016020809104026020016040519081016040528092919081815260200182805461333e90615d3c565b801561338b5780601f106133605761010080835404028352916020019161338b565b820191906000526020600020905b81548152906001019060200180831161336e57829003601f168201915b505050505081525050815250509050600082600001511480156133b357506000816000015114155b156133c857600194508060000151925061342a565b60008260000151141580156133e1575060008160000151145b156133f6576002945081600001519350613429565b600082600001511415801561341057506000816000015114155b15613428576003945080600001519250816000015193505b5b5b84848497509750975050505050509193909250565b60036020528060005260406000206000915054906101000a900460ff1681565b600080600760008473ffffffffffffffffffffffffffffffffffffffff1673ffffffffffffffffffffffffffffffffffffffff16815260200190815260200160002090508060000154915050919050565b60011515600360003373ffffffffffffffffffffffffffffffffffffffff1673ffffffffffffffffffffffffffffffffffffffff16815260200190815260200160002060009054906101000a900460ff1615151415613544576040517f0a7a3d7c00000000000000000000000000000000000000000000000000000000815260040161353b90615956565b60405180910390fd5b60006040518060400160405280858152602001848152509050613567600061500b565b60006135736000614ffd565b905060006040518061010001604052808381526020018b81526020018a81526020018981526020018881526020018581526020016001151581526020018481525090506001600360003373ffffffffffffffffffffffffffffffffffffffff1673ffffffffffffffffffffffffffffffffffffffff16815260200190815260200160002060006101000a81548160ff02191690831515021790555080600560008481526020019081526020016000206000820151816000015560208201518160010190805190602001906136489291906150cb565b5060408201518160020190805190602001906136659291906150cb565b5060608201518160030190805190602001906136829291906150cb565b50608082015181600401908051906020019061369f9291906150cb565b5060a08201518160050190805190602001906136bc9291906150cb565b5060c08201518160060160006101000a81548160ff02191690831515021790555060e08201518160070160008201518160000190805190602001906137029291906150cb565b50602082015181600101908051906020019061371f9291906150cb565b50505090505080600760003373ffffffffffffffffffffffffffffffffffffffff1673ffffffffffffffffffffffffffffffffffffffff16815260200190815260200160002060008201518160000155602082015181600101908051906020019061378b9291906150cb565b5060408201518160020190805190602001906137a89291906150cb565b5060608201518160030190805190602001906137c59291906150cb565b5060808201518160040190805190602001906137e29291906150cb565b5060a08201518160050190805190602001906137ff9291906150cb565b5060c08201518160060160006101000a81548160ff02191690831515021790555060e08201518160070160008201518160000190805190602001906138459291906150cb565b5060208201518160010190805190602001906138629291906150cb565b5050509050507f3de04171a543da1b7f9e1fabae52c6c8f0ab266b234a95ede56668caebce1bec828b8b8960405161389d9493929190615a86565b60405180910390a150505050505050505050565b60096020528060005260406000206000915090505481565b60076020528060005260406000206000915090508060000154908060010180546138f290615d3c565b80601f016020809104026020016040519081016040528092919081815260200182805461391e90615d3c565b801561396b5780601f106139405761010080835404028352916020019161396b565b820191906000526020600020905b81548152906001019060200180831161394e57829003601f168201915b50505050509080600201805461398090615d3c565b80601f01602080910402602001604051908101604052809291908181526020018280546139ac90615d3c565b80156139f95780601f106139ce576101008083540402835291602001916139f9565b820191906000526020600020905b8154815290600101906020018083116139dc57829003601f168201915b505050505090806003018054613a0e90615d3c565b80601f0160208091040260200160405190810160405280929190818152602001828054613a3a90615d3c565b8015613a875780601f10613a5c57610100808354040283529160200191613a87565b820191906000526020600020905b815481529060010190602001808311613a6a57829003601f168201915b505050505090806004018054613a9c90615d3c565b80601f0160208091040260200160405190810160405280929190818152602001828054613ac890615d3c565b8015613b155780601f10613aea57610100808354040283529160200191613b15565b820191906000526020600020905b815481529060010190602001808311613af857829003601f168201915b505050505090806005018054613b2a90615d3c565b80601f0160208091040260200160405190810160405280929190818152602001828054613b5690615d3c565b8015613ba35780601f10613b7857610100808354040283529160200191613ba3565b820191906000526020600020905b815481529060010190602001808311613b8657829003601f168201915b5050505050908060060160009054906101000a900460ff169080600701604051806040016040529081600082018054613bdb90615d3c565b80601f0160208091040260200160405190810160405280929190818152602001828054613c0790615d3c565b8015613c545780601f10613c2957610100808354040283529160200191613c54565b820191906000526020600020905b815481529060010190602001808311613c3757829003601f168201915b50505050508152602001600182018054613c6d90615d3c565b80601f0160208091040260200160405190810160405280929190818152602001828054613c9990615d3c565b8015613ce65780601f10613cbb57610100808354040283529160200191613ce6565b820191906000526020600020905b815481529060010190602001808311613cc957829003601f168201915b505050505081525050905088565b6000600a6000838152602001908152602001600020905060028160080160006101000a81548160ff02191690836002811115613d59577f4e487b7100000000000000000000000000000000000000000000000000000000600052602160045260246000fd5b02179055505050565b600c6020528060005260406000206000915090508060000154908060010160009054906101000a900473ffffffffffffffffffffffffffffffffffffffff1690806002018054613db190615d3c565b80601f0160208091040260200160405190810160405280929190818152602001828054613ddd90615d3c565b8015613e2a5780601f10613dff57610100808354040283529160200191613e2a565b820191906000526020600020905b815481529060010190602001808311613e0d57829003601f168201915b505050505090806003018054613e3f90615d3c565b80601f0160208091040260200160405190810160405280929190818152602001828054613e6b90615d3c565b8015613eb85780601f10613e8d57610100808354040283529160200191613eb8565b820191906000526020600020905b815481529060010190602001808311613e9b57829003601f168201915b505050505090806004018054613ecd90615d3c565b80601f0160208091040260200160405190810160405280929190818152602001828054613ef990615d3c565b8015613f465780601f10613f1b57610100808354040283529160200191613f46565b820191906000526020600020905b815481529060010190602001808311613f2957829003601f168201915b505050505090806005018054613f5b90615d3c565b80601f0160208091040260200160405190810160405280929190818152602001828054613f8790615d3c565b8015613fd45780601f10613fa957610100808354040283529160200191613fd4565b820191906000526020600020905b815481529060010190602001808311613fb757829003601f168201915b505050505090806006018054613fe990615d3c565b80601f016020809104026020016040519081016040528092919081815260200182805461401590615d3c565b80156140625780601f1061403757610100808354040283529160200191614062565b820191906000526020600020905b81548152906001019060200180831161404557829003601f168201915b50505050509080600701805461407790615d3c565b80601f01602080910402602001604051908101604052809291908181526020018280546140a390615d3c565b80156140f05780601f106140c5576101008083540402835291602001916140f0565b820191906000526020600020905b8154815290600101906020018083116140d357829003601f168201915b5050505050908060080160009054906101000a900460ff16908060080160019054906101000a900460ff1690806009015490508b565b60046020528060005260406000206000915054906101000a900460ff1681565b600860205280600052604060002060009150905080600001549080600101805461416f90615d3c565b80601f016020809104026020016040519081016040528092919081815260200182805461419b90615d3c565b80156141e85780601f106141bd576101008083540402835291602001916141e8565b820191906000526020600020905b8154815290600101906020018083116141cb57829003601f168201915b5050505050908060020180546141fd90615d3c565b80601f016020809104026020016040519081016040528092919081815260200182805461422990615d3c565b80156142765780601f1061424b57610100808354040283529160200191614276565b820191906000526020600020905b81548152906001019060200180831161425957829003601f168201915b50505050509080600301805461428b90615d3c565b80601f01602080910402602001604051908101604052809291908181526020018280546142b790615d3c565b80156143045780601f106142d957610100808354040283529160200191614304565b820191906000526020600020905b8154815290600101906020018083116142e757829003601f168201915b5050505050905084565b600560205280600052604060002060009150905080600001549080600101805461433790615d3c565b80601f016020809104026020016040519081016040528092919081815260200182805461436390615d3c565b80156143b05780601f10614385576101008083540402835291602001916143b0565b820191906000526020600020905b81548152906001019060200180831161439357829003601f168201915b5050505050908060020180546143c590615d3c565b80601f01602080910402602001604051908101604052809291908181526020018280546143f190615d3c565b801561443e5780601f106144135761010080835404028352916020019161443e565b820191906000526020600020905b81548152906001019060200180831161442157829003601f168201915b50505050509080600301805461445390615d3c565b80601f016020809104026020016040519081016040528092919081815260200182805461447f90615d3c565b80156144cc5780601f106144a1576101008083540402835291602001916144cc565b820191906000526020600020905b8154815290600101906020018083116144af57829003601f168201915b5050505050908060040180546144e190615d3c565b80601f016020809104026020016040519081016040528092919081815260200182805461450d90615d3c565b801561455a5780601f1061452f5761010080835404028352916020019161455a565b820191906000526020600020905b81548152906001019060200180831161453d57829003601f168201915b50505050509080600501805461456f90615d3c565b80601f016020809104026020016040519081016040528092919081815260200182805461459b90615d3c565b80156145e85780601f106145bd576101008083540402835291602001916145e8565b820191906000526020600020905b8154815290600101906020018083116145cb57829003601f168201915b5050505050908060060160009054906101000a900460ff16908060070160405180604001604052908160008201805461462090615d3c565b80601f016020809104026020016040519081016040528092919081815260200182805461464c90615d3c565b80156146995780601f1061466e57610100808354040283529160200191614699565b820191906000526020600020905b81548152906001019060200180831161467c57829003601f168201915b505050505081526020016001820180546146b290615d3c565b80601f01602080910402602001604051908101604052809291908181526020018280546146de90615d3c565b801561472b5780601f106147005761010080835404028352916020019161472b565b820191906000526020600020905b81548152906001019060200180831161470e57829003601f168201915b505050505081525050905088565b81600b6000838152602001908152602001600020819055506000600660008381526020019081526020016000206040518060800160405290816000820154815260200160018201805461478b90615d3c565b80601f01602080910402602001604051908101604052809291908181526020018280546147b790615d3c565b80156148045780601f106147d957610100808354040283529160200191614804565b820191906000526020600020905b8154815290600101906020018083116147e757829003601f168201915b5050505050815260200160028201805461481d90615d3c565b80601f016020809104026020016040519081016040528092919081815260200182805461484990615d3c565b80156148965780601f1061486b57610100808354040283529160200191614896565b820191906000526020600020905b81548152906001019060200180831161487957829003601f168201915b505050505081526020016003820180546148af90615d3c565b80601f01602080910402602001604051908101604052809291908181526020018280546148db90615d3c565b80156149285780601f106148fd57610100808354040283529160200191614928565b820191906000526020600020905b81548152906001019060200180831161490b57829003601f168201915b50505050508152505090506000600a600085815260200190815260200160002060405180610160016040529081600082015481526020016001820160009054906101000a900473ffffffffffffffffffffffffffffffffffffffff1673ffffffffffffffffffffffffffffffffffffffff1673ffffffffffffffffffffffffffffffffffffffff1681526020016002820180546149c490615d3c565b80601f01602080910402602001604051908101604052809291908181526020018280546149f090615d3c565b8015614a3d5780601f10614a1257610100808354040283529160200191614a3d565b820191906000526020600020905b815481529060010190602001808311614a2057829003601f168201915b50505050508152602001600382018054614a5690615d3c565b80601f0160208091040260200160405190810160405280929190818152602001828054614a8290615d3c565b8015614acf5780601f10614aa457610100808354040283529160200191614acf565b820191906000526020600020905b815481529060010190602001808311614ab257829003601f168201915b50505050508152602001600482018054614ae890615d3c565b80601f0160208091040260200160405190810160405280929190818152602001828054614b1490615d3c565b8015614b615780601f10614b3657610100808354040283529160200191614b61565b820191906000526020600020905b815481529060010190602001808311614b4457829003601f168201915b50505050508152602001600582018054614b7a90615d3c565b80601f0160208091040260200160405190810160405280929190818152602001828054614ba690615d3c565b8015614bf35780601f10614bc857610100808354040283529160200191614bf3565b820191906000526020600020905b815481529060010190602001808311614bd657829003601f168201915b50505050508152602001600682018054614c0c90615d3c565b80601f0160208091040260200160405190810160405280929190818152602001828054614c3890615d3c565b8015614c855780601f10614c5a57610100808354040283529160200191614c85565b820191906000526020600020905b815481529060010190602001808311614c6857829003601f168201915b50505050508152602001600782018054614c9e90615d3c565b80601f0160208091040260200160405190810160405280929190818152602001828054614cca90615d3c565b8015614d175780601f10614cec57610100808354040283529160200191614d17565b820191906000526020600020905b815481529060010190602001808311614cfa57829003601f168201915b505050505081526020016008820160009054906101000a900460ff166002811115614d6b577f4e487b7100000000000000000000000000000000000000000000000000000000600052602160045260246000fd5b6002811115614da3577f4e487b7100000000000000000000000000000000000000000000000000000000600052602160045260246000fd5b81526020016008820160019054906101000a900460ff16151515158152602001600982015481525050905081600d6000868152602001908152602001600020600082015181600001556020820151816001019080519060200190614e089291906150cb565b506040820151816002019080519060200190614e259291906150cb565b506060820151816003019080519060200190614e429291906150cb565b5090505082600f60008681526020019081526020016000208190555080600c60008581526020019081526020016000206000820151816000015560208201518160010160006101000a81548173ffffffffffffffffffffffffffffffffffffffff021916908373ffffffffffffffffffffffffffffffffffffffff1602179055506040820151816002019080519060200190614edf9291906150cb565b506060820151816003019080519060200190614efc9291906150cb565b506080820151816004019080519060200190614f199291906150cb565b5060a0820151816005019080519060200190614f369291906150cb565b5060c0820151816006019080519060200190614f539291906150cb565b5060e0820151816007019080519060200190614f709291906150cb565b506101008201518160080160006101000a81548160ff02191690836002811115614fc3577f4e487b7100000000000000000000000000000000000000000000000000000000600052602160045260246000fd5b02179055506101208201518160080160016101000a81548160ff021916908315150217905550610140820151816009015590505050505050565b600081600001549050919050565b6001816000016000828254019250508190555050565b60405180610160016040528060008152602001600073ffffffffffffffffffffffffffffffffffffffff168152602001606081526020016060815260200160608152602001606081526020016060815260200160608152602001600060028111156150b5577f4e487b7100000000000000000000000000000000000000000000000000000000600052602160045260246000fd5b8152602001600015158152602001600081525090565b8280546150d790615d3c565b90600052602060002090601f0160209004810192826150f95760008555615140565b82601f1061511257805160ff1916838001178555615140565b82800160010185558215615140579182015b8281111561513f578251825591602001919060010190615124565b5b50905061514d9190615151565b5090565b5b8082111561516a576000816000905550600101615152565b5090565b600061518161517c84615be4565b615bbf565b90508281526020810184848401111561519957600080fd5b6151a4848285615cfa565b509392505050565b6000813590506151bb81615f93565b92915050565b600082601f8301126151d257600080fd5b81356151e284826020860161516e565b91505092915050565b6000813590506151fa81615faa565b92915050565b60006020828403121561521257600080fd5b6000615220848285016151ac565b91505092915050565b60008060006060848603121561523e57600080fd5b600084013567ffffffffffffffff81111561525857600080fd5b615264868287016151c1565b935050602084013567ffffffffffffffff81111561528157600080fd5b61528d868287016151c1565b925050604084013567ffffffffffffffff8111156152aa57600080fd5b6152b6868287016151c1565b9150509250925092565b60008060008060008060c087890312156152d957600080fd5b600087013567ffffffffffffffff8111156152f357600080fd5b6152ff89828a016151c1565b965050602087013567ffffffffffffffff81111561531c57600080fd5b61532889828a016151c1565b955050604087013567ffffffffffffffff81111561534557600080fd5b61535189828a016151c1565b945050606087013567ffffffffffffffff81111561536e57600080fd5b61537a89828a016151c1565b935050608087013567ffffffffffffffff81111561539757600080fd5b6153a389828a016151c1565b92505060a087013567ffffffffffffffff8111156153c057600080fd5b6153cc89828a016151c1565b9150509295509295509295565b600080600080600080600060e0888a0312156153f457600080fd5b600088013567ffffffffffffffff81111561540e57600080fd5b61541a8a828b016151c1565b975050602088013567ffffffffffffffff81111561543757600080fd5b6154438a828b016151c1565b965050604088013567ffffffffffffffff81111561546057600080fd5b61546c8a828b016151c1565b955050606088013567ffffffffffffffff81111561548957600080fd5b6154958a828b016151c1565b945050608088013567ffffffffffffffff8111156154b257600080fd5b6154be8a828b016151c1565b93505060a088013567ffffffffffffffff8111156154db57600080fd5b6154e78a828b016151c1565b92505060c088013567ffffffffffffffff81111561550457600080fd5b6155108a828b016151c1565b91505092959891949750929550565b60006020828403121561553157600080fd5b600061553f848285016151eb565b91505092915050565b6000806040838503121561555b57600080fd5b6000615569858286016151eb565b925050602061557a858286016151eb565b9150509250929050565b600061559083836157a9565b905092915050565b6155a181615c8d565b82525050565b6155b081615c8d565b82525050565b60006155c182615c25565b6155cb8185615c48565b9350836020820285016155dd85615c15565b8060005b8581101561561957848403895281516155fa8582615584565b945061560583615c3b565b925060208a019950506001810190506155e1565b50829750879550505050505092915050565b61563481615c9f565b82525050565b61564381615c9f565b82525050565b61565281615ce8565b82525050565b61566181615ce8565b82525050565b600061567282615c30565b61567c8185615c59565b935061568c818560208601615d09565b61569581615ea4565b840191505092915050565b60006156ab82615c30565b6156b58185615c6a565b93506156c5818560208601615d09565b6156ce81615ea4565b840191505092915050565b60006156e6601583615c6a565b91506156f182615eb5565b602082019050919050565b6000615709601483615c6a565b915061571482615ede565b602082019050919050565b600061572c602283615c6a565b915061573782615f07565b604082019050919050565b600061574f601c83615c6a565b915061575a82615f56565b602082019050919050565b600060408301600083015184820360008601526157828282615667565b9150506020830151848203602086015261579c8282615667565b9150508091505092915050565b6000610160830160008301516157c260008601826158bb565b5060208301516157d56020860182615598565b50604083015184820360408601526157ed8282615667565b915050606083015184820360608601526158078282615667565b915050608083015184820360808601526158218282615667565b91505060a083015184820360a086015261583b8282615667565b91505060c083015184820360c08601526158558282615667565b91505060e083015184820360e086015261586f8282615667565b915050610100830151615886610100860182615649565b5061012083015161589b61012086018261562b565b506101408301516158b06101408601826158bb565b508091505092915050565b6158c481615cde565b82525050565b6158d381615cde565b82525050565b600060208201905081810360008301526158f381846155b6565b905092915050565b6000602082019050615910600083018461563a565b92915050565b6000602082019050818103600083015261592f816156d9565b9050919050565b6000602082019050818103600083015261594f816156fc565b9050919050565b6000602082019050818103600083015261596f8161571f565b9050919050565b6000602082019050818103600083015261598f81615742565b9050919050565b60006020820190506159ab60008301846158ca565b92915050565b6000610160820190506159c7600083018e6158ca565b6159d4602083018d6155a7565b81810360408301526159e6818c6156a0565b905081810360608301526159fa818b6156a0565b90508181036080830152615a0e818a6156a0565b905081810360a0830152615a2281896156a0565b905081810360c0830152615a3681886156a0565b905081810360e0830152615a4a81876156a0565b9050615a5a610100830186615658565b615a6861012083018561563a565b615a766101408301846158ca565b9c9b505050505050505050505050565b6000608082019050615a9b60008301876158ca565b8181036020830152615aad81866156a0565b90508181036040830152615ac181856156a0565b90508181036060830152615ad581846156a0565b905095945050505050565b600061010082019050615af6600083018b6158ca565b8181036020830152615b08818a6156a0565b90508181036040830152615b1c81896156a0565b90508181036060830152615b3081886156a0565b90508181036080830152615b4481876156a0565b905081810360a0830152615b5881866156a0565b9050615b6760c083018561563a565b81810360e0830152615b798184615765565b90509998505050505050505050565b6000606082019050615b9d60008301866158ca565b615baa60208301856158ca565b615bb760408301846158ca565b949350505050565b6000615bc9615bda565b9050615bd58282615d6e565b919050565b6000604051905090565b600067ffffffffffffffff821115615bff57615bfe615e75565b5b615c0882615ea4565b9050602081019050919050565b6000819050602082019050919050565b600081519050919050565b600081519050919050565b6000602082019050919050565b600082825260208201905092915050565b600082825260208201905092915050565b600082825260208201905092915050565b6000615c8682615cbe565b9050919050565b6000615c9882615cbe565b9050919050565b60008115159050919050565b6000819050615cb982615f7f565b919050565b600073ffffffffffffffffffffffffffffffffffffffff82169050919050565b6000819050919050565b6000615cf382615cab565b9050919050565b82818337600083830152505050565b60005b83811015615d27578082015181840152602081019050615d0c565b83811115615d36576000848401525b50505050565b60006002820490506001821680615d5457607f821691505b60208210811415615d6857615d67615e46565b5b50919050565b615d7782615ea4565b810181811067ffffffffffffffff82111715615d9657615d95615e75565b5b80604052505050565b6000615daa82615cde565b91507fffffffffffffffffffffffffffffffffffffffffffffffffffffffffffffffff821415615ddd57615ddc615de8565b5b600182019050919050565b7f4e487b7100000000000000000000000000000000000000000000000000000000600052601160045260246000fd5b7f4e487b7100000000000000000000000000000000000000000000000000000000600052602160045260246000fd5b7f4e487b7100000000000000000000000000000000000000000000000000000000600052602260045260246000fd5b7f4e487b7100000000000000000000000000000000000000000000000000000000600052604160045260246000fd5b6000601f19601f8301169050919050565b7f72696465206973206e6f7420636f6d706c657465640000000000000000000000600082015250565b7f4661696c656420746f2073656e64204574686572000000000000000000000000600082015250565b7f54686973204164647265737320697320616c726561647920526567697374657260008201527f6564000000000000000000000000000000000000000000000000000000000000602082015250565b7f76616c75652073656e74206973206c657373207468616e206661697200000000600082015250565b60038110615f9057615f8f615e17565b5b50565b615f9c81615c7b565b8114615fa757600080fd5b50565b615fb381615cde565b8114615fbe57600080fd5b5056fea2646970667358221220469cd7a62cd84cedf40996062c68849437655dd5c4165c8a9b606fe0c39c52df64736f6c63430008040033",
  "linkReferences": {},
  "deployedLinkReferences": {}
}