{
  "_format": "hh-sol-artifact-1",
  "contractName": "RideSharing",
  "sourceName": "contracts/Ridesharing.sol",
  "abi": [
    {
      "inputs": [
        {
          "internalType": "string",
          "name": "msg",
          "type": "string"
        }
      ],
      "name": "AlreadyRegistered",
      "type": "error"
    },
    {
      "anonymous": false,
      "inputs": [
        {
          "indexed": false,
          "internalType": "uint256",
          "name": "Type",
          "type": "uint256"
        },
        {
          "indexed": false,
          "internalType": "uint256",
          "name": "id",
          "type": "uint256"
        }
      ],
      "name": "UserType",
      "type": "event"
    },
    {
      "anonymous": false,
      "inputs": [
        {
          "indexed": false,
          "internalType": "uint256",
          "name": "driverId",
          "type": "uint256"
        },
        {
          "indexed": false,
          "internalType": "string",
          "name": "name",
          "type": "string"
        },
        {
          "indexed": false,
          "internalType": "string",
          "name": "nic",
          "type": "string"
        },
        {
          "indexed": false,
          "internalType": "string",
          "name": "regNum",
          "type": "string"
        }
      ],
      "name": "registeredDriver",
      "type": "event"
    },
    {
      "anonymous": false,
      "inputs": [
        {
          "indexed": false,
          "internalType": "uint256",
          "name": "RiderId",
          "type": "uint256"
        },
        {
          "indexed": false,
          "internalType": "string",
          "name": "name",
          "type": "string"
        },
        {
          "indexed": false,
          "internalType": "string",
          "name": "email",
          "type": "string"
        },
        {
          "indexed": false,
          "internalType": "string",
          "name": "cellno",
          "type": "string"
        }
      ],
      "name": "registeredRider",
      "type": "event"
    },
    {
      "inputs": [
        {
          "internalType": "uint256",
          "name": "",
          "type": "uint256"
        }
      ],
      "name": "RideIDTodriverId",
      "outputs": [
        {
          "internalType": "uint256",
          "name": "",
          "type": "uint256"
        }
      ],
      "stateMutability": "view",
      "type": "function"
    },
    {
      "inputs": [
        {
          "internalType": "address",
          "name": "",
          "type": "address"
        }
      ],
      "name": "addressToDriver",
      "outputs": [
        {
          "internalType": "uint256",
          "name": "Id",
          "type": "uint256"
        },
        {
          "internalType": "string",
          "name": "name",
          "type": "string"
        },
        {
          "internalType": "string",
          "name": "nic",
          "type": "string"
        },
        {
          "internalType": "string",
          "name": "email",
          "type": "string"
        },
        {
          "internalType": "string",
          "name": "cellno",
          "type": "string"
        },
        {
          "internalType": "string",
          "name": "LiscenceNo",
          "type": "string"
        },
        {
          "internalType": "bool",
          "name": "isRegistered",
          "type": "bool"
        },
        {
          "components": [
            {
              "internalType": "string",
              "name": "regNum",
              "type": "string"
            },
            {
              "internalType": "string",
              "name": "modelName",
              "type": "string"
            }
          ],
          "internalType": "struct RideSharing.Car",
          "name": "car",
          "type": "tuple"
        }
      ],
      "stateMutability": "view",
      "type": "function"
    },
    {
      "inputs": [
        {
          "internalType": "address",
          "name": "",
          "type": "address"
        }
      ],
      "name": "addressToRider",
      "outputs": [
        {
          "internalType": "uint256",
          "name": "Id",
          "type": "uint256"
        },
        {
          "internalType": "string",
          "name": "name",
          "type": "string"
        },
        {
          "internalType": "string",
          "name": "email",
          "type": "string"
        },
        {
          "internalType": "string",
          "name": "cellno",
          "type": "string"
        }
      ],
      "stateMutability": "view",
      "type": "function"
    },
    {
      "inputs": [
        {
          "internalType": "string",
          "name": "sourceLong",
          "type": "string"
        },
        {
          "internalType": "string",
          "name": "sourceLat",
          "type": "string"
        },
        {
          "internalType": "string",
          "name": "destLong",
          "type": "string"
        },
        {
          "internalType": "string",
          "name": "destLat",
          "type": "string"
        },
        {
          "internalType": "string",
          "name": "startTime",
          "type": "string"
        },
        {
          "internalType": "uint256",
          "name": "seats",
          "type": "uint256"
        }
      ],
      "name": "createRide",
      "outputs": [],
      "stateMutability": "nonpayable",
      "type": "function"
    },
    {
      "inputs": [
        {
          "internalType": "address",
          "name": "",
          "type": "address"
        }
      ],
      "name": "driverIsRegistered",
      "outputs": [
        {
          "internalType": "bool",
          "name": "",
          "type": "bool"
        }
      ],
      "stateMutability": "view",
      "type": "function"
    },
    {
      "inputs": [],
      "name": "getAllRides",
      "outputs": [
        {
          "components": [
            {
              "internalType": "uint256",
              "name": "rideId",
              "type": "uint256"
            },
            {
              "internalType": "address",
              "name": "creator",
              "type": "address"
            },
            {
              "internalType": "string",
              "name": "StartTime",
              "type": "string"
            },
            {
              "internalType": "uint256",
              "name": "seats",
              "type": "uint256"
            },
            {
              "internalType": "string",
              "name": "sourceLong",
              "type": "string"
            },
            {
              "internalType": "string",
              "name": "sourceLat",
              "type": "string"
            },
            {
              "internalType": "string",
              "name": "destLong",
              "type": "string"
            },
            {
              "internalType": "string",
              "name": "destLat",
              "type": "string"
            }
          ],
          "internalType": "struct RideSharing.Ride[]",
          "name": "",
          "type": "tuple[]"
        }
      ],
      "stateMutability": "view",
      "type": "function"
    },
    {
      "inputs": [
        {
          "internalType": "address",
          "name": "_driver",
          "type": "address"
        }
      ],
      "name": "getDriverByAddress",
      "outputs": [
        {
          "internalType": "uint256",
          "name": "",
          "type": "uint256"
        }
      ],
      "stateMutability": "view",
      "type": "function"
    },
    {
      "inputs": [
        {
          "internalType": "uint256",
          "name": "rideId",
          "type": "uint256"
        }
      ],
      "name": "getRidersByRideId",
      "outputs": [
        {
          "components": [
            {
              "internalType": "uint256",
              "name": "Id",
              "type": "uint256"
            },
            {
              "internalType": "string",
              "name": "name",
              "type": "string"
            },
            {
              "internalType": "string",
              "name": "email",
              "type": "string"
            },
            {
              "internalType": "string",
              "name": "cellno",
              "type": "string"
            }
          ],
          "internalType": "struct RideSharing.Rider[]",
          "name": "",
          "type": "tuple[]"
        }
      ],
      "stateMutability": "view",
      "type": "function"
    },
    {
      "inputs": [
        {
          "internalType": "address",
          "name": "user",
          "type": "address"
        }
      ],
      "name": "getUserType",
      "outputs": [],
      "stateMutability": "nonpayable",
      "type": "function"
    },
    {
      "inputs": [
        {
          "internalType": "uint256",
          "name": "",
          "type": "uint256"
        }
      ],
      "name": "idToDriver",
      "outputs": [
        {
          "internalType": "uint256",
          "name": "Id",
          "type": "uint256"
        },
        {
          "internalType": "string",
          "name": "name",
          "type": "string"
        },
        {
          "internalType": "string",
          "name": "nic",
          "type": "string"
        },
        {
          "internalType": "string",
          "name": "email",
          "type": "string"
        },
        {
          "internalType": "string",
          "name": "cellno",
          "type": "string"
        },
        {
          "internalType": "string",
          "name": "LiscenceNo",
          "type": "string"
        },
        {
          "internalType": "bool",
          "name": "isRegistered",
          "type": "bool"
        },
        {
          "components": [
            {
              "internalType": "string",
              "name": "regNum",
              "type": "string"
            },
            {
              "internalType": "string",
              "name": "modelName",
              "type": "string"
            }
          ],
          "internalType": "struct RideSharing.Car",
          "name": "car",
          "type": "tuple"
        }
      ],
      "stateMutability": "view",
      "type": "function"
    },
    {
      "inputs": [
        {
          "internalType": "uint256",
          "name": "",
          "type": "uint256"
        }
      ],
      "name": "idToRide",
      "outputs": [
        {
          "internalType": "uint256",
          "name": "rideId",
          "type": "uint256"
        },
        {
          "internalType": "address",
          "name": "creator",
          "type": "address"
        },
        {
          "internalType": "string",
          "name": "StartTime",
          "type": "string"
        },
        {
          "internalType": "uint256",
          "name": "seats",
          "type": "uint256"
        },
        {
          "internalType": "string",
          "name": "sourceLong",
          "type": "string"
        },
        {
          "internalType": "string",
          "name": "sourceLat",
          "type": "string"
        },
        {
          "internalType": "string",
          "name": "destLong",
          "type": "string"
        },
        {
          "internalType": "string",
          "name": "destLat",
          "type": "string"
        }
      ],
      "stateMutability": "view",
      "type": "function"
    },
    {
      "inputs": [
        {
          "internalType": "uint256",
          "name": "",
          "type": "uint256"
        }
      ],
      "name": "idToRider",
      "outputs": [
        {
          "internalType": "uint256",
          "name": "Id",
          "type": "uint256"
        },
        {
          "internalType": "string",
          "name": "name",
          "type": "string"
        },
        {
          "internalType": "string",
          "name": "email",
          "type": "string"
        },
        {
          "internalType": "string",
          "name": "cellno",
          "type": "string"
        }
      ],
      "stateMutability": "view",
      "type": "function"
    },
    {
      "inputs": [
        {
          "internalType": "uint256",
          "name": "rideId",
          "type": "uint256"
        },
        {
          "internalType": "uint256",
          "name": "riderId",
          "type": "uint256"
        }
      ],
      "name": "joinRide",
      "outputs": [],
      "stateMutability": "nonpayable",
      "type": "function"
    },
    {
      "inputs": [
        {
          "internalType": "string",
          "name": "_name",
          "type": "string"
        },
        {
          "internalType": "string",
          "name": "_nic",
          "type": "string"
        },
        {
          "internalType": "string",
          "name": "_email",
          "type": "string"
        },
        {
          "internalType": "string",
          "name": "_cellno",
          "type": "string"
        },
        {
          "internalType": "string",
          "name": "_regNum",
          "type": "string"
        },
        {
          "internalType": "string",
          "name": "_modelName",
          "type": "string"
        },
        {
          "internalType": "string",
          "name": "_LiscenceNo",
          "type": "string"
        }
      ],
      "name": "registerForDriver",
      "outputs": [],
      "stateMutability": "nonpayable",
      "type": "function"
    },
    {
      "inputs": [
        {
          "internalType": "string",
          "name": "_name",
          "type": "string"
        },
        {
          "internalType": "string",
          "name": "_email",
          "type": "string"
        },
        {
          "internalType": "string",
          "name": "_cellno",
          "type": "string"
        }
      ],
      "name": "registerForRider",
      "outputs": [],
      "stateMutability": "nonpayable",
      "type": "function"
    },
    {
      "inputs": [
        {
          "internalType": "uint256",
          "name": "",
          "type": "uint256"
        }
      ],
      "name": "riderIdtorideId",
      "outputs": [
        {
          "internalType": "uint256",
          "name": "",
          "type": "uint256"
        }
      ],
      "stateMutability": "view",
      "type": "function"
    },
    {
      "inputs": [
        {
          "internalType": "address",
          "name": "",
          "type": "address"
        }
      ],
      "name": "riderIsRegistered",
      "outputs": [
        {
          "internalType": "bool",
          "name": "",
          "type": "bool"
        }
      ],
      "stateMutability": "view",
      "type": "function"
    }
  ],
  "bytecode": "0x608060405234801561001057600080fd5b50613d0a806100206000396000f3fe608060405234801561001057600080fd5b506004361061010b5760003560e01c8063ba1ac377116100a2578063e147d78711610071578063e147d787146102ff578063e563eada1461032f578063e656b5781461035f578063ec7a522014610392578063f2c5c2f1146103c95761010b565b8063ba1ac37714610260578063bbe3803a1461027c578063c092e399146102ac578063c29cc99a146102e35761010b565b8063787660c3116100de578063787660c3146101c65780638b3f863f146101e45780639e473a4714610200578063a9b6bbde146102305761010b565b806305c41e0e146101105780631840110a14610143578063472b06c01461017357806366ec451c1461018f575b600080fd5b61012a60048036038101906101259190613335565b6103e5565b60405161013a9493929190613863565b60405180910390f35b61015d60048036038101906101589190613335565b6105ad565b60405161016a91906137a7565b60405180910390f35b61018d60048036038101906101889190613057565b6105c5565b005b6101a960048036038101906101a49190613335565b610857565b6040516101bd9897969594939291906137c2565b60405180910390f35b6101ce610b67565b6040516101db9190613728565b60405180910390f35b6101fe60048036038101906101f9919061302e565b610fd9565b005b61021a6004803603810190610215919061302e565b611709565b604051610227919061376c565b60405180910390f35b61024a6004803603810190610245919061302e565b611729565b60405161025791906137a7565b60405180910390f35b61027a600480360381019061027591906130ee565b61177a565b005b61029660048036038101906102919190613335565b611b84565b6040516102a391906137a7565b60405180910390f35b6102c660048036038101906102c1919061302e565b611b9c565b6040516102da9897969594939291906138bd565b60405180910390f35b6102fd60048036038101906102f89190613234565b611fc7565b005b6103196004803603810190610314919061302e565b6121c3565b604051610326919061376c565b60405180910390f35b61034960048036038101906103449190613335565b6121e3565b604051610356919061374a565b60405180910390f35b6103796004803603810190610374919061302e565b612526565b6040516103899493929190613863565b60405180910390f35b6103ac60048036038101906103a79190613335565b6126ee565b6040516103c09897969594939291906138bd565b60405180910390f35b6103e360048036038101906103de919061335e565b612b19565b005b600660205280600052604060002060009150905080600001549080600101805461040e90613b0d565b80601f016020809104026020016040519081016040528092919081815260200182805461043a90613b0d565b80156104875780601f1061045c57610100808354040283529160200191610487565b820191906000526020600020905b81548152906001019060200180831161046a57829003601f168201915b50505050509080600201805461049c90613b0d565b80601f01602080910402602001604051908101604052809291908181526020018280546104c890613b0d565b80156105155780601f106104ea57610100808354040283529160200191610515565b820191906000526020600020905b8154815290600101906020018083116104f857829003601f168201915b50505050509080600301805461052a90613b0d565b80601f016020809104026020016040519081016040528092919081815260200182805461055690613b0d565b80156105a35780601f10610578576101008083540402835291602001916105a3565b820191906000526020600020905b81548152906001019060200180831161058657829003601f168201915b5050505050905084565b600b6020528060005260406000206000915090505481565b60011515600460003373ffffffffffffffffffffffffffffffffffffffff1673ffffffffffffffffffffffffffffffffffffffff16815260200190815260200160002060009054906101000a900460ff1615151415610659576040517f0a7a3d7c00000000000000000000000000000000000000000000000000000000815260040161065090613787565b60405180910390fd5b6106636002612d90565b600061066f6002612da6565b9050600060405180608001604052808381526020018681526020018581526020018481525090506001600460003373ffffffffffffffffffffffffffffffffffffffff1673ffffffffffffffffffffffffffffffffffffffff16815260200190815260200160002060006101000a81548160ff0219169083151502179055508060066000848152602001908152602001600020600082015181600001556020820151816001019080519060200190610728929190612e76565b506040820151816002019080519060200190610745929190612e76565b506060820151816003019080519060200190610762929190612e76565b5090505080600860003373ffffffffffffffffffffffffffffffffffffffff1673ffffffffffffffffffffffffffffffffffffffff1681526020019081526020016000206000820151816000015560208201518160010190805190602001906107cc929190612e76565b5060408201518160020190805190602001906107e9929190612e76565b506060820151816003019080519060200190610806929190612e76565b5090505061081333612db4565b7f22e9c31ba948c6fb17673cf7d4f73d44f2090424bd885b5c4adb3b24b00ba0fe828686866040516108489493929190613863565b60405180910390a15050505050565b600a6020528060005260406000206000915090508060000154908060010160009054906101000a900473ffffffffffffffffffffffffffffffffffffffff16908060020180546108a690613b0d565b80601f01602080910402602001604051908101604052809291908181526020018280546108d290613b0d565b801561091f5780601f106108f45761010080835404028352916020019161091f565b820191906000526020600020905b81548152906001019060200180831161090257829003601f168201915b50505050509080600301549080600401805461093a90613b0d565b80601f016020809104026020016040519081016040528092919081815260200182805461096690613b0d565b80156109b35780601f10610988576101008083540402835291602001916109b3565b820191906000526020600020905b81548152906001019060200180831161099657829003601f168201915b5050505050908060050180546109c890613b0d565b80601f01602080910402602001604051908101604052809291908181526020018280546109f490613b0d565b8015610a415780601f10610a1657610100808354040283529160200191610a41565b820191906000526020600020905b815481529060010190602001808311610a2457829003601f168201915b505050505090806006018054610a5690613b0d565b80601f0160208091040260200160405190810160405280929190818152602001828054610a8290613b0d565b8015610acf5780601f10610aa457610100808354040283529160200191610acf565b820191906000526020600020905b815481529060010190602001808311610ab257829003601f168201915b505050505090806007018054610ae490613b0d565b80601f0160208091040260200160405190810160405280929190818152602001828054610b1090613b0d565b8015610b5d5780601f10610b3257610100808354040283529160200191610b5d565b820191906000526020600020905b815481529060010190602001808311610b4057829003601f168201915b5050505050905088565b6060600080610b766001612da6565b67ffffffffffffffff811115610bb5577f4e487b7100000000000000000000000000000000000000000000000000000000600052604160045260246000fd5b604051908082528060200260200182016040528015610bee57816020015b610bdb612efc565b815260200190600190039081610bd35790505b5090506000600190505b610c026001612da6565b8111610fd057600a600082815260200190815260200160002060405180610100016040529081600082015481526020016001820160009054906101000a900473ffffffffffffffffffffffffffffffffffffffff1673ffffffffffffffffffffffffffffffffffffffff1673ffffffffffffffffffffffffffffffffffffffff168152602001600282018054610c9790613b0d565b80601f0160208091040260200160405190810160405280929190818152602001828054610cc390613b0d565b8015610d105780601f10610ce557610100808354040283529160200191610d10565b820191906000526020600020905b815481529060010190602001808311610cf357829003601f168201915b5050505050815260200160038201548152602001600482018054610d3390613b0d565b80601f0160208091040260200160405190810160405280929190818152602001828054610d5f90613b0d565b8015610dac5780601f10610d8157610100808354040283529160200191610dac565b820191906000526020600020905b815481529060010190602001808311610d8f57829003601f168201915b50505050508152602001600582018054610dc590613b0d565b80601f0160208091040260200160405190810160405280929190818152602001828054610df190613b0d565b8015610e3e5780601f10610e1357610100808354040283529160200191610e3e565b820191906000526020600020905b815481529060010190602001808311610e2157829003601f168201915b50505050508152602001600682018054610e5790613b0d565b80601f0160208091040260200160405190810160405280929190818152602001828054610e8390613b0d565b8015610ed05780601f10610ea557610100808354040283529160200191610ed0565b820191906000526020600020905b815481529060010190602001808311610eb357829003601f168201915b50505050508152602001600782018054610ee990613b0d565b80601f0160208091040260200160405190810160405280929190818152602001828054610f1590613b0d565b8015610f625780601f10610f3757610100808354040283529160200191610f62565b820191906000526020600020905b815481529060010190602001808311610f4557829003601f168201915b505050505081525050828481518110610fa4577f4e487b7100000000000000000000000000000000000000000000000000000000600052603260045260246000fd5b60200260200101819052508280610fba90613b70565b9350508080610fc890613b70565b915050610bf8565b50809250505090565b6000806000600860008573ffffffffffffffffffffffffffffffffffffffff1673ffffffffffffffffffffffffffffffffffffffff1681526020019081526020016000206040518060800160405290816000820154815260200160018201805461104290613b0d565b80601f016020809104026020016040519081016040528092919081815260200182805461106e90613b0d565b80156110bb5780601f10611090576101008083540402835291602001916110bb565b820191906000526020600020905b81548152906001019060200180831161109e57829003601f168201915b505050505081526020016002820180546110d490613b0d565b80601f016020809104026020016040519081016040528092919081815260200182805461110090613b0d565b801561114d5780601f106111225761010080835404028352916020019161114d565b820191906000526020600020905b81548152906001019060200180831161113057829003601f168201915b5050505050815260200160038201805461116690613b0d565b80601f016020809104026020016040519081016040528092919081815260200182805461119290613b0d565b80156111df5780601f106111b4576101008083540402835291602001916111df565b820191906000526020600020905b8154815290600101906020018083116111c257829003601f168201915b50505050508152505090506000600760008673ffffffffffffffffffffffffffffffffffffffff1673ffffffffffffffffffffffffffffffffffffffff168152602001908152602001600020604051806101000160405290816000820154815260200160018201805461125190613b0d565b80601f016020809104026020016040519081016040528092919081815260200182805461127d90613b0d565b80156112ca5780601f1061129f576101008083540402835291602001916112ca565b820191906000526020600020905b8154815290600101906020018083116112ad57829003601f168201915b505050505081526020016002820180546112e390613b0d565b80601f016020809104026020016040519081016040528092919081815260200182805461130f90613b0d565b801561135c5780601f106113315761010080835404028352916020019161135c565b820191906000526020600020905b81548152906001019060200180831161133f57829003601f168201915b5050505050815260200160038201805461137590613b0d565b80601f01602080910402602001604051908101604052809291908181526020018280546113a190613b0d565b80156113ee5780601f106113c3576101008083540402835291602001916113ee565b820191906000526020600020905b8154815290600101906020018083116113d157829003601f168201915b5050505050815260200160048201805461140790613b0d565b80601f016020809104026020016040519081016040528092919081815260200182805461143390613b0d565b80156114805780601f1061145557610100808354040283529160200191611480565b820191906000526020600020905b81548152906001019060200180831161146357829003601f168201915b5050505050815260200160058201805461149990613b0d565b80601f01602080910402602001604051908101604052809291908181526020018280546114c590613b0d565b80156115125780601f106114e757610100808354040283529160200191611512565b820191906000526020600020905b8154815290600101906020018083116114f557829003601f168201915b505050505081526020016006820160009054906101000a900460ff161515151581526020016007820160405180604001604052908160008201805461155690613b0d565b80601f016020809104026020016040519081016040528092919081815260200182805461158290613b0d565b80156115cf5780601f106115a4576101008083540402835291602001916115cf565b820191906000526020600020905b8154815290600101906020018083116115b257829003601f168201915b505050505081526020016001820180546115e890613b0d565b80601f016020809104026020016040519081016040528092919081815260200182805461161490613b0d565b80156116615780601f1061163657610100808354040283529160200191611661565b820191906000526020600020905b81548152906001019060200180831161164457829003601f168201915b5050505050815250508152505090506000826000015114801561168957506000816000015114155b1561169e5760019350806000015192506116c9565b60008260000151141580156116b7575060008160000151145b156116c85760029350806000015192505b5b7f79fba50d78a58c063be0f9c329705f50e6e84d9d503c28cfe3312505e4c9203f84846040516116fa929190613965565b60405180910390a15050505050565b60036020528060005260406000206000915054906101000a900460ff1681565b600080600760008473ffffffffffffffffffffffffffffffffffffffff1673ffffffffffffffffffffffffffffffffffffffff16815260200190815260200160002090508060000154915050919050565b60011515600360003373ffffffffffffffffffffffffffffffffffffffff1673ffffffffffffffffffffffffffffffffffffffff16815260200190815260200160002060009054906101000a900460ff161515141561180e576040517f0a7a3d7c00000000000000000000000000000000000000000000000000000000815260040161180590613787565b60405180910390fd5b600060405180604001604052808581526020018481525090506118316000612d90565b600061183d6000612da6565b905060006040518061010001604052808381526020018b81526020018a81526020018981526020018881526020018581526020016001151581526020018481525090506001600360003373ffffffffffffffffffffffffffffffffffffffff1673ffffffffffffffffffffffffffffffffffffffff16815260200190815260200160002060006101000a81548160ff0219169083151502179055508060056000848152602001908152602001600020600082015181600001556020820151816001019080519060200190611912929190612e76565b50604082015181600201908051906020019061192f929190612e76565b50606082015181600301908051906020019061194c929190612e76565b506080820151816004019080519060200190611969929190612e76565b5060a0820151816005019080519060200190611986929190612e76565b5060c08201518160060160006101000a81548160ff02191690831515021790555060e08201518160070160008201518160000190805190602001906119cc929190612e76565b5060208201518160010190805190602001906119e9929190612e76565b50505090505080600760003373ffffffffffffffffffffffffffffffffffffffff1673ffffffffffffffffffffffffffffffffffffffff168152602001908152602001600020600082015181600001556020820151816001019080519060200190611a55929190612e76565b506040820151816002019080519060200190611a72929190612e76565b506060820151816003019080519060200190611a8f929190612e76565b506080820151816004019080519060200190611aac929190612e76565b5060a0820151816005019080519060200190611ac9929190612e76565b5060c08201518160060160006101000a81548160ff02191690831515021790555060e0820151816007016000820151816000019080519060200190611b0f929190612e76565b506020820151816001019080519060200190611b2c929190612e76565b505050905050611b3b33612db4565b7f3de04171a543da1b7f9e1fabae52c6c8f0ab266b234a95ede56668caebce1bec828b8b89604051611b709493929190613863565b60405180910390a150505050505050505050565b60096020528060005260406000206000915090505481565b6007602052806000526040600020600091509050806000015490806001018054611bc590613b0d565b80601f0160208091040260200160405190810160405280929190818152602001828054611bf190613b0d565b8015611c3e5780601f10611c1357610100808354040283529160200191611c3e565b820191906000526020600020905b815481529060010190602001808311611c2157829003601f168201915b505050505090806002018054611c5390613b0d565b80601f0160208091040260200160405190810160405280929190818152602001828054611c7f90613b0d565b8015611ccc5780601f10611ca157610100808354040283529160200191611ccc565b820191906000526020600020905b815481529060010190602001808311611caf57829003601f168201915b505050505090806003018054611ce190613b0d565b80601f0160208091040260200160405190810160405280929190818152602001828054611d0d90613b0d565b8015611d5a5780601f10611d2f57610100808354040283529160200191611d5a565b820191906000526020600020905b815481529060010190602001808311611d3d57829003601f168201915b505050505090806004018054611d6f90613b0d565b80601f0160208091040260200160405190810160405280929190818152602001828054611d9b90613b0d565b8015611de85780601f10611dbd57610100808354040283529160200191611de8565b820191906000526020600020905b815481529060010190602001808311611dcb57829003601f168201915b505050505090806005018054611dfd90613b0d565b80601f0160208091040260200160405190810160405280929190818152602001828054611e2990613b0d565b8015611e765780601f10611e4b57610100808354040283529160200191611e76565b820191906000526020600020905b815481529060010190602001808311611e5957829003601f168201915b5050505050908060060160009054906101000a900460ff169080600701604051806040016040529081600082018054611eae90613b0d565b80601f0160208091040260200160405190810160405280929190818152602001828054611eda90613b0d565b8015611f275780601f10611efc57610100808354040283529160200191611f27565b820191906000526020600020905b815481529060010190602001808311611f0a57829003601f168201915b50505050508152602001600182018054611f4090613b0d565b80601f0160208091040260200160405190810160405280929190818152602001828054611f6c90613b0d565b8015611fb95780601f10611f8e57610100808354040283529160200191611fb9565b820191906000526020600020905b815481529060010190602001808311611f9c57829003601f168201915b505050505081525050905088565b60011515600460003373ffffffffffffffffffffffffffffffffffffffff1673ffffffffffffffffffffffffffffffffffffffff16815260200190815260200160002060009054906101000a900460ff1615151461202457600080fd5b600061202f33611729565b905061203b6001612d90565b60006120476001612da6565b905060006040518061010001604052808381526020013373ffffffffffffffffffffffffffffffffffffffff1681526020018681526020018581526020018a815260200189815260200188815260200187815250905080600a60008481526020019081526020016000206000820151816000015560208201518160010160006101000a81548173ffffffffffffffffffffffffffffffffffffffff021916908373ffffffffffffffffffffffffffffffffffffffff160217905550604082015181600201908051906020019061211e929190612e76565b50606082015181600301556080820151816004019080519060200190612145929190612e76565b5060a0820151816005019080519060200190612162929190612e76565b5060c082015181600601908051906020019061217f929190612e76565b5060e082015181600701908051906020019061219c929190612e76565b50905050826009600084815260200190815260200160002081905550505050505050505050565b60046020528060005260406000206000915054906101000a900460ff1681565b60606000806000600190505b6121f96001612da6565b811161223c5784600b600083815260200190815260200160002054141561222957828061222590613b70565b9350505b808061223490613b70565b9150506121ef565b5060008267ffffffffffffffff81111561227f577f4e487b7100000000000000000000000000000000000000000000000000000000600052604160045260246000fd5b6040519080825280602002602001820160405280156122b857816020015b6122a5612f57565b81526020019060019003908161229d5790505b5090506000600190505b83811161251a5785600b600083815260200190815260200160002054141561250757600c60008281526020019081526020016000206040518060800160405290816000820154815260200160018201805461231c90613b0d565b80601f016020809104026020016040519081016040528092919081815260200182805461234890613b0d565b80156123955780601f1061236a57610100808354040283529160200191612395565b820191906000526020600020905b81548152906001019060200180831161237857829003601f168201915b505050505081526020016002820180546123ae90613b0d565b80601f01602080910402602001604051908101604052809291908181526020018280546123da90613b0d565b80156124275780601f106123fc57610100808354040283529160200191612427565b820191906000526020600020905b81548152906001019060200180831161240a57829003601f168201915b5050505050815260200160038201805461244090613b0d565b80601f016020809104026020016040519081016040528092919081815260200182805461246c90613b0d565b80156124b95780601f1061248e576101008083540402835291602001916124b9565b820191906000526020600020905b81548152906001019060200180831161249c57829003601f168201915b5050505050815250508284815181106124fb577f4e487b7100000000000000000000000000000000000000000000000000000000600052603260045260246000fd5b60200260200101819052505b808061251290613b70565b9150506122c2565b50809350505050919050565b600860205280600052604060002060009150905080600001549080600101805461254f90613b0d565b80601f016020809104026020016040519081016040528092919081815260200182805461257b90613b0d565b80156125c85780601f1061259d576101008083540402835291602001916125c8565b820191906000526020600020905b8154815290600101906020018083116125ab57829003601f168201915b5050505050908060020180546125dd90613b0d565b80601f016020809104026020016040519081016040528092919081815260200182805461260990613b0d565b80156126565780601f1061262b57610100808354040283529160200191612656565b820191906000526020600020905b81548152906001019060200180831161263957829003601f168201915b50505050509080600301805461266b90613b0d565b80601f016020809104026020016040519081016040528092919081815260200182805461269790613b0d565b80156126e45780601f106126b9576101008083540402835291602001916126e4565b820191906000526020600020905b8154815290600101906020018083116126c757829003601f168201915b5050505050905084565b600560205280600052604060002060009150905080600001549080600101805461271790613b0d565b80601f016020809104026020016040519081016040528092919081815260200182805461274390613b0d565b80156127905780601f1061276557610100808354040283529160200191612790565b820191906000526020600020905b81548152906001019060200180831161277357829003601f168201915b5050505050908060020180546127a590613b0d565b80601f01602080910402602001604051908101604052809291908181526020018280546127d190613b0d565b801561281e5780601f106127f35761010080835404028352916020019161281e565b820191906000526020600020905b81548152906001019060200180831161280157829003601f168201915b50505050509080600301805461283390613b0d565b80601f016020809104026020016040519081016040528092919081815260200182805461285f90613b0d565b80156128ac5780601f10612881576101008083540402835291602001916128ac565b820191906000526020600020905b81548152906001019060200180831161288f57829003601f168201915b5050505050908060040180546128c190613b0d565b80601f01602080910402602001604051908101604052809291908181526020018280546128ed90613b0d565b801561293a5780601f1061290f5761010080835404028352916020019161293a565b820191906000526020600020905b81548152906001019060200180831161291d57829003601f168201915b50505050509080600501805461294f90613b0d565b80601f016020809104026020016040519081016040528092919081815260200182805461297b90613b0d565b80156129c85780601f1061299d576101008083540402835291602001916129c8565b820191906000526020600020905b8154815290600101906020018083116129ab57829003601f168201915b5050505050908060060160009054906101000a900460ff169080600701604051806040016040529081600082018054612a0090613b0d565b80601f0160208091040260200160405190810160405280929190818152602001828054612a2c90613b0d565b8015612a795780601f10612a4e57610100808354040283529160200191612a79565b820191906000526020600020905b815481529060010190602001808311612a5c57829003601f168201915b50505050508152602001600182018054612a9290613b0d565b80601f0160208091040260200160405190810160405280929190818152602001828054612abe90613b0d565b8015612b0b5780601f10612ae057610100808354040283529160200191612b0b565b820191906000526020600020905b815481529060010190602001808311612aee57829003601f168201915b505050505081525050905088565b81600b60008381526020019081526020016000208190555060006006600083815260200190815260200160002060405180608001604052908160008201548152602001600182018054612b6b90613b0d565b80601f0160208091040260200160405190810160405280929190818152602001828054612b9790613b0d565b8015612be45780601f10612bb957610100808354040283529160200191612be4565b820191906000526020600020905b815481529060010190602001808311612bc757829003601f168201915b50505050508152602001600282018054612bfd90613b0d565b80601f0160208091040260200160405190810160405280929190818152602001828054612c2990613b0d565b8015612c765780601f10612c4b57610100808354040283529160200191612c76565b820191906000526020600020905b815481529060010190602001808311612c5957829003601f168201915b50505050508152602001600382018054612c8f90613b0d565b80601f0160208091040260200160405190810160405280929190818152602001828054612cbb90613b0d565b8015612d085780601f10612cdd57610100808354040283529160200191612d08565b820191906000526020600020905b815481529060010190602001808311612ceb57829003601f168201915b505050505081525050905080600c6000858152602001908152602001600020600082015181600001556020820151816001019080519060200190612d4d929190612e76565b506040820151816002019080519060200190612d6a929190612e76565b506060820151816003019080519060200190612d87929190612e76565b50905050505050565b6001816000016000828254019250508190555050565b600081600001549050919050565b612e4a81604051602401612dc8919061370d565b6040516020818303038152906040527f2c2ecbc2000000000000000000000000000000000000000000000000000000007bffffffffffffffffffffffffffffffffffffffffffffffffffffffff19166020820180517bffffffffffffffffffffffffffffffffffffffffffffffffffffffff8381831617835250505050612e4d565b50565b60008151905060006a636f6e736f6c652e6c6f679050602083016000808483855afa5050505050565b828054612e8290613b0d565b90600052602060002090601f016020900481019282612ea45760008555612eeb565b82601f10612ebd57805160ff1916838001178555612eeb565b82800160010185558215612eeb579182015b82811115612eea578251825591602001919060010190612ecf565b5b509050612ef89190612f7f565b5090565b60405180610100016040528060008152602001600073ffffffffffffffffffffffffffffffffffffffff1681526020016060815260200160008152602001606081526020016060815260200160608152602001606081525090565b6040518060800160405280600081526020016060815260200160608152602001606081525090565b5b80821115612f98576000816000905550600101612f80565b5090565b6000612faf612faa846139b3565b61398e565b905082815260208101848484011115612fc757600080fd5b612fd2848285613acb565b509392505050565b600081359050612fe981613ca6565b92915050565b600082601f83011261300057600080fd5b8135613010848260208601612f9c565b91505092915050565b60008135905061302881613cbd565b92915050565b60006020828403121561304057600080fd5b600061304e84828501612fda565b91505092915050565b60008060006060848603121561306c57600080fd5b600084013567ffffffffffffffff81111561308657600080fd5b61309286828701612fef565b935050602084013567ffffffffffffffff8111156130af57600080fd5b6130bb86828701612fef565b925050604084013567ffffffffffffffff8111156130d857600080fd5b6130e486828701612fef565b9150509250925092565b600080600080600080600060e0888a03121561310957600080fd5b600088013567ffffffffffffffff81111561312357600080fd5b61312f8a828b01612fef565b975050602088013567ffffffffffffffff81111561314c57600080fd5b6131588a828b01612fef565b965050604088013567ffffffffffffffff81111561317557600080fd5b6131818a828b01612fef565b955050606088013567ffffffffffffffff81111561319e57600080fd5b6131aa8a828b01612fef565b945050608088013567ffffffffffffffff8111156131c757600080fd5b6131d38a828b01612fef565b93505060a088013567ffffffffffffffff8111156131f057600080fd5b6131fc8a828b01612fef565b92505060c088013567ffffffffffffffff81111561321957600080fd5b6132258a828b01612fef565b91505092959891949750929550565b60008060008060008060c0878903121561324d57600080fd5b600087013567ffffffffffffffff81111561326757600080fd5b61327389828a01612fef565b965050602087013567ffffffffffffffff81111561329057600080fd5b61329c89828a01612fef565b955050604087013567ffffffffffffffff8111156132b957600080fd5b6132c589828a01612fef565b945050606087013567ffffffffffffffff8111156132e257600080fd5b6132ee89828a01612fef565b935050608087013567ffffffffffffffff81111561330b57600080fd5b61331789828a01612fef565b92505060a061332889828a01613019565b9150509295509295509295565b60006020828403121561334757600080fd5b600061335584828501613019565b91505092915050565b6000806040838503121561337157600080fd5b600061337f85828601613019565b925050602061339085828601613019565b9150509250929050565b60006133a683836135b2565b905092915050565b60006133ba838361367e565b905092915050565b6133cb81613a83565b82525050565b6133da81613a83565b82525050565b60006133eb82613a04565b6133f58185613a3f565b935083602082028501613407856139e4565b8060005b858110156134435784840389528151613424858261339a565b945061342f83613a25565b925060208a0199505060018101905061340b565b50829750879550505050505092915050565b600061346082613a0f565b61346a8185613a50565b93508360208202850161347c856139f4565b8060005b858110156134b8578484038952815161349985826133ae565b94506134a483613a32565b925060208a01995050600181019050613480565b50829750879550505050505092915050565b6134d381613a95565b82525050565b60006134e482613a1a565b6134ee8185613a61565b93506134fe818560208601613ada565b61350781613c46565b840191505092915050565b600061351d82613a1a565b6135278185613a72565b9350613537818560208601613ada565b61354081613c46565b840191505092915050565b6000613558602283613a72565b915061356382613c57565b604082019050919050565b6000604083016000830151848203600086015261358b82826134d9565b915050602083015184820360208601526135a582826134d9565b9150508091505092915050565b6000610100830160008301516135cb60008601826136ef565b5060208301516135de60208601826133c2565b50604083015184820360408601526135f682826134d9565b915050606083015161360b60608601826136ef565b506080830151848203608086015261362382826134d9565b91505060a083015184820360a086015261363d82826134d9565b91505060c083015184820360c086015261365782826134d9565b91505060e083015184820360e086015261367182826134d9565b9150508091505092915050565b600060808301600083015161369660008601826136ef565b50602083015184820360208601526136ae82826134d9565b915050604083015184820360408601526136c882826134d9565b915050606083015184820360608601526136e282826134d9565b9150508091505092915050565b6136f881613ac1565b82525050565b61370781613ac1565b82525050565b600060208201905061372260008301846133d1565b92915050565b6000602082019050818103600083015261374281846133e0565b905092915050565b600060208201905081810360008301526137648184613455565b905092915050565b600060208201905061378160008301846134ca565b92915050565b600060208201905081810360008301526137a08161354b565b9050919050565b60006020820190506137bc60008301846136fe565b92915050565b6000610100820190506137d8600083018b6136fe565b6137e5602083018a6133d1565b81810360408301526137f78189613512565b905061380660608301886136fe565b81810360808301526138188187613512565b905081810360a083015261382c8186613512565b905081810360c08301526138408185613512565b905081810360e08301526138548184613512565b90509998505050505050505050565b600060808201905061387860008301876136fe565b818103602083015261388a8186613512565b9050818103604083015261389e8185613512565b905081810360608301526138b28184613512565b905095945050505050565b6000610100820190506138d3600083018b6136fe565b81810360208301526138e5818a613512565b905081810360408301526138f98189613512565b9050818103606083015261390d8188613512565b905081810360808301526139218187613512565b905081810360a08301526139358186613512565b905061394460c08301856134ca565b81810360e0830152613956818461356e565b90509998505050505050505050565b600060408201905061397a60008301856136fe565b61398760208301846136fe565b9392505050565b60006139986139a9565b90506139a48282613b3f565b919050565b6000604051905090565b600067ffffffffffffffff8211156139ce576139cd613c17565b5b6139d782613c46565b9050602081019050919050565b6000819050602082019050919050565b6000819050602082019050919050565b600081519050919050565b600081519050919050565b600081519050919050565b6000602082019050919050565b6000602082019050919050565b600082825260208201905092915050565b600082825260208201905092915050565b600082825260208201905092915050565b600082825260208201905092915050565b6000613a8e82613aa1565b9050919050565b60008115159050919050565b600073ffffffffffffffffffffffffffffffffffffffff82169050919050565b6000819050919050565b82818337600083830152505050565b60005b83811015613af8578082015181840152602081019050613add565b83811115613b07576000848401525b50505050565b60006002820490506001821680613b2557607f821691505b60208210811415613b3957613b38613be8565b5b50919050565b613b4882613c46565b810181811067ffffffffffffffff82111715613b6757613b66613c17565b5b80604052505050565b6000613b7b82613ac1565b91507fffffffffffffffffffffffffffffffffffffffffffffffffffffffffffffffff821415613bae57613bad613bb9565b5b600182019050919050565b7f4e487b7100000000000000000000000000000000000000000000000000000000600052601160045260246000fd5b7f4e487b7100000000000000000000000000000000000000000000000000000000600052602260045260246000fd5b7f4e487b7100000000000000000000000000000000000000000000000000000000600052604160045260246000fd5b6000601f19601f8301169050919050565b7f54686973204164647265737320697320616c726561647920526567697374657260008201527f6564000000000000000000000000000000000000000000000000000000000000602082015250565b613caf81613a83565b8114613cba57600080fd5b50565b613cc681613ac1565b8114613cd157600080fd5b5056fea2646970667358221220f091f4526a4a364b9fe38c37acc71f6b6024154b88b758b6b6e4a14c85c8743164736f6c63430008040033",
  "linkReferences": {},
  "deployedLinkReferences": {}
}