{
  "_format": "hh-sol-artifact-1",
  "contractName": "RideSharing",
  "sourceName": "contracts/Ridesharing.sol",
  "abi": [
    {
      "inputs": [
        {
          "internalType": "string",
          "name": "msg",
          "type": "string"
        }
      ],
      "name": "AlreadyRegistered",
      "type": "error"
    },
    {
      "anonymous": false,
      "inputs": [
        {
          "indexed": false,
          "internalType": "uint256",
          "name": "Type",
          "type": "uint256"
        },
        {
          "indexed": false,
          "internalType": "uint256",
          "name": "id",
          "type": "uint256"
        }
      ],
      "name": "UserType",
      "type": "event"
    },
    {
      "anonymous": false,
      "inputs": [
        {
          "indexed": false,
          "internalType": "uint256",
          "name": "driverId",
          "type": "uint256"
        },
        {
          "indexed": false,
          "internalType": "string",
          "name": "name",
          "type": "string"
        },
        {
          "indexed": false,
          "internalType": "string",
          "name": "nic",
          "type": "string"
        },
        {
          "indexed": false,
          "internalType": "string",
          "name": "regNum",
          "type": "string"
        }
      ],
      "name": "registeredDriver",
      "type": "event"
    },
    {
      "anonymous": false,
      "inputs": [
        {
          "indexed": false,
          "internalType": "uint256",
          "name": "RiderId",
          "type": "uint256"
        },
        {
          "indexed": false,
          "internalType": "string",
          "name": "name",
          "type": "string"
        },
        {
          "indexed": false,
          "internalType": "string",
          "name": "email",
          "type": "string"
        },
        {
          "indexed": false,
          "internalType": "string",
          "name": "cellno",
          "type": "string"
        }
      ],
      "name": "registeredRider",
      "type": "event"
    },
    {
      "inputs": [
        {
          "internalType": "uint256",
          "name": "",
          "type": "uint256"
        }
      ],
      "name": "RideIDTodriverId",
      "outputs": [
        {
          "internalType": "uint256",
          "name": "",
          "type": "uint256"
        }
      ],
      "stateMutability": "view",
      "type": "function"
    },
    {
      "inputs": [
        {
          "internalType": "address",
          "name": "",
          "type": "address"
        }
      ],
      "name": "addressToDriver",
      "outputs": [
        {
          "internalType": "uint256",
          "name": "Id",
          "type": "uint256"
        },
        {
          "internalType": "string",
          "name": "name",
          "type": "string"
        },
        {
          "internalType": "string",
          "name": "nic",
          "type": "string"
        },
        {
          "internalType": "string",
          "name": "email",
          "type": "string"
        },
        {
          "internalType": "string",
          "name": "cellno",
          "type": "string"
        },
        {
          "internalType": "string",
          "name": "LiscenceNo",
          "type": "string"
        },
        {
          "internalType": "bool",
          "name": "isRegistered",
          "type": "bool"
        },
        {
          "components": [
            {
              "internalType": "string",
              "name": "regNum",
              "type": "string"
            },
            {
              "internalType": "string",
              "name": "modelName",
              "type": "string"
            }
          ],
          "internalType": "struct RideSharing.Car",
          "name": "car",
          "type": "tuple"
        }
      ],
      "stateMutability": "view",
      "type": "function"
    },
    {
      "inputs": [
        {
          "internalType": "address",
          "name": "",
          "type": "address"
        }
      ],
      "name": "addressToRider",
      "outputs": [
        {
          "internalType": "uint256",
          "name": "Id",
          "type": "uint256"
        },
        {
          "internalType": "string",
          "name": "name",
          "type": "string"
        },
        {
          "internalType": "string",
          "name": "email",
          "type": "string"
        },
        {
          "internalType": "string",
          "name": "cellno",
          "type": "string"
        }
      ],
      "stateMutability": "view",
      "type": "function"
    },
    {
      "inputs": [
        {
          "internalType": "string",
          "name": "sourceLong",
          "type": "string"
        },
        {
          "internalType": "string",
          "name": "sourceLat",
          "type": "string"
        },
        {
          "internalType": "string",
          "name": "destLong",
          "type": "string"
        },
        {
          "internalType": "string",
          "name": "destLat",
          "type": "string"
        },
        {
          "internalType": "string",
          "name": "startTime",
          "type": "string"
        },
        {
          "internalType": "uint256",
          "name": "seats",
          "type": "uint256"
        }
      ],
      "name": "createRide",
      "outputs": [],
      "stateMutability": "nonpayable",
      "type": "function"
    },
    {
      "inputs": [
        {
          "internalType": "address",
          "name": "",
          "type": "address"
        }
      ],
      "name": "driverIsRegistered",
      "outputs": [
        {
          "internalType": "bool",
          "name": "",
          "type": "bool"
        }
      ],
      "stateMutability": "view",
      "type": "function"
    },
    {
      "inputs": [],
      "name": "getAllRides",
      "outputs": [
        {
          "components": [
            {
              "internalType": "uint256",
              "name": "rideId",
              "type": "uint256"
            },
            {
              "internalType": "address",
              "name": "creator",
              "type": "address"
            },
            {
              "internalType": "string",
              "name": "StartTime",
              "type": "string"
            },
            {
              "internalType": "uint256",
              "name": "seats",
              "type": "uint256"
            },
            {
              "internalType": "string",
              "name": "sourceLong",
              "type": "string"
            },
            {
              "internalType": "string",
              "name": "sourceLat",
              "type": "string"
            },
            {
              "internalType": "string",
              "name": "destLong",
              "type": "string"
            },
            {
              "internalType": "string",
              "name": "destLat",
              "type": "string"
            }
          ],
          "internalType": "struct RideSharing.Ride[]",
          "name": "",
          "type": "tuple[]"
        }
      ],
      "stateMutability": "view",
      "type": "function"
    },
    {
      "inputs": [
        {
          "internalType": "address",
          "name": "_driver",
          "type": "address"
        }
      ],
      "name": "getDriverByAddress",
      "outputs": [
        {
          "internalType": "uint256",
          "name": "",
          "type": "uint256"
        }
      ],
      "stateMutability": "view",
      "type": "function"
    },
    {
      "inputs": [
        {
          "internalType": "uint256",
          "name": "rideId",
          "type": "uint256"
        }
      ],
      "name": "getRidersByRideId",
      "outputs": [
        {
          "components": [
            {
              "internalType": "uint256",
              "name": "Id",
              "type": "uint256"
            },
            {
              "internalType": "string",
              "name": "name",
              "type": "string"
            },
            {
              "internalType": "string",
              "name": "email",
              "type": "string"
            },
            {
              "internalType": "string",
              "name": "cellno",
              "type": "string"
            }
          ],
          "internalType": "struct RideSharing.Rider[]",
          "name": "",
          "type": "tuple[]"
        }
      ],
      "stateMutability": "view",
      "type": "function"
    },
    {
      "inputs": [
        {
          "internalType": "address",
          "name": "user",
          "type": "address"
        }
      ],
      "name": "getUserType",
      "outputs": [
        {
          "internalType": "uint256",
          "name": "",
          "type": "uint256"
        },
        {
          "internalType": "uint256",
          "name": "",
          "type": "uint256"
        },
        {
          "internalType": "uint256",
          "name": "",
          "type": "uint256"
        }
      ],
      "stateMutability": "view",
      "type": "function"
    },
    {
      "inputs": [
        {
          "internalType": "uint256",
          "name": "",
          "type": "uint256"
        }
      ],
      "name": "idToDriver",
      "outputs": [
        {
          "internalType": "uint256",
          "name": "Id",
          "type": "uint256"
        },
        {
          "internalType": "string",
          "name": "name",
          "type": "string"
        },
        {
          "internalType": "string",
          "name": "nic",
          "type": "string"
        },
        {
          "internalType": "string",
          "name": "email",
          "type": "string"
        },
        {
          "internalType": "string",
          "name": "cellno",
          "type": "string"
        },
        {
          "internalType": "string",
          "name": "LiscenceNo",
          "type": "string"
        },
        {
          "internalType": "bool",
          "name": "isRegistered",
          "type": "bool"
        },
        {
          "components": [
            {
              "internalType": "string",
              "name": "regNum",
              "type": "string"
            },
            {
              "internalType": "string",
              "name": "modelName",
              "type": "string"
            }
          ],
          "internalType": "struct RideSharing.Car",
          "name": "car",
          "type": "tuple"
        }
      ],
      "stateMutability": "view",
      "type": "function"
    },
    {
      "inputs": [
        {
          "internalType": "uint256",
          "name": "",
          "type": "uint256"
        }
      ],
      "name": "idToRide",
      "outputs": [
        {
          "internalType": "uint256",
          "name": "rideId",
          "type": "uint256"
        },
        {
          "internalType": "address",
          "name": "creator",
          "type": "address"
        },
        {
          "internalType": "string",
          "name": "StartTime",
          "type": "string"
        },
        {
          "internalType": "uint256",
          "name": "seats",
          "type": "uint256"
        },
        {
          "internalType": "string",
          "name": "sourceLong",
          "type": "string"
        },
        {
          "internalType": "string",
          "name": "sourceLat",
          "type": "string"
        },
        {
          "internalType": "string",
          "name": "destLong",
          "type": "string"
        },
        {
          "internalType": "string",
          "name": "destLat",
          "type": "string"
        }
      ],
      "stateMutability": "view",
      "type": "function"
    },
    {
      "inputs": [
        {
          "internalType": "uint256",
          "name": "",
          "type": "uint256"
        }
      ],
      "name": "idToRider",
      "outputs": [
        {
          "internalType": "uint256",
          "name": "Id",
          "type": "uint256"
        },
        {
          "internalType": "string",
          "name": "name",
          "type": "string"
        },
        {
          "internalType": "string",
          "name": "email",
          "type": "string"
        },
        {
          "internalType": "string",
          "name": "cellno",
          "type": "string"
        }
      ],
      "stateMutability": "view",
      "type": "function"
    },
    {
      "inputs": [
        {
          "internalType": "uint256",
          "name": "rideId",
          "type": "uint256"
        },
        {
          "internalType": "uint256",
          "name": "riderId",
          "type": "uint256"
        }
      ],
      "name": "joinRide",
      "outputs": [],
      "stateMutability": "nonpayable",
      "type": "function"
    },
    {
      "inputs": [
        {
          "internalType": "string",
          "name": "_name",
          "type": "string"
        },
        {
          "internalType": "string",
          "name": "_nic",
          "type": "string"
        },
        {
          "internalType": "string",
          "name": "_email",
          "type": "string"
        },
        {
          "internalType": "string",
          "name": "_cellno",
          "type": "string"
        },
        {
          "internalType": "string",
          "name": "_regNum",
          "type": "string"
        },
        {
          "internalType": "string",
          "name": "_modelName",
          "type": "string"
        },
        {
          "internalType": "string",
          "name": "_LiscenceNo",
          "type": "string"
        }
      ],
      "name": "registerForDriver",
      "outputs": [],
      "stateMutability": "nonpayable",
      "type": "function"
    },
    {
      "inputs": [
        {
          "internalType": "string",
          "name": "_name",
          "type": "string"
        },
        {
          "internalType": "string",
          "name": "_email",
          "type": "string"
        },
        {
          "internalType": "string",
          "name": "_cellno",
          "type": "string"
        }
      ],
      "name": "registerForRider",
      "outputs": [],
      "stateMutability": "nonpayable",
      "type": "function"
    },
    {
      "inputs": [
        {
          "internalType": "uint256",
          "name": "",
          "type": "uint256"
        }
      ],
      "name": "riderIdtorideId",
      "outputs": [
        {
          "internalType": "uint256",
          "name": "",
          "type": "uint256"
        }
      ],
      "stateMutability": "view",
      "type": "function"
    },
    {
      "inputs": [
        {
          "internalType": "address",
          "name": "",
          "type": "address"
        }
      ],
      "name": "riderIsRegistered",
      "outputs": [
        {
          "internalType": "bool",
          "name": "",
          "type": "bool"
        }
      ],
      "stateMutability": "view",
      "type": "function"
    }
  ],
  "bytecode": "0x608060405234801561001057600080fd5b50613d40806100206000396000f3fe608060405234801561001057600080fd5b506004361061010b5760003560e01c8063ba1ac377116100a2578063e147d78711610071578063e147d78714610315578063e563eada14610345578063e656b57814610375578063ec7a5220146103a8578063f2c5c2f1146103df5761010b565b8063ba1ac37714610276578063bbe3803a14610292578063c092e399146102c2578063c29cc99a146102f95761010b565b8063787660c3116100de578063787660c3146101c65780638b3f863f146101e45780639e473a4714610216578063a9b6bbde146102465761010b565b806305c41e0e146101105780631840110a14610143578063472b06c01461017357806366ec451c1461018f575b600080fd5b61012a6004803603810190610125919061335d565b6103fb565b60405161013a949392919061388b565b60405180910390f35b61015d6004803603810190610158919061335d565b6105c3565b60405161016a91906137cf565b60405180910390f35b61018d6004803603810190610188919061307f565b6105db565b005b6101a960048036038101906101a4919061335d565b61086d565b6040516101bd9897969594939291906137ea565b60405180910390f35b6101ce610b7d565b6040516101db9190613750565b60405180910390f35b6101fe60048036038101906101f99190613056565b610fef565b60405161020d9392919061398d565b60405180910390f35b610230600480360381019061022b9190613056565b611731565b60405161023d9190613794565b60405180910390f35b610260600480360381019061025b9190613056565b611751565b60405161026d91906137cf565b60405180910390f35b610290600480360381019061028b9190613116565b6117a2565b005b6102ac60048036038101906102a7919061335d565b611bac565b6040516102b991906137cf565b60405180910390f35b6102dc60048036038101906102d79190613056565b611bc4565b6040516102f09897969594939291906138e5565b60405180910390f35b610313600480360381019061030e919061325c565b611fef565b005b61032f600480360381019061032a9190613056565b6121eb565b60405161033c9190613794565b60405180910390f35b61035f600480360381019061035a919061335d565b61220b565b60405161036c9190613772565b60405180910390f35b61038f600480360381019061038a9190613056565b61254e565b60405161039f949392919061388b565b60405180910390f35b6103c260048036038101906103bd919061335d565b612716565b6040516103d69897969594939291906138e5565b60405180910390f35b6103f960048036038101906103f49190613386565b612b41565b005b600660205280600052604060002060009150905080600001549080600101805461042490613b43565b80601f016020809104026020016040519081016040528092919081815260200182805461045090613b43565b801561049d5780601f106104725761010080835404028352916020019161049d565b820191906000526020600020905b81548152906001019060200180831161048057829003601f168201915b5050505050908060020180546104b290613b43565b80601f01602080910402602001604051908101604052809291908181526020018280546104de90613b43565b801561052b5780601f106105005761010080835404028352916020019161052b565b820191906000526020600020905b81548152906001019060200180831161050e57829003601f168201915b50505050509080600301805461054090613b43565b80601f016020809104026020016040519081016040528092919081815260200182805461056c90613b43565b80156105b95780601f1061058e576101008083540402835291602001916105b9565b820191906000526020600020905b81548152906001019060200180831161059c57829003601f168201915b5050505050905084565b600b6020528060005260406000206000915090505481565b60011515600460003373ffffffffffffffffffffffffffffffffffffffff1673ffffffffffffffffffffffffffffffffffffffff16815260200190815260200160002060009054906101000a900460ff161515141561066f576040517f0a7a3d7c000000000000000000000000000000000000000000000000000000008152600401610666906137af565b60405180910390fd5b6106796002612db8565b60006106856002612dce565b9050600060405180608001604052808381526020018681526020018581526020018481525090506001600460003373ffffffffffffffffffffffffffffffffffffffff1673ffffffffffffffffffffffffffffffffffffffff16815260200190815260200160002060006101000a81548160ff021916908315150217905550806006600084815260200190815260200160002060008201518160000155602082015181600101908051906020019061073e929190612e9e565b50604082015181600201908051906020019061075b929190612e9e565b506060820151816003019080519060200190610778929190612e9e565b5090505080600860003373ffffffffffffffffffffffffffffffffffffffff1673ffffffffffffffffffffffffffffffffffffffff1681526020019081526020016000206000820151816000015560208201518160010190805190602001906107e2929190612e9e565b5060408201518160020190805190602001906107ff929190612e9e565b50606082015181600301908051906020019061081c929190612e9e565b5090505061082933612ddc565b7f22e9c31ba948c6fb17673cf7d4f73d44f2090424bd885b5c4adb3b24b00ba0fe8286868660405161085e949392919061388b565b60405180910390a15050505050565b600a6020528060005260406000206000915090508060000154908060010160009054906101000a900473ffffffffffffffffffffffffffffffffffffffff16908060020180546108bc90613b43565b80601f01602080910402602001604051908101604052809291908181526020018280546108e890613b43565b80156109355780601f1061090a57610100808354040283529160200191610935565b820191906000526020600020905b81548152906001019060200180831161091857829003601f168201915b50505050509080600301549080600401805461095090613b43565b80601f016020809104026020016040519081016040528092919081815260200182805461097c90613b43565b80156109c95780601f1061099e576101008083540402835291602001916109c9565b820191906000526020600020905b8154815290600101906020018083116109ac57829003601f168201915b5050505050908060050180546109de90613b43565b80601f0160208091040260200160405190810160405280929190818152602001828054610a0a90613b43565b8015610a575780601f10610a2c57610100808354040283529160200191610a57565b820191906000526020600020905b815481529060010190602001808311610a3a57829003601f168201915b505050505090806006018054610a6c90613b43565b80601f0160208091040260200160405190810160405280929190818152602001828054610a9890613b43565b8015610ae55780601f10610aba57610100808354040283529160200191610ae5565b820191906000526020600020905b815481529060010190602001808311610ac857829003601f168201915b505050505090806007018054610afa90613b43565b80601f0160208091040260200160405190810160405280929190818152602001828054610b2690613b43565b8015610b735780601f10610b4857610100808354040283529160200191610b73565b820191906000526020600020905b815481529060010190602001808311610b5657829003601f168201915b5050505050905088565b6060600080610b8c6001612dce565b67ffffffffffffffff811115610bcb577f4e487b7100000000000000000000000000000000000000000000000000000000600052604160045260246000fd5b604051908082528060200260200182016040528015610c0457816020015b610bf1612f24565b815260200190600190039081610be95790505b5090506000600190505b610c186001612dce565b8111610fe657600a600082815260200190815260200160002060405180610100016040529081600082015481526020016001820160009054906101000a900473ffffffffffffffffffffffffffffffffffffffff1673ffffffffffffffffffffffffffffffffffffffff1673ffffffffffffffffffffffffffffffffffffffff168152602001600282018054610cad90613b43565b80601f0160208091040260200160405190810160405280929190818152602001828054610cd990613b43565b8015610d265780601f10610cfb57610100808354040283529160200191610d26565b820191906000526020600020905b815481529060010190602001808311610d0957829003601f168201915b5050505050815260200160038201548152602001600482018054610d4990613b43565b80601f0160208091040260200160405190810160405280929190818152602001828054610d7590613b43565b8015610dc25780601f10610d9757610100808354040283529160200191610dc2565b820191906000526020600020905b815481529060010190602001808311610da557829003601f168201915b50505050508152602001600582018054610ddb90613b43565b80601f0160208091040260200160405190810160405280929190818152602001828054610e0790613b43565b8015610e545780601f10610e2957610100808354040283529160200191610e54565b820191906000526020600020905b815481529060010190602001808311610e3757829003601f168201915b50505050508152602001600682018054610e6d90613b43565b80601f0160208091040260200160405190810160405280929190818152602001828054610e9990613b43565b8015610ee65780601f10610ebb57610100808354040283529160200191610ee6565b820191906000526020600020905b815481529060010190602001808311610ec957829003601f168201915b50505050508152602001600782018054610eff90613b43565b80601f0160208091040260200160405190810160405280929190818152602001828054610f2b90613b43565b8015610f785780601f10610f4d57610100808354040283529160200191610f78565b820191906000526020600020905b815481529060010190602001808311610f5b57829003601f168201915b505050505081525050828481518110610fba577f4e487b7100000000000000000000000000000000000000000000000000000000600052603260045260246000fd5b60200260200101819052508280610fd090613ba6565b9350508080610fde90613ba6565b915050610c0e565b50809250505090565b6000806000806000806000600860008973ffffffffffffffffffffffffffffffffffffffff1673ffffffffffffffffffffffffffffffffffffffff1681526020019081526020016000206040518060800160405290816000820154815260200160018201805461105e90613b43565b80601f016020809104026020016040519081016040528092919081815260200182805461108a90613b43565b80156110d75780601f106110ac576101008083540402835291602001916110d7565b820191906000526020600020905b8154815290600101906020018083116110ba57829003601f168201915b505050505081526020016002820180546110f090613b43565b80601f016020809104026020016040519081016040528092919081815260200182805461111c90613b43565b80156111695780601f1061113e57610100808354040283529160200191611169565b820191906000526020600020905b81548152906001019060200180831161114c57829003601f168201915b5050505050815260200160038201805461118290613b43565b80601f01602080910402602001604051908101604052809291908181526020018280546111ae90613b43565b80156111fb5780601f106111d0576101008083540402835291602001916111fb565b820191906000526020600020905b8154815290600101906020018083116111de57829003601f168201915b50505050508152505090506000600760008a73ffffffffffffffffffffffffffffffffffffffff1673ffffffffffffffffffffffffffffffffffffffff168152602001908152602001600020604051806101000160405290816000820154815260200160018201805461126d90613b43565b80601f016020809104026020016040519081016040528092919081815260200182805461129990613b43565b80156112e65780601f106112bb576101008083540402835291602001916112e6565b820191906000526020600020905b8154815290600101906020018083116112c957829003601f168201915b505050505081526020016002820180546112ff90613b43565b80601f016020809104026020016040519081016040528092919081815260200182805461132b90613b43565b80156113785780601f1061134d57610100808354040283529160200191611378565b820191906000526020600020905b81548152906001019060200180831161135b57829003601f168201915b5050505050815260200160038201805461139190613b43565b80601f01602080910402602001604051908101604052809291908181526020018280546113bd90613b43565b801561140a5780601f106113df5761010080835404028352916020019161140a565b820191906000526020600020905b8154815290600101906020018083116113ed57829003601f168201915b5050505050815260200160048201805461142390613b43565b80601f016020809104026020016040519081016040528092919081815260200182805461144f90613b43565b801561149c5780601f106114715761010080835404028352916020019161149c565b820191906000526020600020905b81548152906001019060200180831161147f57829003601f168201915b505050505081526020016005820180546114b590613b43565b80601f01602080910402602001604051908101604052809291908181526020018280546114e190613b43565b801561152e5780601f106115035761010080835404028352916020019161152e565b820191906000526020600020905b81548152906001019060200180831161151157829003601f168201915b505050505081526020016006820160009054906101000a900460ff161515151581526020016007820160405180604001604052908160008201805461157290613b43565b80601f016020809104026020016040519081016040528092919081815260200182805461159e90613b43565b80156115eb5780601f106115c0576101008083540402835291602001916115eb565b820191906000526020600020905b8154815290600101906020018083116115ce57829003601f168201915b5050505050815260200160018201805461160490613b43565b80601f016020809104026020016040519081016040528092919081815260200182805461163090613b43565b801561167d5780601f106116525761010080835404028352916020019161167d565b820191906000526020600020905b81548152906001019060200180831161166057829003601f168201915b505050505081525050815250509050600082600001511480156116a557506000816000015114155b156116ba57600194508060000151925061171c565b60008260000151141580156116d3575060008160000151145b156116e857600294508160000151935061171b565b600082600001511415801561170257506000816000015114155b1561171a576003945080600001519250816000015193505b5b5b84848497509750975050505050509193909250565b60036020528060005260406000206000915054906101000a900460ff1681565b600080600760008473ffffffffffffffffffffffffffffffffffffffff1673ffffffffffffffffffffffffffffffffffffffff16815260200190815260200160002090508060000154915050919050565b60011515600360003373ffffffffffffffffffffffffffffffffffffffff1673ffffffffffffffffffffffffffffffffffffffff16815260200190815260200160002060009054906101000a900460ff1615151415611836576040517f0a7a3d7c00000000000000000000000000000000000000000000000000000000815260040161182d906137af565b60405180910390fd5b600060405180604001604052808581526020018481525090506118596000612db8565b60006118656000612dce565b905060006040518061010001604052808381526020018b81526020018a81526020018981526020018881526020018581526020016001151581526020018481525090506001600360003373ffffffffffffffffffffffffffffffffffffffff1673ffffffffffffffffffffffffffffffffffffffff16815260200190815260200160002060006101000a81548160ff021916908315150217905550806005600084815260200190815260200160002060008201518160000155602082015181600101908051906020019061193a929190612e9e565b506040820151816002019080519060200190611957929190612e9e565b506060820151816003019080519060200190611974929190612e9e565b506080820151816004019080519060200190611991929190612e9e565b5060a08201518160050190805190602001906119ae929190612e9e565b5060c08201518160060160006101000a81548160ff02191690831515021790555060e08201518160070160008201518160000190805190602001906119f4929190612e9e565b506020820151816001019080519060200190611a11929190612e9e565b50505090505080600760003373ffffffffffffffffffffffffffffffffffffffff1673ffffffffffffffffffffffffffffffffffffffff168152602001908152602001600020600082015181600001556020820151816001019080519060200190611a7d929190612e9e565b506040820151816002019080519060200190611a9a929190612e9e565b506060820151816003019080519060200190611ab7929190612e9e565b506080820151816004019080519060200190611ad4929190612e9e565b5060a0820151816005019080519060200190611af1929190612e9e565b5060c08201518160060160006101000a81548160ff02191690831515021790555060e0820151816007016000820151816000019080519060200190611b37929190612e9e565b506020820151816001019080519060200190611b54929190612e9e565b505050905050611b6333612ddc565b7f3de04171a543da1b7f9e1fabae52c6c8f0ab266b234a95ede56668caebce1bec828b8b89604051611b98949392919061388b565b60405180910390a150505050505050505050565b60096020528060005260406000206000915090505481565b6007602052806000526040600020600091509050806000015490806001018054611bed90613b43565b80601f0160208091040260200160405190810160405280929190818152602001828054611c1990613b43565b8015611c665780601f10611c3b57610100808354040283529160200191611c66565b820191906000526020600020905b815481529060010190602001808311611c4957829003601f168201915b505050505090806002018054611c7b90613b43565b80601f0160208091040260200160405190810160405280929190818152602001828054611ca790613b43565b8015611cf45780601f10611cc957610100808354040283529160200191611cf4565b820191906000526020600020905b815481529060010190602001808311611cd757829003601f168201915b505050505090806003018054611d0990613b43565b80601f0160208091040260200160405190810160405280929190818152602001828054611d3590613b43565b8015611d825780601f10611d5757610100808354040283529160200191611d82565b820191906000526020600020905b815481529060010190602001808311611d6557829003601f168201915b505050505090806004018054611d9790613b43565b80601f0160208091040260200160405190810160405280929190818152602001828054611dc390613b43565b8015611e105780601f10611de557610100808354040283529160200191611e10565b820191906000526020600020905b815481529060010190602001808311611df357829003601f168201915b505050505090806005018054611e2590613b43565b80601f0160208091040260200160405190810160405280929190818152602001828054611e5190613b43565b8015611e9e5780601f10611e7357610100808354040283529160200191611e9e565b820191906000526020600020905b815481529060010190602001808311611e8157829003601f168201915b5050505050908060060160009054906101000a900460ff169080600701604051806040016040529081600082018054611ed690613b43565b80601f0160208091040260200160405190810160405280929190818152602001828054611f0290613b43565b8015611f4f5780601f10611f2457610100808354040283529160200191611f4f565b820191906000526020600020905b815481529060010190602001808311611f3257829003601f168201915b50505050508152602001600182018054611f6890613b43565b80601f0160208091040260200160405190810160405280929190818152602001828054611f9490613b43565b8015611fe15780601f10611fb657610100808354040283529160200191611fe1565b820191906000526020600020905b815481529060010190602001808311611fc457829003601f168201915b505050505081525050905088565b60011515600360003373ffffffffffffffffffffffffffffffffffffffff1673ffffffffffffffffffffffffffffffffffffffff16815260200190815260200160002060009054906101000a900460ff1615151461204c57600080fd5b600061205733611751565b90506120636001612db8565b600061206f6001612dce565b905060006040518061010001604052808381526020013373ffffffffffffffffffffffffffffffffffffffff1681526020018681526020018581526020018a815260200189815260200188815260200187815250905080600a60008481526020019081526020016000206000820151816000015560208201518160010160006101000a81548173ffffffffffffffffffffffffffffffffffffffff021916908373ffffffffffffffffffffffffffffffffffffffff1602179055506040820151816002019080519060200190612146929190612e9e565b5060608201518160030155608082015181600401908051906020019061216d929190612e9e565b5060a082015181600501908051906020019061218a929190612e9e565b5060c08201518160060190805190602001906121a7929190612e9e565b5060e08201518160070190805190602001906121c4929190612e9e565b50905050826009600084815260200190815260200160002081905550505050505050505050565b60046020528060005260406000206000915054906101000a900460ff1681565b60606000806000600190505b6122216001612dce565b81116122645784600b600083815260200190815260200160002054141561225157828061224d90613ba6565b9350505b808061225c90613ba6565b915050612217565b5060008267ffffffffffffffff8111156122a7577f4e487b7100000000000000000000000000000000000000000000000000000000600052604160045260246000fd5b6040519080825280602002602001820160405280156122e057816020015b6122cd612f7f565b8152602001906001900390816122c55790505b5090506000600190505b8381116125425785600b600083815260200190815260200160002054141561252f57600c60008281526020019081526020016000206040518060800160405290816000820154815260200160018201805461234490613b43565b80601f016020809104026020016040519081016040528092919081815260200182805461237090613b43565b80156123bd5780601f10612392576101008083540402835291602001916123bd565b820191906000526020600020905b8154815290600101906020018083116123a057829003601f168201915b505050505081526020016002820180546123d690613b43565b80601f016020809104026020016040519081016040528092919081815260200182805461240290613b43565b801561244f5780601f106124245761010080835404028352916020019161244f565b820191906000526020600020905b81548152906001019060200180831161243257829003601f168201915b5050505050815260200160038201805461246890613b43565b80601f016020809104026020016040519081016040528092919081815260200182805461249490613b43565b80156124e15780601f106124b6576101008083540402835291602001916124e1565b820191906000526020600020905b8154815290600101906020018083116124c457829003601f168201915b505050505081525050828481518110612523577f4e487b7100000000000000000000000000000000000000000000000000000000600052603260045260246000fd5b60200260200101819052505b808061253a90613ba6565b9150506122ea565b50809350505050919050565b600860205280600052604060002060009150905080600001549080600101805461257790613b43565b80601f01602080910402602001604051908101604052809291908181526020018280546125a390613b43565b80156125f05780601f106125c5576101008083540402835291602001916125f0565b820191906000526020600020905b8154815290600101906020018083116125d357829003601f168201915b50505050509080600201805461260590613b43565b80601f016020809104026020016040519081016040528092919081815260200182805461263190613b43565b801561267e5780601f106126535761010080835404028352916020019161267e565b820191906000526020600020905b81548152906001019060200180831161266157829003601f168201915b50505050509080600301805461269390613b43565b80601f01602080910402602001604051908101604052809291908181526020018280546126bf90613b43565b801561270c5780601f106126e15761010080835404028352916020019161270c565b820191906000526020600020905b8154815290600101906020018083116126ef57829003601f168201915b5050505050905084565b600560205280600052604060002060009150905080600001549080600101805461273f90613b43565b80601f016020809104026020016040519081016040528092919081815260200182805461276b90613b43565b80156127b85780601f1061278d576101008083540402835291602001916127b8565b820191906000526020600020905b81548152906001019060200180831161279b57829003601f168201915b5050505050908060020180546127cd90613b43565b80601f01602080910402602001604051908101604052809291908181526020018280546127f990613b43565b80156128465780601f1061281b57610100808354040283529160200191612846565b820191906000526020600020905b81548152906001019060200180831161282957829003601f168201915b50505050509080600301805461285b90613b43565b80601f016020809104026020016040519081016040528092919081815260200182805461288790613b43565b80156128d45780601f106128a9576101008083540402835291602001916128d4565b820191906000526020600020905b8154815290600101906020018083116128b757829003601f168201915b5050505050908060040180546128e990613b43565b80601f016020809104026020016040519081016040528092919081815260200182805461291590613b43565b80156129625780601f1061293757610100808354040283529160200191612962565b820191906000526020600020905b81548152906001019060200180831161294557829003601f168201915b50505050509080600501805461297790613b43565b80601f01602080910402602001604051908101604052809291908181526020018280546129a390613b43565b80156129f05780601f106129c5576101008083540402835291602001916129f0565b820191906000526020600020905b8154815290600101906020018083116129d357829003601f168201915b5050505050908060060160009054906101000a900460ff169080600701604051806040016040529081600082018054612a2890613b43565b80601f0160208091040260200160405190810160405280929190818152602001828054612a5490613b43565b8015612aa15780601f10612a7657610100808354040283529160200191612aa1565b820191906000526020600020905b815481529060010190602001808311612a8457829003601f168201915b50505050508152602001600182018054612aba90613b43565b80601f0160208091040260200160405190810160405280929190818152602001828054612ae690613b43565b8015612b335780601f10612b0857610100808354040283529160200191612b33565b820191906000526020600020905b815481529060010190602001808311612b1657829003601f168201915b505050505081525050905088565b81600b60008381526020019081526020016000208190555060006006600083815260200190815260200160002060405180608001604052908160008201548152602001600182018054612b9390613b43565b80601f0160208091040260200160405190810160405280929190818152602001828054612bbf90613b43565b8015612c0c5780601f10612be157610100808354040283529160200191612c0c565b820191906000526020600020905b815481529060010190602001808311612bef57829003601f168201915b50505050508152602001600282018054612c2590613b43565b80601f0160208091040260200160405190810160405280929190818152602001828054612c5190613b43565b8015612c9e5780601f10612c7357610100808354040283529160200191612c9e565b820191906000526020600020905b815481529060010190602001808311612c8157829003601f168201915b50505050508152602001600382018054612cb790613b43565b80601f0160208091040260200160405190810160405280929190818152602001828054612ce390613b43565b8015612d305780601f10612d0557610100808354040283529160200191612d30565b820191906000526020600020905b815481529060010190602001808311612d1357829003601f168201915b505050505081525050905080600c6000858152602001908152602001600020600082015181600001556020820151816001019080519060200190612d75929190612e9e565b506040820151816002019080519060200190612d92929190612e9e565b506060820151816003019080519060200190612daf929190612e9e565b50905050505050565b6001816000016000828254019250508190555050565b600081600001549050919050565b612e7281604051602401612df09190613735565b6040516020818303038152906040527f2c2ecbc2000000000000000000000000000000000000000000000000000000007bffffffffffffffffffffffffffffffffffffffffffffffffffffffff19166020820180517bffffffffffffffffffffffffffffffffffffffffffffffffffffffff8381831617835250505050612e75565b50565b60008151905060006a636f6e736f6c652e6c6f679050602083016000808483855afa5050505050565b828054612eaa90613b43565b90600052602060002090601f016020900481019282612ecc5760008555612f13565b82601f10612ee557805160ff1916838001178555612f13565b82800160010185558215612f13579182015b82811115612f12578251825591602001919060010190612ef7565b5b509050612f209190612fa7565b5090565b60405180610100016040528060008152602001600073ffffffffffffffffffffffffffffffffffffffff1681526020016060815260200160008152602001606081526020016060815260200160608152602001606081525090565b6040518060800160405280600081526020016060815260200160608152602001606081525090565b5b80821115612fc0576000816000905550600101612fa8565b5090565b6000612fd7612fd2846139e9565b6139c4565b905082815260208101848484011115612fef57600080fd5b612ffa848285613b01565b509392505050565b60008135905061301181613cdc565b92915050565b600082601f83011261302857600080fd5b8135613038848260208601612fc4565b91505092915050565b60008135905061305081613cf3565b92915050565b60006020828403121561306857600080fd5b600061307684828501613002565b91505092915050565b60008060006060848603121561309457600080fd5b600084013567ffffffffffffffff8111156130ae57600080fd5b6130ba86828701613017565b935050602084013567ffffffffffffffff8111156130d757600080fd5b6130e386828701613017565b925050604084013567ffffffffffffffff81111561310057600080fd5b61310c86828701613017565b9150509250925092565b600080600080600080600060e0888a03121561313157600080fd5b600088013567ffffffffffffffff81111561314b57600080fd5b6131578a828b01613017565b975050602088013567ffffffffffffffff81111561317457600080fd5b6131808a828b01613017565b965050604088013567ffffffffffffffff81111561319d57600080fd5b6131a98a828b01613017565b955050606088013567ffffffffffffffff8111156131c657600080fd5b6131d28a828b01613017565b945050608088013567ffffffffffffffff8111156131ef57600080fd5b6131fb8a828b01613017565b93505060a088013567ffffffffffffffff81111561321857600080fd5b6132248a828b01613017565b92505060c088013567ffffffffffffffff81111561324157600080fd5b61324d8a828b01613017565b91505092959891949750929550565b60008060008060008060c0878903121561327557600080fd5b600087013567ffffffffffffffff81111561328f57600080fd5b61329b89828a01613017565b965050602087013567ffffffffffffffff8111156132b857600080fd5b6132c489828a01613017565b955050604087013567ffffffffffffffff8111156132e157600080fd5b6132ed89828a01613017565b945050606087013567ffffffffffffffff81111561330a57600080fd5b61331689828a01613017565b935050608087013567ffffffffffffffff81111561333357600080fd5b61333f89828a01613017565b92505060a061335089828a01613041565b9150509295509295509295565b60006020828403121561336f57600080fd5b600061337d84828501613041565b91505092915050565b6000806040838503121561339957600080fd5b60006133a785828601613041565b92505060206133b885828601613041565b9150509250929050565b60006133ce83836135da565b905092915050565b60006133e283836136a6565b905092915050565b6133f381613ab9565b82525050565b61340281613ab9565b82525050565b600061341382613a3a565b61341d8185613a75565b93508360208202850161342f85613a1a565b8060005b8581101561346b578484038952815161344c85826133c2565b945061345783613a5b565b925060208a01995050600181019050613433565b50829750879550505050505092915050565b600061348882613a45565b6134928185613a86565b9350836020820285016134a485613a2a565b8060005b858110156134e057848403895281516134c185826133d6565b94506134cc83613a68565b925060208a019950506001810190506134a8565b50829750879550505050505092915050565b6134fb81613acb565b82525050565b600061350c82613a50565b6135168185613a97565b9350613526818560208601613b10565b61352f81613c7c565b840191505092915050565b600061354582613a50565b61354f8185613aa8565b935061355f818560208601613b10565b61356881613c7c565b840191505092915050565b6000613580602283613aa8565b915061358b82613c8d565b604082019050919050565b600060408301600083015184820360008601526135b38282613501565b915050602083015184820360208601526135cd8282613501565b9150508091505092915050565b6000610100830160008301516135f36000860182613717565b50602083015161360660208601826133ea565b506040830151848203604086015261361e8282613501565b91505060608301516136336060860182613717565b506080830151848203608086015261364b8282613501565b91505060a083015184820360a08601526136658282613501565b91505060c083015184820360c086015261367f8282613501565b91505060e083015184820360e08601526136998282613501565b9150508091505092915050565b60006080830160008301516136be6000860182613717565b50602083015184820360208601526136d68282613501565b915050604083015184820360408601526136f08282613501565b9150506060830151848203606086015261370a8282613501565b9150508091505092915050565b61372081613af7565b82525050565b61372f81613af7565b82525050565b600060208201905061374a60008301846133f9565b92915050565b6000602082019050818103600083015261376a8184613408565b905092915050565b6000602082019050818103600083015261378c818461347d565b905092915050565b60006020820190506137a960008301846134f2565b92915050565b600060208201905081810360008301526137c881613573565b9050919050565b60006020820190506137e46000830184613726565b92915050565b600061010082019050613800600083018b613726565b61380d602083018a6133f9565b818103604083015261381f818961353a565b905061382e6060830188613726565b8181036080830152613840818761353a565b905081810360a0830152613854818661353a565b905081810360c0830152613868818561353a565b905081810360e083015261387c818461353a565b90509998505050505050505050565b60006080820190506138a06000830187613726565b81810360208301526138b2818661353a565b905081810360408301526138c6818561353a565b905081810360608301526138da818461353a565b905095945050505050565b6000610100820190506138fb600083018b613726565b818103602083015261390d818a61353a565b90508181036040830152613921818961353a565b90508181036060830152613935818861353a565b90508181036080830152613949818761353a565b905081810360a083015261395d818661353a565b905061396c60c08301856134f2565b81810360e083015261397e8184613596565b90509998505050505050505050565b60006060820190506139a26000830186613726565b6139af6020830185613726565b6139bc6040830184613726565b949350505050565b60006139ce6139df565b90506139da8282613b75565b919050565b6000604051905090565b600067ffffffffffffffff821115613a0457613a03613c4d565b5b613a0d82613c7c565b9050602081019050919050565b6000819050602082019050919050565b6000819050602082019050919050565b600081519050919050565b600081519050919050565b600081519050919050565b6000602082019050919050565b6000602082019050919050565b600082825260208201905092915050565b600082825260208201905092915050565b600082825260208201905092915050565b600082825260208201905092915050565b6000613ac482613ad7565b9050919050565b60008115159050919050565b600073ffffffffffffffffffffffffffffffffffffffff82169050919050565b6000819050919050565b82818337600083830152505050565b60005b83811015613b2e578082015181840152602081019050613b13565b83811115613b3d576000848401525b50505050565b60006002820490506001821680613b5b57607f821691505b60208210811415613b6f57613b6e613c1e565b5b50919050565b613b7e82613c7c565b810181811067ffffffffffffffff82111715613b9d57613b9c613c4d565b5b80604052505050565b6000613bb182613af7565b91507fffffffffffffffffffffffffffffffffffffffffffffffffffffffffffffffff821415613be457613be3613bef565b5b600182019050919050565b7f4e487b7100000000000000000000000000000000000000000000000000000000600052601160045260246000fd5b7f4e487b7100000000000000000000000000000000000000000000000000000000600052602260045260246000fd5b7f4e487b7100000000000000000000000000000000000000000000000000000000600052604160045260246000fd5b6000601f19601f8301169050919050565b7f54686973204164647265737320697320616c726561647920526567697374657260008201527f6564000000000000000000000000000000000000000000000000000000000000602082015250565b613ce581613ab9565b8114613cf057600080fd5b50565b613cfc81613af7565b8114613d0757600080fd5b5056fea26469706673582212208ce08e875ab4685331bbe46477ee6d7729debb1839560b07c8ada3ab13084ed064736f6c63430008040033",
  "linkReferences": {},
  "deployedLinkReferences": {}
}