{
  "_format": "hh-sol-artifact-1",
  "contractName": "RideSharing",
  "sourceName": "contracts/Ridesharing.sol",
  "abi": [
    {
      "inputs": [
        {
          "internalType": "string",
          "name": "msg",
          "type": "string"
        }
      ],
      "name": "AlreadyRegistered",
      "type": "error"
    },
    {
      "inputs": [
        {
          "internalType": "string",
          "name": "msg",
          "type": "string"
        }
      ],
      "name": "lessThanFair",
      "type": "error"
    },
    {
      "inputs": [
        {
          "internalType": "string",
          "name": "msg",
          "type": "string"
        }
      ],
      "name": "ridenotCompleted",
      "type": "error"
    },
    {
      "anonymous": false,
      "inputs": [
        {
          "indexed": false,
          "internalType": "uint256",
          "name": "Type",
          "type": "uint256"
        },
        {
          "indexed": false,
          "internalType": "uint256",
          "name": "id",
          "type": "uint256"
        }
      ],
      "name": "UserType",
      "type": "event"
    },
    {
      "anonymous": false,
      "inputs": [
        {
          "indexed": false,
          "internalType": "uint256",
          "name": "driverId",
          "type": "uint256"
        },
        {
          "indexed": false,
          "internalType": "string",
          "name": "name",
          "type": "string"
        },
        {
          "indexed": false,
          "internalType": "string",
          "name": "nic",
          "type": "string"
        },
        {
          "indexed": false,
          "internalType": "string",
          "name": "regNum",
          "type": "string"
        }
      ],
      "name": "registeredDriver",
      "type": "event"
    },
    {
      "anonymous": false,
      "inputs": [
        {
          "indexed": false,
          "internalType": "uint256",
          "name": "RiderId",
          "type": "uint256"
        },
        {
          "indexed": false,
          "internalType": "string",
          "name": "name",
          "type": "string"
        },
        {
          "indexed": false,
          "internalType": "string",
          "name": "email",
          "type": "string"
        },
        {
          "indexed": false,
          "internalType": "string",
          "name": "cellno",
          "type": "string"
        }
      ],
      "name": "registeredRider",
      "type": "event"
    },
    {
      "inputs": [
        {
          "internalType": "uint256",
          "name": "",
          "type": "uint256"
        }
      ],
      "name": "RideIDTodriverId",
      "outputs": [
        {
          "internalType": "uint256",
          "name": "",
          "type": "uint256"
        }
      ],
      "stateMutability": "view",
      "type": "function"
    },
    {
      "inputs": [
        {
          "internalType": "address",
          "name": "",
          "type": "address"
        }
      ],
      "name": "addressToDriver",
      "outputs": [
        {
          "internalType": "uint256",
          "name": "Id",
          "type": "uint256"
        },
        {
          "internalType": "string",
          "name": "name",
          "type": "string"
        },
        {
          "internalType": "string",
          "name": "nic",
          "type": "string"
        },
        {
          "internalType": "string",
          "name": "email",
          "type": "string"
        },
        {
          "internalType": "string",
          "name": "cellno",
          "type": "string"
        },
        {
          "internalType": "string",
          "name": "LiscenceNo",
          "type": "string"
        },
        {
          "internalType": "bool",
          "name": "isRegistered",
          "type": "bool"
        },
        {
          "components": [
            {
              "internalType": "string",
              "name": "regNum",
              "type": "string"
            },
            {
              "internalType": "string",
              "name": "modelName",
              "type": "string"
            }
          ],
          "internalType": "struct RideSharing.Car",
          "name": "car",
          "type": "tuple"
        }
      ],
      "stateMutability": "view",
      "type": "function"
    },
    {
      "inputs": [
        {
          "internalType": "address",
          "name": "",
          "type": "address"
        }
      ],
      "name": "addressToRider",
      "outputs": [
        {
          "internalType": "uint256",
          "name": "Id",
          "type": "uint256"
        },
        {
          "internalType": "string",
          "name": "name",
          "type": "string"
        },
        {
          "internalType": "string",
          "name": "email",
          "type": "string"
        },
        {
          "internalType": "string",
          "name": "cellno",
          "type": "string"
        }
      ],
      "stateMutability": "view",
      "type": "function"
    },
    {
      "inputs": [
        {
          "internalType": "uint256",
          "name": "rideId",
          "type": "uint256"
        }
      ],
      "name": "completeRide",
      "outputs": [],
      "stateMutability": "nonpayable",
      "type": "function"
    },
    {
      "inputs": [
        {
          "internalType": "string",
          "name": "location",
          "type": "string"
        },
        {
          "internalType": "string",
          "name": "sourceLong",
          "type": "string"
        },
        {
          "internalType": "string",
          "name": "sourceLat",
          "type": "string"
        },
        {
          "internalType": "string",
          "name": "destLong",
          "type": "string"
        },
        {
          "internalType": "string",
          "name": "destLat",
          "type": "string"
        },
        {
          "internalType": "string",
          "name": "startTime",
          "type": "string"
        }
      ],
      "name": "createRide",
      "outputs": [],
      "stateMutability": "nonpayable",
      "type": "function"
    },
    {
      "inputs": [
        {
          "internalType": "address",
          "name": "",
          "type": "address"
        }
      ],
      "name": "driverIsRegistered",
      "outputs": [
        {
          "internalType": "bool",
          "name": "",
          "type": "bool"
        }
      ],
      "stateMutability": "view",
      "type": "function"
    },
    {
      "inputs": [],
      "name": "getAllRides",
      "outputs": [
        {
          "components": [
            {
              "internalType": "uint256",
              "name": "rideId",
              "type": "uint256"
            },
            {
              "internalType": "address payable",
              "name": "creator",
              "type": "address"
            },
            {
              "internalType": "string",
              "name": "StartTime",
              "type": "string"
            },
            {
              "internalType": "string",
              "name": "location",
              "type": "string"
            },
            {
              "internalType": "string",
              "name": "sourceLong",
              "type": "string"
            },
            {
              "internalType": "string",
              "name": "sourceLat",
              "type": "string"
            },
            {
              "internalType": "string",
              "name": "destLong",
              "type": "string"
            },
            {
              "internalType": "string",
              "name": "destLat",
              "type": "string"
            },
            {
              "internalType": "enum RideSharing.state",
              "name": "currState",
              "type": "uint8"
            },
            {
              "internalType": "bool",
              "name": "isPayed",
              "type": "bool"
            },
            {
              "internalType": "uint256",
              "name": "fair",
              "type": "uint256"
            }
          ],
          "internalType": "struct RideSharing.Ride[]",
          "name": "",
          "type": "tuple[]"
        }
      ],
      "stateMutability": "view",
      "type": "function"
    },
    {
      "inputs": [
        {
          "internalType": "address",
          "name": "_driver",
          "type": "address"
        }
      ],
      "name": "getDriverByAddress",
      "outputs": [
        {
          "internalType": "uint256",
          "name": "",
          "type": "uint256"
        }
      ],
      "stateMutability": "view",
      "type": "function"
    },
    {
      "inputs": [
        {
          "internalType": "uint256",
          "name": "DriverId",
          "type": "uint256"
        }
      ],
      "name": "getRidesByDriverId",
      "outputs": [
        {
          "components": [
            {
              "internalType": "uint256",
              "name": "rideId",
              "type": "uint256"
            },
            {
              "internalType": "address payable",
              "name": "creator",
              "type": "address"
            },
            {
              "internalType": "string",
              "name": "StartTime",
              "type": "string"
            },
            {
              "internalType": "string",
              "name": "location",
              "type": "string"
            },
            {
              "internalType": "string",
              "name": "sourceLong",
              "type": "string"
            },
            {
              "internalType": "string",
              "name": "sourceLat",
              "type": "string"
            },
            {
              "internalType": "string",
              "name": "destLong",
              "type": "string"
            },
            {
              "internalType": "string",
              "name": "destLat",
              "type": "string"
            },
            {
              "internalType": "enum RideSharing.state",
              "name": "currState",
              "type": "uint8"
            },
            {
              "internalType": "bool",
              "name": "isPayed",
              "type": "bool"
            },
            {
              "internalType": "uint256",
              "name": "fair",
              "type": "uint256"
            }
          ],
          "internalType": "struct RideSharing.Ride[]",
          "name": "",
          "type": "tuple[]"
        }
      ],
      "stateMutability": "view",
      "type": "function"
    },
    {
      "inputs": [
        {
          "internalType": "uint256",
          "name": "riderId",
          "type": "uint256"
        }
      ],
      "name": "getRidesByRiderId",
      "outputs": [
        {
          "components": [
            {
              "internalType": "uint256",
              "name": "rideId",
              "type": "uint256"
            },
            {
              "internalType": "address payable",
              "name": "creator",
              "type": "address"
            },
            {
              "internalType": "string",
              "name": "StartTime",
              "type": "string"
            },
            {
              "internalType": "string",
              "name": "location",
              "type": "string"
            },
            {
              "internalType": "string",
              "name": "sourceLong",
              "type": "string"
            },
            {
              "internalType": "string",
              "name": "sourceLat",
              "type": "string"
            },
            {
              "internalType": "string",
              "name": "destLong",
              "type": "string"
            },
            {
              "internalType": "string",
              "name": "destLat",
              "type": "string"
            },
            {
              "internalType": "enum RideSharing.state",
              "name": "currState",
              "type": "uint8"
            },
            {
              "internalType": "bool",
              "name": "isPayed",
              "type": "bool"
            },
            {
              "internalType": "uint256",
              "name": "fair",
              "type": "uint256"
            }
          ],
          "internalType": "struct RideSharing.Ride[]",
          "name": "",
          "type": "tuple[]"
        }
      ],
      "stateMutability": "view",
      "type": "function"
    },
    {
      "inputs": [
        {
          "internalType": "address",
          "name": "user",
          "type": "address"
        }
      ],
      "name": "getUserType",
      "outputs": [
        {
          "internalType": "uint256",
          "name": "",
          "type": "uint256"
        },
        {
          "internalType": "uint256",
          "name": "",
          "type": "uint256"
        },
        {
          "internalType": "uint256",
          "name": "",
          "type": "uint256"
        }
      ],
      "stateMutability": "view",
      "type": "function"
    },
    {
      "inputs": [
        {
          "internalType": "uint256",
          "name": "",
          "type": "uint256"
        }
      ],
      "name": "idToDriver",
      "outputs": [
        {
          "internalType": "uint256",
          "name": "Id",
          "type": "uint256"
        },
        {
          "internalType": "string",
          "name": "name",
          "type": "string"
        },
        {
          "internalType": "string",
          "name": "nic",
          "type": "string"
        },
        {
          "internalType": "string",
          "name": "email",
          "type": "string"
        },
        {
          "internalType": "string",
          "name": "cellno",
          "type": "string"
        },
        {
          "internalType": "string",
          "name": "LiscenceNo",
          "type": "string"
        },
        {
          "internalType": "bool",
          "name": "isRegistered",
          "type": "bool"
        },
        {
          "components": [
            {
              "internalType": "string",
              "name": "regNum",
              "type": "string"
            },
            {
              "internalType": "string",
              "name": "modelName",
              "type": "string"
            }
          ],
          "internalType": "struct RideSharing.Car",
          "name": "car",
          "type": "tuple"
        }
      ],
      "stateMutability": "view",
      "type": "function"
    },
    {
      "inputs": [
        {
          "internalType": "uint256",
          "name": "",
          "type": "uint256"
        }
      ],
      "name": "idToRide",
      "outputs": [
        {
          "internalType": "uint256",
          "name": "rideId",
          "type": "uint256"
        },
        {
          "internalType": "address payable",
          "name": "creator",
          "type": "address"
        },
        {
          "internalType": "string",
          "name": "StartTime",
          "type": "string"
        },
        {
          "internalType": "string",
          "name": "location",
          "type": "string"
        },
        {
          "internalType": "string",
          "name": "sourceLong",
          "type": "string"
        },
        {
          "internalType": "string",
          "name": "sourceLat",
          "type": "string"
        },
        {
          "internalType": "string",
          "name": "destLong",
          "type": "string"
        },
        {
          "internalType": "string",
          "name": "destLat",
          "type": "string"
        },
        {
          "internalType": "enum RideSharing.state",
          "name": "currState",
          "type": "uint8"
        },
        {
          "internalType": "bool",
          "name": "isPayed",
          "type": "bool"
        },
        {
          "internalType": "uint256",
          "name": "fair",
          "type": "uint256"
        }
      ],
      "stateMutability": "view",
      "type": "function"
    },
    {
      "inputs": [
        {
          "internalType": "uint256",
          "name": "",
          "type": "uint256"
        }
      ],
      "name": "idToRider",
      "outputs": [
        {
          "internalType": "uint256",
          "name": "Id",
          "type": "uint256"
        },
        {
          "internalType": "string",
          "name": "name",
          "type": "string"
        },
        {
          "internalType": "string",
          "name": "email",
          "type": "string"
        },
        {
          "internalType": "string",
          "name": "cellno",
          "type": "string"
        }
      ],
      "stateMutability": "view",
      "type": "function"
    },
    {
      "inputs": [
        {
          "internalType": "uint256",
          "name": "rideId",
          "type": "uint256"
        },
        {
          "internalType": "uint256",
          "name": "riderId",
          "type": "uint256"
        }
      ],
      "name": "joinRide",
      "outputs": [],
      "stateMutability": "nonpayable",
      "type": "function"
    },
    {
      "inputs": [
        {
          "internalType": "uint256",
          "name": "rideId",
          "type": "uint256"
        }
      ],
      "name": "payForRide",
      "outputs": [],
      "stateMutability": "payable",
      "type": "function"
    },
    {
      "inputs": [
        {
          "internalType": "string",
          "name": "_name",
          "type": "string"
        },
        {
          "internalType": "string",
          "name": "_nic",
          "type": "string"
        },
        {
          "internalType": "string",
          "name": "_email",
          "type": "string"
        },
        {
          "internalType": "string",
          "name": "_cellno",
          "type": "string"
        },
        {
          "internalType": "string",
          "name": "_regNum",
          "type": "string"
        },
        {
          "internalType": "string",
          "name": "_modelName",
          "type": "string"
        },
        {
          "internalType": "string",
          "name": "_LiscenceNo",
          "type": "string"
        }
      ],
      "name": "registerForDriver",
      "outputs": [],
      "stateMutability": "nonpayable",
      "type": "function"
    },
    {
      "inputs": [
        {
          "internalType": "string",
          "name": "_name",
          "type": "string"
        },
        {
          "internalType": "string",
          "name": "_email",
          "type": "string"
        },
        {
          "internalType": "string",
          "name": "_cellno",
          "type": "string"
        }
      ],
      "name": "registerForRider",
      "outputs": [],
      "stateMutability": "nonpayable",
      "type": "function"
    },
    {
      "inputs": [
        {
          "internalType": "uint256",
          "name": "",
          "type": "uint256"
        }
      ],
      "name": "riderIdtoride",
      "outputs": [
        {
          "internalType": "uint256",
          "name": "rideId",
          "type": "uint256"
        },
        {
          "internalType": "address payable",
          "name": "creator",
          "type": "address"
        },
        {
          "internalType": "string",
          "name": "StartTime",
          "type": "string"
        },
        {
          "internalType": "string",
          "name": "location",
          "type": "string"
        },
        {
          "internalType": "string",
          "name": "sourceLong",
          "type": "string"
        },
        {
          "internalType": "string",
          "name": "sourceLat",
          "type": "string"
        },
        {
          "internalType": "string",
          "name": "destLong",
          "type": "string"
        },
        {
          "internalType": "string",
          "name": "destLat",
          "type": "string"
        },
        {
          "internalType": "enum RideSharing.state",
          "name": "currState",
          "type": "uint8"
        },
        {
          "internalType": "bool",
          "name": "isPayed",
          "type": "bool"
        },
        {
          "internalType": "uint256",
          "name": "fair",
          "type": "uint256"
        }
      ],
      "stateMutability": "view",
      "type": "function"
    },
    {
      "inputs": [
        {
          "internalType": "uint256",
          "name": "",
          "type": "uint256"
        }
      ],
      "name": "riderIdtorideId",
      "outputs": [
        {
          "internalType": "uint256",
          "name": "",
          "type": "uint256"
        }
      ],
      "stateMutability": "view",
      "type": "function"
    },
    {
      "inputs": [
        {
          "internalType": "address",
          "name": "",
          "type": "address"
        }
      ],
      "name": "riderIsRegistered",
      "outputs": [
        {
          "internalType": "bool",
          "name": "",
          "type": "bool"
        }
      ],
      "stateMutability": "view",
      "type": "function"
    },
    {
      "inputs": [
        {
          "internalType": "uint256",
          "name": "rideId",
          "type": "uint256"
        },
        {
          "internalType": "uint256",
          "name": "fair",
          "type": "uint256"
        }
      ],
      "name": "setFair",
      "outputs": [],
      "stateMutability": "nonpayable",
      "type": "function"
    },
    {
      "inputs": [
        {
          "internalType": "uint256",
          "name": "rideId",
          "type": "uint256"
        }
      ],
      "name": "startRide",
      "outputs": [],
      "stateMutability": "nonpayable",
      "type": "function"
    }
  ],
  "bytecode": "0x608060405234801561001057600080fd5b50615e4f80620000216000396000f3fe6080604052600436106101405760003560e01c80639e473a47116100b6578063d7e78c611161006f578063d7e78c61146104d1578063e147d78714610518578063e656b57814610555578063e9c14b1e14610595578063ec7a5220146105be578063f2c5c2f11461060257610140565b80639e473a4714610384578063a9b6bbde146103c1578063ba1ac377146103fe578063bbe3803a14610427578063c092e39914610464578063c416dd0b146104a857610140565b80632acc07e0116101085780632acc07e014610244578063472b06c01461026d578063632c728e1461029657806366ec451c146102d3578063787660c31461031a5780638b3f863f1461034557610140565b806305c41e0e146101455780630c826fa1146101855780630df39bb1146101ae5780631840110a146101ca5780631a5378fa14610207575b600080fd5b34801561015157600080fd5b5061016c60048036038101906101679190615377565b61062b565b60405161017c94939291906158de565b60405180910390f35b34801561019157600080fd5b506101ac60048036038101906101a791906153a0565b6107f3565b005b6101c860048036038101906101c39190615377565b610818565b005b3480156101d657600080fd5b506101f160048036038101906101ec9190615377565b610e4e565b6040516101fe91906157ee565b60405180910390f35b34801561021357600080fd5b5061022e60048036038101906102299190615377565b610e66565b60405161023b9190615731565b60405180910390f35b34801561025057600080fd5b5061026b60048036038101906102669190615118565b611470565b005b34801561027957600080fd5b50610294600480360381019061028f9190615081565b6118ea565b005b3480156102a257600080fd5b506102bd60048036038101906102b89190615377565b611b73565b6040516102ca9190615731565b60405180910390f35b3480156102df57600080fd5b506102fa60048036038101906102f59190615377565b61217d565b6040516103119b9a99989796959493929190615809565b60405180910390f35b34801561032657600080fd5b5061032f612541565b60405161033c9190615731565b60405180910390f35b34801561035157600080fd5b5061036c60048036038101906103679190615058565b612ae7565b60405161037b939291906159e0565b60405180910390f35b34801561039057600080fd5b506103ab60048036038101906103a69190615058565b613229565b6040516103b89190615753565b60405180910390f35b3480156103cd57600080fd5b506103e860048036038101906103e39190615058565b613249565b6040516103f591906157ee565b60405180910390f35b34801561040a57600080fd5b5061042560048036038101906104209190615231565b61329a565b005b34801561043357600080fd5b5061044e60048036038101906104499190615377565b61369b565b60405161045b91906157ee565b60405180910390f35b34801561047057600080fd5b5061048b60048036038101906104869190615058565b6136b3565b60405161049f989796959493929190615938565b60405180910390f35b3480156104b457600080fd5b506104cf60048036038101906104ca9190615377565b613ade565b005b3480156104dd57600080fd5b506104f860048036038101906104f39190615377565b613b4c565b60405161050f9b9a99989796959493929190615809565b60405180910390f35b34801561052457600080fd5b5061053f600480360381019061053a9190615058565b613f10565b60405161054c9190615753565b60405180910390f35b34801561056157600080fd5b5061057c60048036038101906105779190615058565b613f30565b60405161058c94939291906158de565b60405180910390f35b3480156105a157600080fd5b506105bc60048036038101906105b79190615377565b6140f8565b005b3480156105ca57600080fd5b506105e560048036038101906105e09190615377565b614166565b6040516105f9989796959493929190615938565b60405180910390f35b34801561060e57600080fd5b50610629600480360381019061062491906153a0565b614591565b005b600660205280600052604060002060009150905080600001549080600101805461065490615b94565b80601f016020809104026020016040519081016040528092919081815260200182805461068090615b94565b80156106cd5780601f106106a2576101008083540402835291602001916106cd565b820191906000526020600020905b8154815290600101906020018083116106b057829003601f168201915b5050505050908060020180546106e290615b94565b80601f016020809104026020016040519081016040528092919081815260200182805461070e90615b94565b801561075b5780601f106107305761010080835404028352916020019161075b565b820191906000526020600020905b81548152906001019060200180831161073e57829003601f168201915b50505050509080600301805461077090615b94565b80601f016020809104026020016040519081016040528092919081815260200182805461079c90615b94565b80156107e95780601f106107be576101008083540402835291602001916107e9565b820191906000526020600020905b8154815290600101906020018083116107cc57829003601f168201915b5050505050905084565b6000600a60008481526020019081526020016000209050818160090181905550505050565b6000600a600083815260200190815260200160002060405180610160016040529081600082015481526020016001820160009054906101000a900473ffffffffffffffffffffffffffffffffffffffff1673ffffffffffffffffffffffffffffffffffffffff1673ffffffffffffffffffffffffffffffffffffffff1681526020016002820180546108a990615b94565b80601f01602080910402602001604051908101604052809291908181526020018280546108d590615b94565b80156109225780601f106108f757610100808354040283529160200191610922565b820191906000526020600020905b81548152906001019060200180831161090557829003601f168201915b5050505050815260200160038201805461093b90615b94565b80601f016020809104026020016040519081016040528092919081815260200182805461096790615b94565b80156109b45780601f10610989576101008083540402835291602001916109b4565b820191906000526020600020905b81548152906001019060200180831161099757829003601f168201915b505050505081526020016004820180546109cd90615b94565b80601f01602080910402602001604051908101604052809291908181526020018280546109f990615b94565b8015610a465780601f10610a1b57610100808354040283529160200191610a46565b820191906000526020600020905b815481529060010190602001808311610a2957829003601f168201915b50505050508152602001600582018054610a5f90615b94565b80601f0160208091040260200160405190810160405280929190818152602001828054610a8b90615b94565b8015610ad85780601f10610aad57610100808354040283529160200191610ad8565b820191906000526020600020905b815481529060010190602001808311610abb57829003601f168201915b50505050508152602001600682018054610af190615b94565b80601f0160208091040260200160405190810160405280929190818152602001828054610b1d90615b94565b8015610b6a5780601f10610b3f57610100808354040283529160200191610b6a565b820191906000526020600020905b815481529060010190602001808311610b4d57829003601f168201915b50505050508152602001600782018054610b8390615b94565b80601f0160208091040260200160405190810160405280929190818152602001828054610baf90615b94565b8015610bfc5780601f10610bd157610100808354040283529160200191610bfc565b820191906000526020600020905b815481529060010190602001808311610bdf57829003601f168201915b505050505081526020016008820160009054906101000a900460ff166002811115610c50577f4e487b7100000000000000000000000000000000000000000000000000000000600052602160045260246000fd5b6002811115610c88577f4e487b7100000000000000000000000000000000000000000000000000000000600052602160045260246000fd5b81526020016008820160019054906101000a900460ff16151515158152602001600982015481525050905060016002811115610ced577f4e487b7100000000000000000000000000000000000000000000000000000000600052602160045260246000fd5b8161010001516002811115610d2b577f4e487b7100000000000000000000000000000000000000000000000000000000600052602160045260246000fd5b1415610d6c576040517f56f5dc62000000000000000000000000000000000000000000000000000000008152600401610d639061576e565b60405180910390fd5b600081602001519050816101400151341015610dbd576040517fb399a5e0000000000000000000000000000000000000000000000000000000008152600401610db4906157ce565b60405180910390fd5b60008173ffffffffffffffffffffffffffffffffffffffff166108fc349081150290604051600060405180830381858888f19350505050905080610e36576040517f08c379a0000000000000000000000000000000000000000000000000000000008152600401610e2d9061578e565b60405180910390fd5b60018361012001901515908115158152505050505050565b600b6020528060005260406000206000915090505481565b60606000806000600190505b610e7c6001614e55565b8111610ebf578460096000838152602001908152602001600020541415610eac578280610ea890615bf7565b9350505b8080610eb790615bf7565b915050610e72565b5060008267ffffffffffffffff811115610f02577f4e487b7100000000000000000000000000000000000000000000000000000000600052604160045260246000fd5b604051908082528060200260200182016040528015610f3b57816020015b610f28614e79565b815260200190600190039081610f205790505b5090506000600190505b83811161146457856009600083815260200190815260200160002054141561145157600e600087815260200190815260200160002060405180610160016040529081600082015481526020016001820160009054906101000a900473ffffffffffffffffffffffffffffffffffffffff1673ffffffffffffffffffffffffffffffffffffffff1673ffffffffffffffffffffffffffffffffffffffff168152602001600282018054610ff690615b94565b80601f016020809104026020016040519081016040528092919081815260200182805461102290615b94565b801561106f5780601f106110445761010080835404028352916020019161106f565b820191906000526020600020905b81548152906001019060200180831161105257829003601f168201915b5050505050815260200160038201805461108890615b94565b80601f01602080910402602001604051908101604052809291908181526020018280546110b490615b94565b80156111015780601f106110d657610100808354040283529160200191611101565b820191906000526020600020905b8154815290600101906020018083116110e457829003601f168201915b5050505050815260200160048201805461111a90615b94565b80601f016020809104026020016040519081016040528092919081815260200182805461114690615b94565b80156111935780601f1061116857610100808354040283529160200191611193565b820191906000526020600020905b81548152906001019060200180831161117657829003601f168201915b505050505081526020016005820180546111ac90615b94565b80601f01602080910402602001604051908101604052809291908181526020018280546111d890615b94565b80156112255780601f106111fa57610100808354040283529160200191611225565b820191906000526020600020905b81548152906001019060200180831161120857829003601f168201915b5050505050815260200160068201805461123e90615b94565b80601f016020809104026020016040519081016040528092919081815260200182805461126a90615b94565b80156112b75780601f1061128c576101008083540402835291602001916112b7565b820191906000526020600020905b81548152906001019060200180831161129a57829003601f168201915b505050505081526020016007820180546112d090615b94565b80601f01602080910402602001604051908101604052809291908181526020018280546112fc90615b94565b80156113495780601f1061131e57610100808354040283529160200191611349565b820191906000526020600020905b81548152906001019060200180831161132c57829003601f168201915b505050505081526020016008820160009054906101000a900460ff16600281111561139d577f4e487b7100000000000000000000000000000000000000000000000000000000600052602160045260246000fd5b60028111156113d5577f4e487b7100000000000000000000000000000000000000000000000000000000600052602160045260246000fd5b81526020016008820160019054906101000a900460ff16151515158152602001600982015481525050828481518110611437577f4e487b7100000000000000000000000000000000000000000000000000000000600052603260045260246000fd5b6020026020010181905250828061144d90615bf7565b9350505b808061145c90615bf7565b915050610f45565b50809350505050919050565b60011515600360003373ffffffffffffffffffffffffffffffffffffffff1673ffffffffffffffffffffffffffffffffffffffff16815260200190815260200160002060009054906101000a900460ff161515146114cd57600080fd5b60006114d833613249565b90506114e46001614e63565b60006114f06001614e55565b905060006040518061016001604052808381526020013373ffffffffffffffffffffffffffffffffffffffff1681526020018581526020018a815260200189815260200188815260200187815260200186815260200160006002811115611580577f4e487b7100000000000000000000000000000000000000000000000000000000600052602160045260246000fd5b81526020016000151581526020016000815250905080600a60008481526020019081526020016000206000820151816000015560208201518160010160006101000a81548173ffffffffffffffffffffffffffffffffffffffff021916908373ffffffffffffffffffffffffffffffffffffffff1602179055506040820151816002019080519060200190611616929190614f23565b506060820151816003019080519060200190611633929190614f23565b506080820151816004019080519060200190611650929190614f23565b5060a082015181600501908051906020019061166d929190614f23565b5060c082015181600601908051906020019061168a929190614f23565b5060e08201518160070190805190602001906116a7929190614f23565b506101008201518160080160006101000a81548160ff021916908360028111156116fa577f4e487b7100000000000000000000000000000000000000000000000000000000600052602160045260246000fd5b02179055506101208201518160080160016101000a81548160ff021916908315150217905550610140820151816009015590505082600960008481526020019081526020016000208190555080600e60008581526020019081526020016000206000820151816000015560208201518160010160006101000a81548173ffffffffffffffffffffffffffffffffffffffff021916908373ffffffffffffffffffffffffffffffffffffffff16021790555060408201518160020190805190602001906117c7929190614f23565b5060608201518160030190805190602001906117e4929190614f23565b506080820151816004019080519060200190611801929190614f23565b5060a082015181600501908051906020019061181e929190614f23565b5060c082015181600601908051906020019061183b929190614f23565b5060e0820151816007019080519060200190611858929190614f23565b506101008201518160080160006101000a81548160ff021916908360028111156118ab577f4e487b7100000000000000000000000000000000000000000000000000000000600052602160045260246000fd5b02179055506101208201518160080160016101000a81548160ff0219169083151502179055506101408201518160090155905050505050505050505050565b60011515600460003373ffffffffffffffffffffffffffffffffffffffff1673ffffffffffffffffffffffffffffffffffffffff16815260200190815260200160002060009054906101000a900460ff161515141561197e576040517f0a7a3d7c000000000000000000000000000000000000000000000000000000008152600401611975906157ae565b60405180910390fd5b6119886002614e63565b60006119946002614e55565b9050600060405180608001604052808381526020018681526020018581526020018481525090506001600460003373ffffffffffffffffffffffffffffffffffffffff1673ffffffffffffffffffffffffffffffffffffffff16815260200190815260200160002060006101000a81548160ff0219169083151502179055508060066000848152602001908152602001600020600082015181600001556020820151816001019080519060200190611a4d929190614f23565b506040820151816002019080519060200190611a6a929190614f23565b506060820151816003019080519060200190611a87929190614f23565b5090505080600860003373ffffffffffffffffffffffffffffffffffffffff1673ffffffffffffffffffffffffffffffffffffffff168152602001908152602001600020600082015181600001556020820151816001019080519060200190611af1929190614f23565b506040820151816002019080519060200190611b0e929190614f23565b506060820151816003019080519060200190611b2b929190614f23565b509050507f22e9c31ba948c6fb17673cf7d4f73d44f2090424bd885b5c4adb3b24b00ba0fe82868686604051611b6494939291906158de565b60405180910390a15050505050565b60606000806000600190505b611b896001614e55565b8111611bcc5784600f6000838152602001908152602001600020541415611bb9578280611bb590615bf7565b9350505b8080611bc490615bf7565b915050611b7f565b5060008267ffffffffffffffff811115611c0f577f4e487b7100000000000000000000000000000000000000000000000000000000600052604160045260246000fd5b604051908082528060200260200182016040528015611c4857816020015b611c35614e79565b815260200190600190039081611c2d5790505b5090506000600190505b8381116121715785600f600083815260200190815260200160002054141561215e57600c600082815260200190815260200160002060405180610160016040529081600082015481526020016001820160009054906101000a900473ffffffffffffffffffffffffffffffffffffffff1673ffffffffffffffffffffffffffffffffffffffff1673ffffffffffffffffffffffffffffffffffffffff168152602001600282018054611d0390615b94565b80601f0160208091040260200160405190810160405280929190818152602001828054611d2f90615b94565b8015611d7c5780601f10611d5157610100808354040283529160200191611d7c565b820191906000526020600020905b815481529060010190602001808311611d5f57829003601f168201915b50505050508152602001600382018054611d9590615b94565b80601f0160208091040260200160405190810160405280929190818152602001828054611dc190615b94565b8015611e0e5780601f10611de357610100808354040283529160200191611e0e565b820191906000526020600020905b815481529060010190602001808311611df157829003601f168201915b50505050508152602001600482018054611e2790615b94565b80601f0160208091040260200160405190810160405280929190818152602001828054611e5390615b94565b8015611ea05780601f10611e7557610100808354040283529160200191611ea0565b820191906000526020600020905b815481529060010190602001808311611e8357829003601f168201915b50505050508152602001600582018054611eb990615b94565b80601f0160208091040260200160405190810160405280929190818152602001828054611ee590615b94565b8015611f325780601f10611f0757610100808354040283529160200191611f32565b820191906000526020600020905b815481529060010190602001808311611f1557829003601f168201915b50505050508152602001600682018054611f4b90615b94565b80601f0160208091040260200160405190810160405280929190818152602001828054611f7790615b94565b8015611fc45780601f10611f9957610100808354040283529160200191611fc4565b820191906000526020600020905b815481529060010190602001808311611fa757829003601f168201915b50505050508152602001600782018054611fdd90615b94565b80601f016020809104026020016040519081016040528092919081815260200182805461200990615b94565b80156120565780601f1061202b57610100808354040283529160200191612056565b820191906000526020600020905b81548152906001019060200180831161203957829003601f168201915b505050505081526020016008820160009054906101000a900460ff1660028111156120aa577f4e487b7100000000000000000000000000000000000000000000000000000000600052602160045260246000fd5b60028111156120e2577f4e487b7100000000000000000000000000000000000000000000000000000000600052602160045260246000fd5b81526020016008820160019054906101000a900460ff16151515158152602001600982015481525050828481518110612144577f4e487b7100000000000000000000000000000000000000000000000000000000600052603260045260246000fd5b6020026020010181905250828061215a90615bf7565b9350505b808061216990615bf7565b915050611c52565b50809350505050919050565b600a6020528060005260406000206000915090508060000154908060010160009054906101000a900473ffffffffffffffffffffffffffffffffffffffff16908060020180546121cc90615b94565b80601f01602080910402602001604051908101604052809291908181526020018280546121f890615b94565b80156122455780601f1061221a57610100808354040283529160200191612245565b820191906000526020600020905b81548152906001019060200180831161222857829003601f168201915b50505050509080600301805461225a90615b94565b80601f016020809104026020016040519081016040528092919081815260200182805461228690615b94565b80156122d35780601f106122a8576101008083540402835291602001916122d3565b820191906000526020600020905b8154815290600101906020018083116122b657829003601f168201915b5050505050908060040180546122e890615b94565b80601f016020809104026020016040519081016040528092919081815260200182805461231490615b94565b80156123615780601f1061233657610100808354040283529160200191612361565b820191906000526020600020905b81548152906001019060200180831161234457829003601f168201915b50505050509080600501805461237690615b94565b80601f01602080910402602001604051908101604052809291908181526020018280546123a290615b94565b80156123ef5780601f106123c4576101008083540402835291602001916123ef565b820191906000526020600020905b8154815290600101906020018083116123d257829003601f168201915b50505050509080600601805461240490615b94565b80601f016020809104026020016040519081016040528092919081815260200182805461243090615b94565b801561247d5780601f106124525761010080835404028352916020019161247d565b820191906000526020600020905b81548152906001019060200180831161246057829003601f168201915b50505050509080600701805461249290615b94565b80601f01602080910402602001604051908101604052809291908181526020018280546124be90615b94565b801561250b5780601f106124e05761010080835404028352916020019161250b565b820191906000526020600020905b8154815290600101906020018083116124ee57829003601f168201915b5050505050908060080160009054906101000a900460ff16908060080160019054906101000a900460ff1690806009015490508b565b60606000806125506001614e55565b67ffffffffffffffff81111561258f577f4e487b7100000000000000000000000000000000000000000000000000000000600052604160045260246000fd5b6040519080825280602002602001820160405280156125c857816020015b6125b5614e79565b8152602001906001900390816125ad5790505b5090506000600190505b6125dc6001614e55565b8111612ade57600a600082815260200190815260200160002060405180610160016040529081600082015481526020016001820160009054906101000a900473ffffffffffffffffffffffffffffffffffffffff1673ffffffffffffffffffffffffffffffffffffffff1673ffffffffffffffffffffffffffffffffffffffff16815260200160028201805461267190615b94565b80601f016020809104026020016040519081016040528092919081815260200182805461269d90615b94565b80156126ea5780601f106126bf576101008083540402835291602001916126ea565b820191906000526020600020905b8154815290600101906020018083116126cd57829003601f168201915b5050505050815260200160038201805461270390615b94565b80601f016020809104026020016040519081016040528092919081815260200182805461272f90615b94565b801561277c5780601f106127515761010080835404028352916020019161277c565b820191906000526020600020905b81548152906001019060200180831161275f57829003601f168201915b5050505050815260200160048201805461279590615b94565b80601f01602080910402602001604051908101604052809291908181526020018280546127c190615b94565b801561280e5780601f106127e35761010080835404028352916020019161280e565b820191906000526020600020905b8154815290600101906020018083116127f157829003601f168201915b5050505050815260200160058201805461282790615b94565b80601f016020809104026020016040519081016040528092919081815260200182805461285390615b94565b80156128a05780601f10612875576101008083540402835291602001916128a0565b820191906000526020600020905b81548152906001019060200180831161288357829003601f168201915b505050505081526020016006820180546128b990615b94565b80601f01602080910402602001604051908101604052809291908181526020018280546128e590615b94565b80156129325780601f1061290757610100808354040283529160200191612932565b820191906000526020600020905b81548152906001019060200180831161291557829003601f168201915b5050505050815260200160078201805461294b90615b94565b80601f016020809104026020016040519081016040528092919081815260200182805461297790615b94565b80156129c45780601f10612999576101008083540402835291602001916129c4565b820191906000526020600020905b8154815290600101906020018083116129a757829003601f168201915b505050505081526020016008820160009054906101000a900460ff166002811115612a18577f4e487b7100000000000000000000000000000000000000000000000000000000600052602160045260246000fd5b6002811115612a50577f4e487b7100000000000000000000000000000000000000000000000000000000600052602160045260246000fd5b81526020016008820160019054906101000a900460ff16151515158152602001600982015481525050828481518110612ab2577f4e487b7100000000000000000000000000000000000000000000000000000000600052603260045260246000fd5b60200260200101819052508280612ac890615bf7565b9350508080612ad690615bf7565b9150506125d2565b50809250505090565b6000806000806000806000600860008973ffffffffffffffffffffffffffffffffffffffff1673ffffffffffffffffffffffffffffffffffffffff16815260200190815260200160002060405180608001604052908160008201548152602001600182018054612b5690615b94565b80601f0160208091040260200160405190810160405280929190818152602001828054612b8290615b94565b8015612bcf5780601f10612ba457610100808354040283529160200191612bcf565b820191906000526020600020905b815481529060010190602001808311612bb257829003601f168201915b50505050508152602001600282018054612be890615b94565b80601f0160208091040260200160405190810160405280929190818152602001828054612c1490615b94565b8015612c615780601f10612c3657610100808354040283529160200191612c61565b820191906000526020600020905b815481529060010190602001808311612c4457829003601f168201915b50505050508152602001600382018054612c7a90615b94565b80601f0160208091040260200160405190810160405280929190818152602001828054612ca690615b94565b8015612cf35780601f10612cc857610100808354040283529160200191612cf3565b820191906000526020600020905b815481529060010190602001808311612cd657829003601f168201915b50505050508152505090506000600760008a73ffffffffffffffffffffffffffffffffffffffff1673ffffffffffffffffffffffffffffffffffffffff1681526020019081526020016000206040518061010001604052908160008201548152602001600182018054612d6590615b94565b80601f0160208091040260200160405190810160405280929190818152602001828054612d9190615b94565b8015612dde5780601f10612db357610100808354040283529160200191612dde565b820191906000526020600020905b815481529060010190602001808311612dc157829003601f168201915b50505050508152602001600282018054612df790615b94565b80601f0160208091040260200160405190810160405280929190818152602001828054612e2390615b94565b8015612e705780601f10612e4557610100808354040283529160200191612e70565b820191906000526020600020905b815481529060010190602001808311612e5357829003601f168201915b50505050508152602001600382018054612e8990615b94565b80601f0160208091040260200160405190810160405280929190818152602001828054612eb590615b94565b8015612f025780601f10612ed757610100808354040283529160200191612f02565b820191906000526020600020905b815481529060010190602001808311612ee557829003601f168201915b50505050508152602001600482018054612f1b90615b94565b80601f0160208091040260200160405190810160405280929190818152602001828054612f4790615b94565b8015612f945780601f10612f6957610100808354040283529160200191612f94565b820191906000526020600020905b815481529060010190602001808311612f7757829003601f168201915b50505050508152602001600582018054612fad90615b94565b80601f0160208091040260200160405190810160405280929190818152602001828054612fd990615b94565b80156130265780601f10612ffb57610100808354040283529160200191613026565b820191906000526020600020905b81548152906001019060200180831161300957829003601f168201915b505050505081526020016006820160009054906101000a900460ff161515151581526020016007820160405180604001604052908160008201805461306a90615b94565b80601f016020809104026020016040519081016040528092919081815260200182805461309690615b94565b80156130e35780601f106130b8576101008083540402835291602001916130e3565b820191906000526020600020905b8154815290600101906020018083116130c657829003601f168201915b505050505081526020016001820180546130fc90615b94565b80601f016020809104026020016040519081016040528092919081815260200182805461312890615b94565b80156131755780601f1061314a57610100808354040283529160200191613175565b820191906000526020600020905b81548152906001019060200180831161315857829003601f168201915b5050505050815250508152505090506000826000015114801561319d57506000816000015114155b156131b2576001945080600001519250613214565b60008260000151141580156131cb575060008160000151145b156131e0576002945081600001519350613213565b60008260000151141580156131fa57506000816000015114155b15613212576003945080600001519250816000015193505b5b5b84848497509750975050505050509193909250565b60036020528060005260406000206000915054906101000a900460ff1681565b600080600760008473ffffffffffffffffffffffffffffffffffffffff1673ffffffffffffffffffffffffffffffffffffffff16815260200190815260200160002090508060000154915050919050565b60011515600360003373ffffffffffffffffffffffffffffffffffffffff1673ffffffffffffffffffffffffffffffffffffffff16815260200190815260200160002060009054906101000a900460ff161515141561332e576040517f0a7a3d7c000000000000000000000000000000000000000000000000000000008152600401613325906157ae565b60405180910390fd5b600060405180604001604052808581526020018481525090506133516000614e63565b600061335d6000614e55565b905060006040518061010001604052808381526020018b81526020018a81526020018981526020018881526020018581526020016001151581526020018481525090506001600360003373ffffffffffffffffffffffffffffffffffffffff1673ffffffffffffffffffffffffffffffffffffffff16815260200190815260200160002060006101000a81548160ff0219169083151502179055508060056000848152602001908152602001600020600082015181600001556020820151816001019080519060200190613432929190614f23565b50604082015181600201908051906020019061344f929190614f23565b50606082015181600301908051906020019061346c929190614f23565b506080820151816004019080519060200190613489929190614f23565b5060a08201518160050190805190602001906134a6929190614f23565b5060c08201518160060160006101000a81548160ff02191690831515021790555060e08201518160070160008201518160000190805190602001906134ec929190614f23565b506020820151816001019080519060200190613509929190614f23565b50505090505080600760003373ffffffffffffffffffffffffffffffffffffffff1673ffffffffffffffffffffffffffffffffffffffff168152602001908152602001600020600082015181600001556020820151816001019080519060200190613575929190614f23565b506040820151816002019080519060200190613592929190614f23565b5060608201518160030190805190602001906135af929190614f23565b5060808201518160040190805190602001906135cc929190614f23565b5060a08201518160050190805190602001906135e9929190614f23565b5060c08201518160060160006101000a81548160ff02191690831515021790555060e082015181600701600082015181600001908051906020019061362f929190614f23565b50602082015181600101908051906020019061364c929190614f23565b5050509050507f3de04171a543da1b7f9e1fabae52c6c8f0ab266b234a95ede56668caebce1bec828b8b8960405161368794939291906158de565b60405180910390a150505050505050505050565b60096020528060005260406000206000915090505481565b60076020528060005260406000206000915090508060000154908060010180546136dc90615b94565b80601f016020809104026020016040519081016040528092919081815260200182805461370890615b94565b80156137555780601f1061372a57610100808354040283529160200191613755565b820191906000526020600020905b81548152906001019060200180831161373857829003601f168201915b50505050509080600201805461376a90615b94565b80601f016020809104026020016040519081016040528092919081815260200182805461379690615b94565b80156137e35780601f106137b8576101008083540402835291602001916137e3565b820191906000526020600020905b8154815290600101906020018083116137c657829003601f168201915b5050505050908060030180546137f890615b94565b80601f016020809104026020016040519081016040528092919081815260200182805461382490615b94565b80156138715780601f1061384657610100808354040283529160200191613871565b820191906000526020600020905b81548152906001019060200180831161385457829003601f168201915b50505050509080600401805461388690615b94565b80601f01602080910402602001604051908101604052809291908181526020018280546138b290615b94565b80156138ff5780601f106138d4576101008083540402835291602001916138ff565b820191906000526020600020905b8154815290600101906020018083116138e257829003601f168201915b50505050509080600501805461391490615b94565b80601f016020809104026020016040519081016040528092919081815260200182805461394090615b94565b801561398d5780601f106139625761010080835404028352916020019161398d565b820191906000526020600020905b81548152906001019060200180831161397057829003601f168201915b5050505050908060060160009054906101000a900460ff1690806007016040518060400160405290816000820180546139c590615b94565b80601f01602080910402602001604051908101604052809291908181526020018280546139f190615b94565b8015613a3e5780601f10613a1357610100808354040283529160200191613a3e565b820191906000526020600020905b815481529060010190602001808311613a2157829003601f168201915b50505050508152602001600182018054613a5790615b94565b80601f0160208091040260200160405190810160405280929190818152602001828054613a8390615b94565b8015613ad05780601f10613aa557610100808354040283529160200191613ad0565b820191906000526020600020905b815481529060010190602001808311613ab357829003601f168201915b505050505081525050905088565b6000600a6000838152602001908152602001600020905060028160080160006101000a81548160ff02191690836002811115613b43577f4e487b7100000000000000000000000000000000000000000000000000000000600052602160045260246000fd5b02179055505050565b600c6020528060005260406000206000915090508060000154908060010160009054906101000a900473ffffffffffffffffffffffffffffffffffffffff1690806002018054613b9b90615b94565b80601f0160208091040260200160405190810160405280929190818152602001828054613bc790615b94565b8015613c145780601f10613be957610100808354040283529160200191613c14565b820191906000526020600020905b815481529060010190602001808311613bf757829003601f168201915b505050505090806003018054613c2990615b94565b80601f0160208091040260200160405190810160405280929190818152602001828054613c5590615b94565b8015613ca25780601f10613c7757610100808354040283529160200191613ca2565b820191906000526020600020905b815481529060010190602001808311613c8557829003601f168201915b505050505090806004018054613cb790615b94565b80601f0160208091040260200160405190810160405280929190818152602001828054613ce390615b94565b8015613d305780601f10613d0557610100808354040283529160200191613d30565b820191906000526020600020905b815481529060010190602001808311613d1357829003601f168201915b505050505090806005018054613d4590615b94565b80601f0160208091040260200160405190810160405280929190818152602001828054613d7190615b94565b8015613dbe5780601f10613d9357610100808354040283529160200191613dbe565b820191906000526020600020905b815481529060010190602001808311613da157829003601f168201915b505050505090806006018054613dd390615b94565b80601f0160208091040260200160405190810160405280929190818152602001828054613dff90615b94565b8015613e4c5780601f10613e2157610100808354040283529160200191613e4c565b820191906000526020600020905b815481529060010190602001808311613e2f57829003601f168201915b505050505090806007018054613e6190615b94565b80601f0160208091040260200160405190810160405280929190818152602001828054613e8d90615b94565b8015613eda5780601f10613eaf57610100808354040283529160200191613eda565b820191906000526020600020905b815481529060010190602001808311613ebd57829003601f168201915b5050505050908060080160009054906101000a900460ff16908060080160019054906101000a900460ff1690806009015490508b565b60046020528060005260406000206000915054906101000a900460ff1681565b6008602052806000526040600020600091509050806000015490806001018054613f5990615b94565b80601f0160208091040260200160405190810160405280929190818152602001828054613f8590615b94565b8015613fd25780601f10613fa757610100808354040283529160200191613fd2565b820191906000526020600020905b815481529060010190602001808311613fb557829003601f168201915b505050505090806002018054613fe790615b94565b80601f016020809104026020016040519081016040528092919081815260200182805461401390615b94565b80156140605780601f1061403557610100808354040283529160200191614060565b820191906000526020600020905b81548152906001019060200180831161404357829003601f168201915b50505050509080600301805461407590615b94565b80601f01602080910402602001604051908101604052809291908181526020018280546140a190615b94565b80156140ee5780601f106140c3576101008083540402835291602001916140ee565b820191906000526020600020905b8154815290600101906020018083116140d157829003601f168201915b5050505050905084565b6000600a6000838152602001908152602001600020905060028160080160006101000a81548160ff0219169083600281111561415d577f4e487b7100000000000000000000000000000000000000000000000000000000600052602160045260246000fd5b02179055505050565b600560205280600052604060002060009150905080600001549080600101805461418f90615b94565b80601f01602080910402602001604051908101604052809291908181526020018280546141bb90615b94565b80156142085780601f106141dd57610100808354040283529160200191614208565b820191906000526020600020905b8154815290600101906020018083116141eb57829003601f168201915b50505050509080600201805461421d90615b94565b80601f016020809104026020016040519081016040528092919081815260200182805461424990615b94565b80156142965780601f1061426b57610100808354040283529160200191614296565b820191906000526020600020905b81548152906001019060200180831161427957829003601f168201915b5050505050908060030180546142ab90615b94565b80601f01602080910402602001604051908101604052809291908181526020018280546142d790615b94565b80156143245780601f106142f957610100808354040283529160200191614324565b820191906000526020600020905b81548152906001019060200180831161430757829003601f168201915b50505050509080600401805461433990615b94565b80601f016020809104026020016040519081016040528092919081815260200182805461436590615b94565b80156143b25780601f10614387576101008083540402835291602001916143b2565b820191906000526020600020905b81548152906001019060200180831161439557829003601f168201915b5050505050908060050180546143c790615b94565b80601f01602080910402602001604051908101604052809291908181526020018280546143f390615b94565b80156144405780601f1061441557610100808354040283529160200191614440565b820191906000526020600020905b81548152906001019060200180831161442357829003601f168201915b5050505050908060060160009054906101000a900460ff16908060070160405180604001604052908160008201805461447890615b94565b80601f01602080910402602001604051908101604052809291908181526020018280546144a490615b94565b80156144f15780601f106144c6576101008083540402835291602001916144f1565b820191906000526020600020905b8154815290600101906020018083116144d457829003601f168201915b5050505050815260200160018201805461450a90615b94565b80601f016020809104026020016040519081016040528092919081815260200182805461453690615b94565b80156145835780601f1061455857610100808354040283529160200191614583565b820191906000526020600020905b81548152906001019060200180831161456657829003601f168201915b505050505081525050905088565b81600b600083815260200190815260200160002081905550600060066000838152602001908152602001600020604051806080016040529081600082015481526020016001820180546145e390615b94565b80601f016020809104026020016040519081016040528092919081815260200182805461460f90615b94565b801561465c5780601f106146315761010080835404028352916020019161465c565b820191906000526020600020905b81548152906001019060200180831161463f57829003601f168201915b5050505050815260200160028201805461467590615b94565b80601f01602080910402602001604051908101604052809291908181526020018280546146a190615b94565b80156146ee5780601f106146c3576101008083540402835291602001916146ee565b820191906000526020600020905b8154815290600101906020018083116146d157829003601f168201915b5050505050815260200160038201805461470790615b94565b80601f016020809104026020016040519081016040528092919081815260200182805461473390615b94565b80156147805780601f1061475557610100808354040283529160200191614780565b820191906000526020600020905b81548152906001019060200180831161476357829003601f168201915b50505050508152505090506000600a600085815260200190815260200160002060405180610160016040529081600082015481526020016001820160009054906101000a900473ffffffffffffffffffffffffffffffffffffffff1673ffffffffffffffffffffffffffffffffffffffff1673ffffffffffffffffffffffffffffffffffffffff16815260200160028201805461481c90615b94565b80601f016020809104026020016040519081016040528092919081815260200182805461484890615b94565b80156148955780601f1061486a57610100808354040283529160200191614895565b820191906000526020600020905b81548152906001019060200180831161487857829003601f168201915b505050505081526020016003820180546148ae90615b94565b80601f01602080910402602001604051908101604052809291908181526020018280546148da90615b94565b80156149275780601f106148fc57610100808354040283529160200191614927565b820191906000526020600020905b81548152906001019060200180831161490a57829003601f168201915b5050505050815260200160048201805461494090615b94565b80601f016020809104026020016040519081016040528092919081815260200182805461496c90615b94565b80156149b95780601f1061498e576101008083540402835291602001916149b9565b820191906000526020600020905b81548152906001019060200180831161499c57829003601f168201915b505050505081526020016005820180546149d290615b94565b80601f01602080910402602001604051908101604052809291908181526020018280546149fe90615b94565b8015614a4b5780601f10614a2057610100808354040283529160200191614a4b565b820191906000526020600020905b815481529060010190602001808311614a2e57829003601f168201915b50505050508152602001600682018054614a6490615b94565b80601f0160208091040260200160405190810160405280929190818152602001828054614a9090615b94565b8015614add5780601f10614ab257610100808354040283529160200191614add565b820191906000526020600020905b815481529060010190602001808311614ac057829003601f168201915b50505050508152602001600782018054614af690615b94565b80601f0160208091040260200160405190810160405280929190818152602001828054614b2290615b94565b8015614b6f5780601f10614b4457610100808354040283529160200191614b6f565b820191906000526020600020905b815481529060010190602001808311614b5257829003601f168201915b505050505081526020016008820160009054906101000a900460ff166002811115614bc3577f4e487b7100000000000000000000000000000000000000000000000000000000600052602160045260246000fd5b6002811115614bfb577f4e487b7100000000000000000000000000000000000000000000000000000000600052602160045260246000fd5b81526020016008820160019054906101000a900460ff16151515158152602001600982015481525050905081600d6000868152602001908152602001600020600082015181600001556020820151816001019080519060200190614c60929190614f23565b506040820151816002019080519060200190614c7d929190614f23565b506060820151816003019080519060200190614c9a929190614f23565b5090505082600f60008681526020019081526020016000208190555080600c60008581526020019081526020016000206000820151816000015560208201518160010160006101000a81548173ffffffffffffffffffffffffffffffffffffffff021916908373ffffffffffffffffffffffffffffffffffffffff1602179055506040820151816002019080519060200190614d37929190614f23565b506060820151816003019080519060200190614d54929190614f23565b506080820151816004019080519060200190614d71929190614f23565b5060a0820151816005019080519060200190614d8e929190614f23565b5060c0820151816006019080519060200190614dab929190614f23565b5060e0820151816007019080519060200190614dc8929190614f23565b506101008201518160080160006101000a81548160ff02191690836002811115614e1b577f4e487b7100000000000000000000000000000000000000000000000000000000600052602160045260246000fd5b02179055506101208201518160080160016101000a81548160ff021916908315150217905550610140820151816009015590505050505050565b600081600001549050919050565b6001816000016000828254019250508190555050565b60405180610160016040528060008152602001600073ffffffffffffffffffffffffffffffffffffffff16815260200160608152602001606081526020016060815260200160608152602001606081526020016060815260200160006002811115614f0d577f4e487b7100000000000000000000000000000000000000000000000000000000600052602160045260246000fd5b8152602001600015158152602001600081525090565b828054614f2f90615b94565b90600052602060002090601f016020900481019282614f515760008555614f98565b82601f10614f6a57805160ff1916838001178555614f98565b82800160010185558215614f98579182015b82811115614f97578251825591602001919060010190614f7c565b5b509050614fa59190614fa9565b5090565b5b80821115614fc2576000816000905550600101614faa565b5090565b6000614fd9614fd484615a3c565b615a17565b905082815260208101848484011115614ff157600080fd5b614ffc848285615b52565b509392505050565b60008135905061501381615deb565b92915050565b600082601f83011261502a57600080fd5b813561503a848260208601614fc6565b91505092915050565b60008135905061505281615e02565b92915050565b60006020828403121561506a57600080fd5b600061507884828501615004565b91505092915050565b60008060006060848603121561509657600080fd5b600084013567ffffffffffffffff8111156150b057600080fd5b6150bc86828701615019565b935050602084013567ffffffffffffffff8111156150d957600080fd5b6150e586828701615019565b925050604084013567ffffffffffffffff81111561510257600080fd5b61510e86828701615019565b9150509250925092565b60008060008060008060c0878903121561513157600080fd5b600087013567ffffffffffffffff81111561514b57600080fd5b61515789828a01615019565b965050602087013567ffffffffffffffff81111561517457600080fd5b61518089828a01615019565b955050604087013567ffffffffffffffff81111561519d57600080fd5b6151a989828a01615019565b945050606087013567ffffffffffffffff8111156151c657600080fd5b6151d289828a01615019565b935050608087013567ffffffffffffffff8111156151ef57600080fd5b6151fb89828a01615019565b92505060a087013567ffffffffffffffff81111561521857600080fd5b61522489828a01615019565b9150509295509295509295565b600080600080600080600060e0888a03121561524c57600080fd5b600088013567ffffffffffffffff81111561526657600080fd5b6152728a828b01615019565b975050602088013567ffffffffffffffff81111561528f57600080fd5b61529b8a828b01615019565b965050604088013567ffffffffffffffff8111156152b857600080fd5b6152c48a828b01615019565b955050606088013567ffffffffffffffff8111156152e157600080fd5b6152ed8a828b01615019565b945050608088013567ffffffffffffffff81111561530a57600080fd5b6153168a828b01615019565b93505060a088013567ffffffffffffffff81111561533357600080fd5b61533f8a828b01615019565b92505060c088013567ffffffffffffffff81111561535c57600080fd5b6153688a828b01615019565b91505092959891949750929550565b60006020828403121561538957600080fd5b600061539784828501615043565b91505092915050565b600080604083850312156153b357600080fd5b60006153c185828601615043565b92505060206153d285828601615043565b9150509250929050565b60006153e88383615601565b905092915050565b6153f981615ae5565b82525050565b61540881615ae5565b82525050565b600061541982615a7d565b6154238185615aa0565b93508360208202850161543585615a6d565b8060005b85811015615471578484038952815161545285826153dc565b945061545d83615a93565b925060208a01995050600181019050615439565b50829750879550505050505092915050565b61548c81615af7565b82525050565b61549b81615af7565b82525050565b6154aa81615b40565b82525050565b6154b981615b40565b82525050565b60006154ca82615a88565b6154d48185615ab1565b93506154e4818560208601615b61565b6154ed81615cfc565b840191505092915050565b600061550382615a88565b61550d8185615ac2565b935061551d818560208601615b61565b61552681615cfc565b840191505092915050565b600061553e601583615ac2565b915061554982615d0d565b602082019050919050565b6000615561601483615ac2565b915061556c82615d36565b602082019050919050565b6000615584602283615ac2565b915061558f82615d5f565b604082019050919050565b60006155a7601c83615ac2565b91506155b282615dae565b602082019050919050565b600060408301600083015184820360008601526155da82826154bf565b915050602083015184820360208601526155f482826154bf565b9150508091505092915050565b60006101608301600083015161561a6000860182615713565b50602083015161562d60208601826153f0565b506040830151848203604086015261564582826154bf565b9150506060830151848203606086015261565f82826154bf565b9150506080830151848203608086015261567982826154bf565b91505060a083015184820360a086015261569382826154bf565b91505060c083015184820360c08601526156ad82826154bf565b91505060e083015184820360e08601526156c782826154bf565b9150506101008301516156de6101008601826154a1565b506101208301516156f3610120860182615483565b50610140830151615708610140860182615713565b508091505092915050565b61571c81615b36565b82525050565b61572b81615b36565b82525050565b6000602082019050818103600083015261574b818461540e565b905092915050565b60006020820190506157686000830184615492565b92915050565b6000602082019050818103600083015261578781615531565b9050919050565b600060208201905081810360008301526157a781615554565b9050919050565b600060208201905081810360008301526157c781615577565b9050919050565b600060208201905081810360008301526157e78161559a565b9050919050565b60006020820190506158036000830184615722565b92915050565b60006101608201905061581f600083018e615722565b61582c602083018d6153ff565b818103604083015261583e818c6154f8565b90508181036060830152615852818b6154f8565b90508181036080830152615866818a6154f8565b905081810360a083015261587a81896154f8565b905081810360c083015261588e81886154f8565b905081810360e08301526158a281876154f8565b90506158b26101008301866154b0565b6158c0610120830185615492565b6158ce610140830184615722565b9c9b505050505050505050505050565b60006080820190506158f36000830187615722565b818103602083015261590581866154f8565b9050818103604083015261591981856154f8565b9050818103606083015261592d81846154f8565b905095945050505050565b60006101008201905061594e600083018b615722565b8181036020830152615960818a6154f8565b9050818103604083015261597481896154f8565b9050818103606083015261598881886154f8565b9050818103608083015261599c81876154f8565b905081810360a08301526159b081866154f8565b90506159bf60c0830185615492565b81810360e08301526159d181846155bd565b90509998505050505050505050565b60006060820190506159f56000830186615722565b615a026020830185615722565b615a0f6040830184615722565b949350505050565b6000615a21615a32565b9050615a2d8282615bc6565b919050565b6000604051905090565b600067ffffffffffffffff821115615a5757615a56615ccd565b5b615a6082615cfc565b9050602081019050919050565b6000819050602082019050919050565b600081519050919050565b600081519050919050565b6000602082019050919050565b600082825260208201905092915050565b600082825260208201905092915050565b600082825260208201905092915050565b6000615ade82615b16565b9050919050565b6000615af082615b16565b9050919050565b60008115159050919050565b6000819050615b1182615dd7565b919050565b600073ffffffffffffffffffffffffffffffffffffffff82169050919050565b6000819050919050565b6000615b4b82615b03565b9050919050565b82818337600083830152505050565b60005b83811015615b7f578082015181840152602081019050615b64565b83811115615b8e576000848401525b50505050565b60006002820490506001821680615bac57607f821691505b60208210811415615bc057615bbf615c9e565b5b50919050565b615bcf82615cfc565b810181811067ffffffffffffffff82111715615bee57615bed615ccd565b5b80604052505050565b6000615c0282615b36565b91507fffffffffffffffffffffffffffffffffffffffffffffffffffffffffffffffff821415615c3557615c34615c40565b5b600182019050919050565b7f4e487b7100000000000000000000000000000000000000000000000000000000600052601160045260246000fd5b7f4e487b7100000000000000000000000000000000000000000000000000000000600052602160045260246000fd5b7f4e487b7100000000000000000000000000000000000000000000000000000000600052602260045260246000fd5b7f4e487b7100000000000000000000000000000000000000000000000000000000600052604160045260246000fd5b6000601f19601f8301169050919050565b7f72696465206973206e6f7420636f6d706c657465640000000000000000000000600082015250565b7f4661696c656420746f2073656e64204574686572000000000000000000000000600082015250565b7f54686973204164647265737320697320616c726561647920526567697374657260008201527f6564000000000000000000000000000000000000000000000000000000000000602082015250565b7f76616c75652073656e74206973206c657373207468616e206661697200000000600082015250565b60038110615de857615de7615c6f565b5b50565b615df481615ad3565b8114615dff57600080fd5b50565b615e0b81615b36565b8114615e1657600080fd5b5056fea26469706673582212201b603ba3ee4861a1af7af37b1e6ac82637a2c2a820b10132af59979073ef311b64736f6c63430008040033",
  "linkReferences": {},
  "deployedLinkReferences": {}
}