{
  "_format": "hh-sol-artifact-1",
  "contractName": "RideSharing",
  "sourceName": "contracts/Ridesharing.sol",
  "abi": [
    {
      "inputs": [
        {
          "internalType": "string",
          "name": "msg",
          "type": "string"
        }
      ],
      "name": "AlreadyRegistered",
      "type": "error"
    },
    {
      "anonymous": false,
      "inputs": [
        {
          "indexed": false,
          "internalType": "uint256",
          "name": "Type",
          "type": "uint256"
        },
        {
          "indexed": false,
          "internalType": "uint256",
          "name": "id",
          "type": "uint256"
        }
      ],
      "name": "UserType",
      "type": "event"
    },
    {
      "anonymous": false,
      "inputs": [
        {
          "indexed": false,
          "internalType": "uint256",
          "name": "driverId",
          "type": "uint256"
        },
        {
          "indexed": false,
          "internalType": "string",
          "name": "name",
          "type": "string"
        },
        {
          "indexed": false,
          "internalType": "string",
          "name": "nic",
          "type": "string"
        },
        {
          "indexed": false,
          "internalType": "string",
          "name": "regNum",
          "type": "string"
        }
      ],
      "name": "registeredDriver",
      "type": "event"
    },
    {
      "anonymous": false,
      "inputs": [
        {
          "indexed": false,
          "internalType": "uint256",
          "name": "RiderId",
          "type": "uint256"
        },
        {
          "indexed": false,
          "internalType": "string",
          "name": "name",
          "type": "string"
        },
        {
          "indexed": false,
          "internalType": "string",
          "name": "email",
          "type": "string"
        },
        {
          "indexed": false,
          "internalType": "string",
          "name": "cellno",
          "type": "string"
        }
      ],
      "name": "registeredRider",
      "type": "event"
    },
    {
      "inputs": [
        {
          "internalType": "uint256",
          "name": "",
          "type": "uint256"
        }
      ],
      "name": "RideIDTodriverId",
      "outputs": [
        {
          "internalType": "uint256",
          "name": "",
          "type": "uint256"
        }
      ],
      "stateMutability": "view",
      "type": "function"
    },
    {
      "inputs": [
        {
          "internalType": "address",
          "name": "",
          "type": "address"
        }
      ],
      "name": "addressToDriver",
      "outputs": [
        {
          "internalType": "uint256",
          "name": "Id",
          "type": "uint256"
        },
        {
          "internalType": "string",
          "name": "name",
          "type": "string"
        },
        {
          "internalType": "string",
          "name": "nic",
          "type": "string"
        },
        {
          "internalType": "string",
          "name": "email",
          "type": "string"
        },
        {
          "internalType": "string",
          "name": "cellno",
          "type": "string"
        },
        {
          "internalType": "string",
          "name": "LiscenceNo",
          "type": "string"
        },
        {
          "internalType": "bool",
          "name": "isRegistered",
          "type": "bool"
        },
        {
          "components": [
            {
              "internalType": "string",
              "name": "regNum",
              "type": "string"
            },
            {
              "internalType": "string",
              "name": "modelName",
              "type": "string"
            }
          ],
          "internalType": "struct RideSharing.Car",
          "name": "car",
          "type": "tuple"
        }
      ],
      "stateMutability": "view",
      "type": "function"
    },
    {
      "inputs": [
        {
          "internalType": "address",
          "name": "",
          "type": "address"
        }
      ],
      "name": "addressToRider",
      "outputs": [
        {
          "internalType": "uint256",
          "name": "Id",
          "type": "uint256"
        },
        {
          "internalType": "string",
          "name": "name",
          "type": "string"
        },
        {
          "internalType": "string",
          "name": "email",
          "type": "string"
        },
        {
          "internalType": "string",
          "name": "cellno",
          "type": "string"
        }
      ],
      "stateMutability": "view",
      "type": "function"
    },
    {
      "inputs": [
        {
          "internalType": "string",
          "name": "sourceLong",
          "type": "string"
        },
        {
          "internalType": "string",
          "name": "sourceLat",
          "type": "string"
        },
        {
          "internalType": "string",
          "name": "destLong",
          "type": "string"
        },
        {
          "internalType": "string",
          "name": "destLat",
          "type": "string"
        },
        {
          "internalType": "string",
          "name": "startTime",
          "type": "string"
        },
        {
          "internalType": "uint256",
          "name": "seats",
          "type": "uint256"
        }
      ],
      "name": "createRide",
      "outputs": [],
      "stateMutability": "nonpayable",
      "type": "function"
    },
    {
      "inputs": [
        {
          "internalType": "address",
          "name": "",
          "type": "address"
        }
      ],
      "name": "driverIsRegistered",
      "outputs": [
        {
          "internalType": "bool",
          "name": "",
          "type": "bool"
        }
      ],
      "stateMutability": "view",
      "type": "function"
    },
    {
      "inputs": [],
      "name": "getAllRides",
      "outputs": [
        {
          "components": [
            {
              "internalType": "uint256",
              "name": "rideId",
              "type": "uint256"
            },
            {
              "internalType": "address",
              "name": "creator",
              "type": "address"
            },
            {
              "internalType": "string",
              "name": "StartTime",
              "type": "string"
            },
            {
              "internalType": "uint256",
              "name": "seats",
              "type": "uint256"
            },
            {
              "internalType": "string",
              "name": "sourceLong",
              "type": "string"
            },
            {
              "internalType": "string",
              "name": "sourceLat",
              "type": "string"
            },
            {
              "internalType": "string",
              "name": "destLong",
              "type": "string"
            },
            {
              "internalType": "string",
              "name": "destLat",
              "type": "string"
            }
          ],
          "internalType": "struct RideSharing.Ride[]",
          "name": "",
          "type": "tuple[]"
        }
      ],
      "stateMutability": "view",
      "type": "function"
    },
    {
      "inputs": [
        {
          "internalType": "address",
          "name": "_driver",
          "type": "address"
        }
      ],
      "name": "getDriverByAddress",
      "outputs": [
        {
          "internalType": "uint256",
          "name": "",
          "type": "uint256"
        }
      ],
      "stateMutability": "view",
      "type": "function"
    },
    {
      "inputs": [
        {
          "internalType": "uint256",
          "name": "rideId",
          "type": "uint256"
        }
      ],
      "name": "getRidersByRideId",
      "outputs": [
        {
          "components": [
            {
              "internalType": "uint256",
              "name": "Id",
              "type": "uint256"
            },
            {
              "internalType": "string",
              "name": "name",
              "type": "string"
            },
            {
              "internalType": "string",
              "name": "email",
              "type": "string"
            },
            {
              "internalType": "string",
              "name": "cellno",
              "type": "string"
            }
          ],
          "internalType": "struct RideSharing.Rider[]",
          "name": "",
          "type": "tuple[]"
        }
      ],
      "stateMutability": "view",
      "type": "function"
    },
    {
      "inputs": [
        {
          "internalType": "uint256",
          "name": "DriverId",
          "type": "uint256"
        }
      ],
      "name": "getRidesByDriverId",
      "outputs": [
        {
          "components": [
            {
              "internalType": "uint256",
              "name": "rideId",
              "type": "uint256"
            },
            {
              "internalType": "address",
              "name": "creator",
              "type": "address"
            },
            {
              "internalType": "string",
              "name": "StartTime",
              "type": "string"
            },
            {
              "internalType": "uint256",
              "name": "seats",
              "type": "uint256"
            },
            {
              "internalType": "string",
              "name": "sourceLong",
              "type": "string"
            },
            {
              "internalType": "string",
              "name": "sourceLat",
              "type": "string"
            },
            {
              "internalType": "string",
              "name": "destLong",
              "type": "string"
            },
            {
              "internalType": "string",
              "name": "destLat",
              "type": "string"
            }
          ],
          "internalType": "struct RideSharing.Ride[]",
          "name": "",
          "type": "tuple[]"
        }
      ],
      "stateMutability": "view",
      "type": "function"
    },
    {
      "inputs": [
        {
          "internalType": "uint256",
          "name": "riderId",
          "type": "uint256"
        }
      ],
      "name": "getRidesByRiderId",
      "outputs": [
        {
          "components": [
            {
              "internalType": "uint256",
              "name": "rideId",
              "type": "uint256"
            },
            {
              "internalType": "address",
              "name": "creator",
              "type": "address"
            },
            {
              "internalType": "string",
              "name": "StartTime",
              "type": "string"
            },
            {
              "internalType": "uint256",
              "name": "seats",
              "type": "uint256"
            },
            {
              "internalType": "string",
              "name": "sourceLong",
              "type": "string"
            },
            {
              "internalType": "string",
              "name": "sourceLat",
              "type": "string"
            },
            {
              "internalType": "string",
              "name": "destLong",
              "type": "string"
            },
            {
              "internalType": "string",
              "name": "destLat",
              "type": "string"
            }
          ],
          "internalType": "struct RideSharing.Ride[]",
          "name": "",
          "type": "tuple[]"
        }
      ],
      "stateMutability": "view",
      "type": "function"
    },
    {
      "inputs": [
        {
          "internalType": "address",
          "name": "user",
          "type": "address"
        }
      ],
      "name": "getUserType",
      "outputs": [
        {
          "internalType": "uint256",
          "name": "",
          "type": "uint256"
        },
        {
          "internalType": "uint256",
          "name": "",
          "type": "uint256"
        },
        {
          "internalType": "uint256",
          "name": "",
          "type": "uint256"
        }
      ],
      "stateMutability": "view",
      "type": "function"
    },
    {
      "inputs": [
        {
          "internalType": "uint256",
          "name": "",
          "type": "uint256"
        }
      ],
      "name": "idToDriver",
      "outputs": [
        {
          "internalType": "uint256",
          "name": "Id",
          "type": "uint256"
        },
        {
          "internalType": "string",
          "name": "name",
          "type": "string"
        },
        {
          "internalType": "string",
          "name": "nic",
          "type": "string"
        },
        {
          "internalType": "string",
          "name": "email",
          "type": "string"
        },
        {
          "internalType": "string",
          "name": "cellno",
          "type": "string"
        },
        {
          "internalType": "string",
          "name": "LiscenceNo",
          "type": "string"
        },
        {
          "internalType": "bool",
          "name": "isRegistered",
          "type": "bool"
        },
        {
          "components": [
            {
              "internalType": "string",
              "name": "regNum",
              "type": "string"
            },
            {
              "internalType": "string",
              "name": "modelName",
              "type": "string"
            }
          ],
          "internalType": "struct RideSharing.Car",
          "name": "car",
          "type": "tuple"
        }
      ],
      "stateMutability": "view",
      "type": "function"
    },
    {
      "inputs": [
        {
          "internalType": "uint256",
          "name": "",
          "type": "uint256"
        }
      ],
      "name": "idToRide",
      "outputs": [
        {
          "internalType": "uint256",
          "name": "rideId",
          "type": "uint256"
        },
        {
          "internalType": "address",
          "name": "creator",
          "type": "address"
        },
        {
          "internalType": "string",
          "name": "StartTime",
          "type": "string"
        },
        {
          "internalType": "uint256",
          "name": "seats",
          "type": "uint256"
        },
        {
          "internalType": "string",
          "name": "sourceLong",
          "type": "string"
        },
        {
          "internalType": "string",
          "name": "sourceLat",
          "type": "string"
        },
        {
          "internalType": "string",
          "name": "destLong",
          "type": "string"
        },
        {
          "internalType": "string",
          "name": "destLat",
          "type": "string"
        }
      ],
      "stateMutability": "view",
      "type": "function"
    },
    {
      "inputs": [
        {
          "internalType": "uint256",
          "name": "",
          "type": "uint256"
        }
      ],
      "name": "idToRider",
      "outputs": [
        {
          "internalType": "uint256",
          "name": "Id",
          "type": "uint256"
        },
        {
          "internalType": "string",
          "name": "name",
          "type": "string"
        },
        {
          "internalType": "string",
          "name": "email",
          "type": "string"
        },
        {
          "internalType": "string",
          "name": "cellno",
          "type": "string"
        }
      ],
      "stateMutability": "view",
      "type": "function"
    },
    {
      "inputs": [
        {
          "internalType": "uint256",
          "name": "rideId",
          "type": "uint256"
        },
        {
          "internalType": "uint256",
          "name": "riderId",
          "type": "uint256"
        }
      ],
      "name": "joinRide",
      "outputs": [],
      "stateMutability": "nonpayable",
      "type": "function"
    },
    {
      "inputs": [
        {
          "internalType": "string",
          "name": "_name",
          "type": "string"
        },
        {
          "internalType": "string",
          "name": "_nic",
          "type": "string"
        },
        {
          "internalType": "string",
          "name": "_email",
          "type": "string"
        },
        {
          "internalType": "string",
          "name": "_cellno",
          "type": "string"
        },
        {
          "internalType": "string",
          "name": "_regNum",
          "type": "string"
        },
        {
          "internalType": "string",
          "name": "_modelName",
          "type": "string"
        },
        {
          "internalType": "string",
          "name": "_LiscenceNo",
          "type": "string"
        }
      ],
      "name": "registerForDriver",
      "outputs": [],
      "stateMutability": "nonpayable",
      "type": "function"
    },
    {
      "inputs": [
        {
          "internalType": "string",
          "name": "_name",
          "type": "string"
        },
        {
          "internalType": "string",
          "name": "_email",
          "type": "string"
        },
        {
          "internalType": "string",
          "name": "_cellno",
          "type": "string"
        }
      ],
      "name": "registerForRider",
      "outputs": [],
      "stateMutability": "nonpayable",
      "type": "function"
    },
    {
      "inputs": [
        {
          "internalType": "uint256",
          "name": "",
          "type": "uint256"
        }
      ],
      "name": "riderIdtoride",
      "outputs": [
        {
          "internalType": "uint256",
          "name": "rideId",
          "type": "uint256"
        },
        {
          "internalType": "address",
          "name": "creator",
          "type": "address"
        },
        {
          "internalType": "string",
          "name": "StartTime",
          "type": "string"
        },
        {
          "internalType": "uint256",
          "name": "seats",
          "type": "uint256"
        },
        {
          "internalType": "string",
          "name": "sourceLong",
          "type": "string"
        },
        {
          "internalType": "string",
          "name": "sourceLat",
          "type": "string"
        },
        {
          "internalType": "string",
          "name": "destLong",
          "type": "string"
        },
        {
          "internalType": "string",
          "name": "destLat",
          "type": "string"
        }
      ],
      "stateMutability": "view",
      "type": "function"
    },
    {
      "inputs": [
        {
          "internalType": "uint256",
          "name": "",
          "type": "uint256"
        }
      ],
      "name": "riderIdtorideId",
      "outputs": [
        {
          "internalType": "uint256",
          "name": "",
          "type": "uint256"
        }
      ],
      "stateMutability": "view",
      "type": "function"
    },
    {
      "inputs": [
        {
          "internalType": "address",
          "name": "",
          "type": "address"
        }
      ],
      "name": "riderIsRegistered",
      "outputs": [
        {
          "internalType": "bool",
          "name": "",
          "type": "bool"
        }
      ],
      "stateMutability": "view",
      "type": "function"
    }
  ],
  "bytecode": "0x608060405234801561001057600080fd5b5061503a806100206000396000f3fe608060405234801561001057600080fd5b506004361061012c5760003560e01c8063ba1ac377116100ad578063e147d78711610071578063e147d787146103cd578063e563eada146103fd578063e656b5781461042d578063ec7a522014610460578063f2c5c2f1146104975761012c565b8063ba1ac377146102f7578063bbe3803a14610313578063c092e39914610343578063c29cc99a1461037a578063d7e78c61146103965761012c565b806366ec451c116100f457806366ec451c14610210578063787660c3146102475780638b3f863f146102655780639e473a4714610297578063a9b6bbde146102c75761012c565b806305c41e0e146101315780631840110a146101645780631a5378fa14610194578063472b06c0146101c4578063632c728e146101e0575b600080fd5b61014b60048036038101906101469190614657565b6104b3565b60405161015b9493929190614b85565b60405180910390f35b61017e60048036038101906101799190614657565b61067b565b60405161018b9190614ac9565b60405180910390f35b6101ae60048036038101906101a99190614657565b610693565b6040516101bb9190614a4a565b60405180910390f35b6101de60048036038101906101d99190614379565b610b69565b005b6101fa60048036038101906101f59190614657565b610dfb565b6040516102079190614a4a565b60405180910390f35b61022a60048036038101906102259190614657565b6112d1565b60405161023e989796959493929190614ae4565b60405180910390f35b61024f6115e1565b60405161025c9190614a4a565b60405180910390f35b61027f600480360381019061027a9190614350565b611a53565b60405161028e93929190614c87565b60405180910390f35b6102b160048036038101906102ac9190614350565b612195565b6040516102be9190614a8e565b60405180910390f35b6102e160048036038101906102dc9190614350565b6121b5565b6040516102ee9190614ac9565b60405180910390f35b610311600480360381019061030c9190614410565b612206565b005b61032d60048036038101906103289190614657565b612610565b60405161033a9190614ac9565b60405180910390f35b61035d60048036038101906103589190614350565b612628565b604051610371989796959493929190614bdf565b60405180910390f35b610394600480360381019061038f9190614556565b612a53565b005b6103b060048036038101906103ab9190614657565b612d52565b6040516103c4989796959493929190614ae4565b60405180910390f35b6103e760048036038101906103e29190614350565b613062565b6040516103f49190614a8e565b60405180910390f35b61041760048036038101906104129190614657565b613082565b6040516104249190614a6c565b60405180910390f35b61044760048036038101906104429190614350565b6133c5565b6040516104579493929190614b85565b60405180910390f35b61047a60048036038101906104759190614657565b61358d565b60405161048e989796959493929190614bdf565b60405180910390f35b6104b160048036038101906104ac9190614680565b6139b8565b005b60066020528060005260406000206000915090508060000154908060010180546104dc90614e3d565b80601f016020809104026020016040519081016040528092919081815260200182805461050890614e3d565b80156105555780601f1061052a57610100808354040283529160200191610555565b820191906000526020600020905b81548152906001019060200180831161053857829003601f168201915b50505050509080600201805461056a90614e3d565b80601f016020809104026020016040519081016040528092919081815260200182805461059690614e3d565b80156105e35780601f106105b8576101008083540402835291602001916105e3565b820191906000526020600020905b8154815290600101906020018083116105c657829003601f168201915b5050505050908060030180546105f890614e3d565b80601f016020809104026020016040519081016040528092919081815260200182805461062490614e3d565b80156106715780601f1061064657610100808354040283529160200191610671565b820191906000526020600020905b81548152906001019060200180831161065457829003601f168201915b5050505050905084565b600b6020528060005260406000206000915090505481565b60606000806000600190505b6106a960016140b2565b81116106ec5784600960008381526020019081526020016000205414156106d95782806106d590614ea0565b9350505b80806106e490614ea0565b91505061069f565b5060008267ffffffffffffffff81111561072f577f4e487b7100000000000000000000000000000000000000000000000000000000600052604160045260246000fd5b60405190808252806020026020018201604052801561076857816020015b610755614198565b81526020019060019003908161074d5790505b5090506000600190505b838111610b5d578560096000838152602001908152602001600020541415610b4a57600e600087815260200190815260200160002060405180610100016040529081600082015481526020016001820160009054906101000a900473ffffffffffffffffffffffffffffffffffffffff1673ffffffffffffffffffffffffffffffffffffffff1673ffffffffffffffffffffffffffffffffffffffff16815260200160028201805461082390614e3d565b80601f016020809104026020016040519081016040528092919081815260200182805461084f90614e3d565b801561089c5780601f106108715761010080835404028352916020019161089c565b820191906000526020600020905b81548152906001019060200180831161087f57829003601f168201915b50505050508152602001600382015481526020016004820180546108bf90614e3d565b80601f01602080910402602001604051908101604052809291908181526020018280546108eb90614e3d565b80156109385780601f1061090d57610100808354040283529160200191610938565b820191906000526020600020905b81548152906001019060200180831161091b57829003601f168201915b5050505050815260200160058201805461095190614e3d565b80601f016020809104026020016040519081016040528092919081815260200182805461097d90614e3d565b80156109ca5780601f1061099f576101008083540402835291602001916109ca565b820191906000526020600020905b8154815290600101906020018083116109ad57829003601f168201915b505050505081526020016006820180546109e390614e3d565b80601f0160208091040260200160405190810160405280929190818152602001828054610a0f90614e3d565b8015610a5c5780601f10610a3157610100808354040283529160200191610a5c565b820191906000526020600020905b815481529060010190602001808311610a3f57829003601f168201915b50505050508152602001600782018054610a7590614e3d565b80601f0160208091040260200160405190810160405280929190818152602001828054610aa190614e3d565b8015610aee5780601f10610ac357610100808354040283529160200191610aee565b820191906000526020600020905b815481529060010190602001808311610ad157829003601f168201915b505050505081525050828481518110610b30577f4e487b7100000000000000000000000000000000000000000000000000000000600052603260045260246000fd5b60200260200101819052508280610b4690614ea0565b9350505b8080610b5590614ea0565b915050610772565b50809350505050919050565b60011515600460003373ffffffffffffffffffffffffffffffffffffffff1673ffffffffffffffffffffffffffffffffffffffff16815260200190815260200160002060009054906101000a900460ff1615151415610bfd576040517f0a7a3d7c000000000000000000000000000000000000000000000000000000008152600401610bf490614aa9565b60405180910390fd5b610c0760026140c0565b6000610c1360026140b2565b9050600060405180608001604052808381526020018681526020018581526020018481525090506001600460003373ffffffffffffffffffffffffffffffffffffffff1673ffffffffffffffffffffffffffffffffffffffff16815260200190815260200160002060006101000a81548160ff0219169083151502179055508060066000848152602001908152602001600020600082015181600001556020820151816001019080519060200190610ccc9291906141f3565b506040820151816002019080519060200190610ce99291906141f3565b506060820151816003019080519060200190610d069291906141f3565b5090505080600860003373ffffffffffffffffffffffffffffffffffffffff1673ffffffffffffffffffffffffffffffffffffffff168152602001908152602001600020600082015181600001556020820151816001019080519060200190610d709291906141f3565b506040820151816002019080519060200190610d8d9291906141f3565b506060820151816003019080519060200190610daa9291906141f3565b50905050610db7336140d6565b7f22e9c31ba948c6fb17673cf7d4f73d44f2090424bd885b5c4adb3b24b00ba0fe82868686604051610dec9493929190614b85565b60405180910390a15050505050565b60606000806000600190505b610e1160016140b2565b8111610e545784600f6000838152602001908152602001600020541415610e41578280610e3d90614ea0565b9350505b8080610e4c90614ea0565b915050610e07565b5060008267ffffffffffffffff811115610e97577f4e487b7100000000000000000000000000000000000000000000000000000000600052604160045260246000fd5b604051908082528060200260200182016040528015610ed057816020015b610ebd614198565b815260200190600190039081610eb55790505b5090506000600190505b8381116112c55785600f60008381526020019081526020016000205414156112b257600c600082815260200190815260200160002060405180610100016040529081600082015481526020016001820160009054906101000a900473ffffffffffffffffffffffffffffffffffffffff1673ffffffffffffffffffffffffffffffffffffffff1673ffffffffffffffffffffffffffffffffffffffff168152602001600282018054610f8b90614e3d565b80601f0160208091040260200160405190810160405280929190818152602001828054610fb790614e3d565b80156110045780601f10610fd957610100808354040283529160200191611004565b820191906000526020600020905b815481529060010190602001808311610fe757829003601f168201915b505050505081526020016003820154815260200160048201805461102790614e3d565b80601f016020809104026020016040519081016040528092919081815260200182805461105390614e3d565b80156110a05780601f10611075576101008083540402835291602001916110a0565b820191906000526020600020905b81548152906001019060200180831161108357829003601f168201915b505050505081526020016005820180546110b990614e3d565b80601f01602080910402602001604051908101604052809291908181526020018280546110e590614e3d565b80156111325780601f1061110757610100808354040283529160200191611132565b820191906000526020600020905b81548152906001019060200180831161111557829003601f168201915b5050505050815260200160068201805461114b90614e3d565b80601f016020809104026020016040519081016040528092919081815260200182805461117790614e3d565b80156111c45780601f10611199576101008083540402835291602001916111c4565b820191906000526020600020905b8154815290600101906020018083116111a757829003601f168201915b505050505081526020016007820180546111dd90614e3d565b80601f016020809104026020016040519081016040528092919081815260200182805461120990614e3d565b80156112565780601f1061122b57610100808354040283529160200191611256565b820191906000526020600020905b81548152906001019060200180831161123957829003601f168201915b505050505081525050828481518110611298577f4e487b7100000000000000000000000000000000000000000000000000000000600052603260045260246000fd5b602002602001018190525082806112ae90614ea0565b9350505b80806112bd90614ea0565b915050610eda565b50809350505050919050565b600a6020528060005260406000206000915090508060000154908060010160009054906101000a900473ffffffffffffffffffffffffffffffffffffffff169080600201805461132090614e3d565b80601f016020809104026020016040519081016040528092919081815260200182805461134c90614e3d565b80156113995780601f1061136e57610100808354040283529160200191611399565b820191906000526020600020905b81548152906001019060200180831161137c57829003601f168201915b5050505050908060030154908060040180546113b490614e3d565b80601f01602080910402602001604051908101604052809291908181526020018280546113e090614e3d565b801561142d5780601f106114025761010080835404028352916020019161142d565b820191906000526020600020905b81548152906001019060200180831161141057829003601f168201915b50505050509080600501805461144290614e3d565b80601f016020809104026020016040519081016040528092919081815260200182805461146e90614e3d565b80156114bb5780601f10611490576101008083540402835291602001916114bb565b820191906000526020600020905b81548152906001019060200180831161149e57829003601f168201915b5050505050908060060180546114d090614e3d565b80601f01602080910402602001604051908101604052809291908181526020018280546114fc90614e3d565b80156115495780601f1061151e57610100808354040283529160200191611549565b820191906000526020600020905b81548152906001019060200180831161152c57829003601f168201915b50505050509080600701805461155e90614e3d565b80601f016020809104026020016040519081016040528092919081815260200182805461158a90614e3d565b80156115d75780601f106115ac576101008083540402835291602001916115d7565b820191906000526020600020905b8154815290600101906020018083116115ba57829003601f168201915b5050505050905088565b60606000806115f060016140b2565b67ffffffffffffffff81111561162f577f4e487b7100000000000000000000000000000000000000000000000000000000600052604160045260246000fd5b60405190808252806020026020018201604052801561166857816020015b611655614198565b81526020019060019003908161164d5790505b5090506000600190505b61167c60016140b2565b8111611a4a57600a600082815260200190815260200160002060405180610100016040529081600082015481526020016001820160009054906101000a900473ffffffffffffffffffffffffffffffffffffffff1673ffffffffffffffffffffffffffffffffffffffff1673ffffffffffffffffffffffffffffffffffffffff16815260200160028201805461171190614e3d565b80601f016020809104026020016040519081016040528092919081815260200182805461173d90614e3d565b801561178a5780601f1061175f5761010080835404028352916020019161178a565b820191906000526020600020905b81548152906001019060200180831161176d57829003601f168201915b50505050508152602001600382015481526020016004820180546117ad90614e3d565b80601f01602080910402602001604051908101604052809291908181526020018280546117d990614e3d565b80156118265780601f106117fb57610100808354040283529160200191611826565b820191906000526020600020905b81548152906001019060200180831161180957829003601f168201915b5050505050815260200160058201805461183f90614e3d565b80601f016020809104026020016040519081016040528092919081815260200182805461186b90614e3d565b80156118b85780601f1061188d576101008083540402835291602001916118b8565b820191906000526020600020905b81548152906001019060200180831161189b57829003601f168201915b505050505081526020016006820180546118d190614e3d565b80601f01602080910402602001604051908101604052809291908181526020018280546118fd90614e3d565b801561194a5780601f1061191f5761010080835404028352916020019161194a565b820191906000526020600020905b81548152906001019060200180831161192d57829003601f168201915b5050505050815260200160078201805461196390614e3d565b80601f016020809104026020016040519081016040528092919081815260200182805461198f90614e3d565b80156119dc5780601f106119b1576101008083540402835291602001916119dc565b820191906000526020600020905b8154815290600101906020018083116119bf57829003601f168201915b505050505081525050828481518110611a1e577f4e487b7100000000000000000000000000000000000000000000000000000000600052603260045260246000fd5b60200260200101819052508280611a3490614ea0565b9350508080611a4290614ea0565b915050611672565b50809250505090565b6000806000806000806000600860008973ffffffffffffffffffffffffffffffffffffffff1673ffffffffffffffffffffffffffffffffffffffff16815260200190815260200160002060405180608001604052908160008201548152602001600182018054611ac290614e3d565b80601f0160208091040260200160405190810160405280929190818152602001828054611aee90614e3d565b8015611b3b5780601f10611b1057610100808354040283529160200191611b3b565b820191906000526020600020905b815481529060010190602001808311611b1e57829003601f168201915b50505050508152602001600282018054611b5490614e3d565b80601f0160208091040260200160405190810160405280929190818152602001828054611b8090614e3d565b8015611bcd5780601f10611ba257610100808354040283529160200191611bcd565b820191906000526020600020905b815481529060010190602001808311611bb057829003601f168201915b50505050508152602001600382018054611be690614e3d565b80601f0160208091040260200160405190810160405280929190818152602001828054611c1290614e3d565b8015611c5f5780601f10611c3457610100808354040283529160200191611c5f565b820191906000526020600020905b815481529060010190602001808311611c4257829003601f168201915b50505050508152505090506000600760008a73ffffffffffffffffffffffffffffffffffffffff1673ffffffffffffffffffffffffffffffffffffffff1681526020019081526020016000206040518061010001604052908160008201548152602001600182018054611cd190614e3d565b80601f0160208091040260200160405190810160405280929190818152602001828054611cfd90614e3d565b8015611d4a5780601f10611d1f57610100808354040283529160200191611d4a565b820191906000526020600020905b815481529060010190602001808311611d2d57829003601f168201915b50505050508152602001600282018054611d6390614e3d565b80601f0160208091040260200160405190810160405280929190818152602001828054611d8f90614e3d565b8015611ddc5780601f10611db157610100808354040283529160200191611ddc565b820191906000526020600020905b815481529060010190602001808311611dbf57829003601f168201915b50505050508152602001600382018054611df590614e3d565b80601f0160208091040260200160405190810160405280929190818152602001828054611e2190614e3d565b8015611e6e5780601f10611e4357610100808354040283529160200191611e6e565b820191906000526020600020905b815481529060010190602001808311611e5157829003601f168201915b50505050508152602001600482018054611e8790614e3d565b80601f0160208091040260200160405190810160405280929190818152602001828054611eb390614e3d565b8015611f005780601f10611ed557610100808354040283529160200191611f00565b820191906000526020600020905b815481529060010190602001808311611ee357829003601f168201915b50505050508152602001600582018054611f1990614e3d565b80601f0160208091040260200160405190810160405280929190818152602001828054611f4590614e3d565b8015611f925780601f10611f6757610100808354040283529160200191611f92565b820191906000526020600020905b815481529060010190602001808311611f7557829003601f168201915b505050505081526020016006820160009054906101000a900460ff1615151515815260200160078201604051806040016040529081600082018054611fd690614e3d565b80601f016020809104026020016040519081016040528092919081815260200182805461200290614e3d565b801561204f5780601f106120245761010080835404028352916020019161204f565b820191906000526020600020905b81548152906001019060200180831161203257829003601f168201915b5050505050815260200160018201805461206890614e3d565b80601f016020809104026020016040519081016040528092919081815260200182805461209490614e3d565b80156120e15780601f106120b6576101008083540402835291602001916120e1565b820191906000526020600020905b8154815290600101906020018083116120c457829003601f168201915b5050505050815250508152505090506000826000015114801561210957506000816000015114155b1561211e576001945080600001519250612180565b6000826000015114158015612137575060008160000151145b1561214c57600294508160000151935061217f565b600082600001511415801561216657506000816000015114155b1561217e576003945080600001519250816000015193505b5b5b84848497509750975050505050509193909250565b60036020528060005260406000206000915054906101000a900460ff1681565b600080600760008473ffffffffffffffffffffffffffffffffffffffff1673ffffffffffffffffffffffffffffffffffffffff16815260200190815260200160002090508060000154915050919050565b60011515600360003373ffffffffffffffffffffffffffffffffffffffff1673ffffffffffffffffffffffffffffffffffffffff16815260200190815260200160002060009054906101000a900460ff161515141561229a576040517f0a7a3d7c00000000000000000000000000000000000000000000000000000000815260040161229190614aa9565b60405180910390fd5b600060405180604001604052808581526020018481525090506122bd60006140c0565b60006122c960006140b2565b905060006040518061010001604052808381526020018b81526020018a81526020018981526020018881526020018581526020016001151581526020018481525090506001600360003373ffffffffffffffffffffffffffffffffffffffff1673ffffffffffffffffffffffffffffffffffffffff16815260200190815260200160002060006101000a81548160ff021916908315150217905550806005600084815260200190815260200160002060008201518160000155602082015181600101908051906020019061239e9291906141f3565b5060408201518160020190805190602001906123bb9291906141f3565b5060608201518160030190805190602001906123d89291906141f3565b5060808201518160040190805190602001906123f59291906141f3565b5060a08201518160050190805190602001906124129291906141f3565b5060c08201518160060160006101000a81548160ff02191690831515021790555060e08201518160070160008201518160000190805190602001906124589291906141f3565b5060208201518160010190805190602001906124759291906141f3565b50505090505080600760003373ffffffffffffffffffffffffffffffffffffffff1673ffffffffffffffffffffffffffffffffffffffff1681526020019081526020016000206000820151816000015560208201518160010190805190602001906124e19291906141f3565b5060408201518160020190805190602001906124fe9291906141f3565b50606082015181600301908051906020019061251b9291906141f3565b5060808201518160040190805190602001906125389291906141f3565b5060a08201518160050190805190602001906125559291906141f3565b5060c08201518160060160006101000a81548160ff02191690831515021790555060e082015181600701600082015181600001908051906020019061259b9291906141f3565b5060208201518160010190805190602001906125b89291906141f3565b5050509050506125c7336140d6565b7f3de04171a543da1b7f9e1fabae52c6c8f0ab266b234a95ede56668caebce1bec828b8b896040516125fc9493929190614b85565b60405180910390a150505050505050505050565b60096020528060005260406000206000915090505481565b600760205280600052604060002060009150905080600001549080600101805461265190614e3d565b80601f016020809104026020016040519081016040528092919081815260200182805461267d90614e3d565b80156126ca5780601f1061269f576101008083540402835291602001916126ca565b820191906000526020600020905b8154815290600101906020018083116126ad57829003601f168201915b5050505050908060020180546126df90614e3d565b80601f016020809104026020016040519081016040528092919081815260200182805461270b90614e3d565b80156127585780601f1061272d57610100808354040283529160200191612758565b820191906000526020600020905b81548152906001019060200180831161273b57829003601f168201915b50505050509080600301805461276d90614e3d565b80601f016020809104026020016040519081016040528092919081815260200182805461279990614e3d565b80156127e65780601f106127bb576101008083540402835291602001916127e6565b820191906000526020600020905b8154815290600101906020018083116127c957829003601f168201915b5050505050908060040180546127fb90614e3d565b80601f016020809104026020016040519081016040528092919081815260200182805461282790614e3d565b80156128745780601f1061284957610100808354040283529160200191612874565b820191906000526020600020905b81548152906001019060200180831161285757829003601f168201915b50505050509080600501805461288990614e3d565b80601f01602080910402602001604051908101604052809291908181526020018280546128b590614e3d565b80156129025780601f106128d757610100808354040283529160200191612902565b820191906000526020600020905b8154815290600101906020018083116128e557829003601f168201915b5050505050908060060160009054906101000a900460ff16908060070160405180604001604052908160008201805461293a90614e3d565b80601f016020809104026020016040519081016040528092919081815260200182805461296690614e3d565b80156129b35780601f10612988576101008083540402835291602001916129b3565b820191906000526020600020905b81548152906001019060200180831161299657829003601f168201915b505050505081526020016001820180546129cc90614e3d565b80601f01602080910402602001604051908101604052809291908181526020018280546129f890614e3d565b8015612a455780601f10612a1a57610100808354040283529160200191612a45565b820191906000526020600020905b815481529060010190602001808311612a2857829003601f168201915b505050505081525050905088565b60011515600360003373ffffffffffffffffffffffffffffffffffffffff1673ffffffffffffffffffffffffffffffffffffffff16815260200190815260200160002060009054906101000a900460ff16151514612ab057600080fd5b6000612abb336121b5565b9050612ac760016140c0565b6000612ad360016140b2565b905060006040518061010001604052808381526020013373ffffffffffffffffffffffffffffffffffffffff1681526020018681526020018581526020018a815260200189815260200188815260200187815250905080600a60008481526020019081526020016000206000820151816000015560208201518160010160006101000a81548173ffffffffffffffffffffffffffffffffffffffff021916908373ffffffffffffffffffffffffffffffffffffffff1602179055506040820151816002019080519060200190612baa9291906141f3565b50606082015181600301556080820151816004019080519060200190612bd19291906141f3565b5060a0820151816005019080519060200190612bee9291906141f3565b5060c0820151816006019080519060200190612c0b9291906141f3565b5060e0820151816007019080519060200190612c289291906141f3565b5090505082600960008481526020019081526020016000208190555080600e60008581526020019081526020016000206000820151816000015560208201518160010160006101000a81548173ffffffffffffffffffffffffffffffffffffffff021916908373ffffffffffffffffffffffffffffffffffffffff1602179055506040820151816002019080519060200190612cc59291906141f3565b50606082015181600301556080820151816004019080519060200190612cec9291906141f3565b5060a0820151816005019080519060200190612d099291906141f3565b5060c0820151816006019080519060200190612d269291906141f3565b5060e0820151816007019080519060200190612d439291906141f3565b50905050505050505050505050565b600c6020528060005260406000206000915090508060000154908060010160009054906101000a900473ffffffffffffffffffffffffffffffffffffffff1690806002018054612da190614e3d565b80601f0160208091040260200160405190810160405280929190818152602001828054612dcd90614e3d565b8015612e1a5780601f10612def57610100808354040283529160200191612e1a565b820191906000526020600020905b815481529060010190602001808311612dfd57829003601f168201915b505050505090806003015490806004018054612e3590614e3d565b80601f0160208091040260200160405190810160405280929190818152602001828054612e6190614e3d565b8015612eae5780601f10612e8357610100808354040283529160200191612eae565b820191906000526020600020905b815481529060010190602001808311612e9157829003601f168201915b505050505090806005018054612ec390614e3d565b80601f0160208091040260200160405190810160405280929190818152602001828054612eef90614e3d565b8015612f3c5780601f10612f1157610100808354040283529160200191612f3c565b820191906000526020600020905b815481529060010190602001808311612f1f57829003601f168201915b505050505090806006018054612f5190614e3d565b80601f0160208091040260200160405190810160405280929190818152602001828054612f7d90614e3d565b8015612fca5780601f10612f9f57610100808354040283529160200191612fca565b820191906000526020600020905b815481529060010190602001808311612fad57829003601f168201915b505050505090806007018054612fdf90614e3d565b80601f016020809104026020016040519081016040528092919081815260200182805461300b90614e3d565b80156130585780601f1061302d57610100808354040283529160200191613058565b820191906000526020600020905b81548152906001019060200180831161303b57829003601f168201915b5050505050905088565b60046020528060005260406000206000915054906101000a900460ff1681565b60606000806000600190505b61309860016140b2565b81116130db5784600b60008381526020019081526020016000205414156130c85782806130c490614ea0565b9350505b80806130d390614ea0565b91505061308e565b5060008267ffffffffffffffff81111561311e577f4e487b7100000000000000000000000000000000000000000000000000000000600052604160045260246000fd5b60405190808252806020026020018201604052801561315757816020015b613144614279565b81526020019060019003908161313c5790505b5090506000600190505b8381116133b95785600b60008381526020019081526020016000205414156133a657600d6000828152602001908152602001600020604051806080016040529081600082015481526020016001820180546131bb90614e3d565b80601f01602080910402602001604051908101604052809291908181526020018280546131e790614e3d565b80156132345780601f1061320957610100808354040283529160200191613234565b820191906000526020600020905b81548152906001019060200180831161321757829003601f168201915b5050505050815260200160028201805461324d90614e3d565b80601f016020809104026020016040519081016040528092919081815260200182805461327990614e3d565b80156132c65780601f1061329b576101008083540402835291602001916132c6565b820191906000526020600020905b8154815290600101906020018083116132a957829003601f168201915b505050505081526020016003820180546132df90614e3d565b80601f016020809104026020016040519081016040528092919081815260200182805461330b90614e3d565b80156133585780601f1061332d57610100808354040283529160200191613358565b820191906000526020600020905b81548152906001019060200180831161333b57829003601f168201915b50505050508152505082848151811061339a577f4e487b7100000000000000000000000000000000000000000000000000000000600052603260045260246000fd5b60200260200101819052505b80806133b190614ea0565b915050613161565b50809350505050919050565b60086020528060005260406000206000915090508060000154908060010180546133ee90614e3d565b80601f016020809104026020016040519081016040528092919081815260200182805461341a90614e3d565b80156134675780601f1061343c57610100808354040283529160200191613467565b820191906000526020600020905b81548152906001019060200180831161344a57829003601f168201915b50505050509080600201805461347c90614e3d565b80601f01602080910402602001604051908101604052809291908181526020018280546134a890614e3d565b80156134f55780601f106134ca576101008083540402835291602001916134f5565b820191906000526020600020905b8154815290600101906020018083116134d857829003601f168201915b50505050509080600301805461350a90614e3d565b80601f016020809104026020016040519081016040528092919081815260200182805461353690614e3d565b80156135835780601f1061355857610100808354040283529160200191613583565b820191906000526020600020905b81548152906001019060200180831161356657829003601f168201915b5050505050905084565b60056020528060005260406000206000915090508060000154908060010180546135b690614e3d565b80601f01602080910402602001604051908101604052809291908181526020018280546135e290614e3d565b801561362f5780601f106136045761010080835404028352916020019161362f565b820191906000526020600020905b81548152906001019060200180831161361257829003601f168201915b50505050509080600201805461364490614e3d565b80601f016020809104026020016040519081016040528092919081815260200182805461367090614e3d565b80156136bd5780601f10613692576101008083540402835291602001916136bd565b820191906000526020600020905b8154815290600101906020018083116136a057829003601f168201915b5050505050908060030180546136d290614e3d565b80601f01602080910402602001604051908101604052809291908181526020018280546136fe90614e3d565b801561374b5780601f106137205761010080835404028352916020019161374b565b820191906000526020600020905b81548152906001019060200180831161372e57829003601f168201915b50505050509080600401805461376090614e3d565b80601f016020809104026020016040519081016040528092919081815260200182805461378c90614e3d565b80156137d95780601f106137ae576101008083540402835291602001916137d9565b820191906000526020600020905b8154815290600101906020018083116137bc57829003601f168201915b5050505050908060050180546137ee90614e3d565b80601f016020809104026020016040519081016040528092919081815260200182805461381a90614e3d565b80156138675780601f1061383c57610100808354040283529160200191613867565b820191906000526020600020905b81548152906001019060200180831161384a57829003601f168201915b5050505050908060060160009054906101000a900460ff16908060070160405180604001604052908160008201805461389f90614e3d565b80601f01602080910402602001604051908101604052809291908181526020018280546138cb90614e3d565b80156139185780601f106138ed57610100808354040283529160200191613918565b820191906000526020600020905b8154815290600101906020018083116138fb57829003601f168201915b5050505050815260200160018201805461393190614e3d565b80601f016020809104026020016040519081016040528092919081815260200182805461395d90614e3d565b80156139aa5780601f1061397f576101008083540402835291602001916139aa565b820191906000526020600020905b81548152906001019060200180831161398d57829003601f168201915b505050505081525050905088565b81600b60008381526020019081526020016000208190555060006006600083815260200190815260200160002060405180608001604052908160008201548152602001600182018054613a0a90614e3d565b80601f0160208091040260200160405190810160405280929190818152602001828054613a3690614e3d565b8015613a835780601f10613a5857610100808354040283529160200191613a83565b820191906000526020600020905b815481529060010190602001808311613a6657829003601f168201915b50505050508152602001600282018054613a9c90614e3d565b80601f0160208091040260200160405190810160405280929190818152602001828054613ac890614e3d565b8015613b155780601f10613aea57610100808354040283529160200191613b15565b820191906000526020600020905b815481529060010190602001808311613af857829003601f168201915b50505050508152602001600382018054613b2e90614e3d565b80601f0160208091040260200160405190810160405280929190818152602001828054613b5a90614e3d565b8015613ba75780601f10613b7c57610100808354040283529160200191613ba7565b820191906000526020600020905b815481529060010190602001808311613b8a57829003601f168201915b50505050508152505090506000600a600085815260200190815260200160002060405180610100016040529081600082015481526020016001820160009054906101000a900473ffffffffffffffffffffffffffffffffffffffff1673ffffffffffffffffffffffffffffffffffffffff1673ffffffffffffffffffffffffffffffffffffffff168152602001600282018054613c4390614e3d565b80601f0160208091040260200160405190810160405280929190818152602001828054613c6f90614e3d565b8015613cbc5780601f10613c9157610100808354040283529160200191613cbc565b820191906000526020600020905b815481529060010190602001808311613c9f57829003601f168201915b5050505050815260200160038201548152602001600482018054613cdf90614e3d565b80601f0160208091040260200160405190810160405280929190818152602001828054613d0b90614e3d565b8015613d585780601f10613d2d57610100808354040283529160200191613d58565b820191906000526020600020905b815481529060010190602001808311613d3b57829003601f168201915b50505050508152602001600582018054613d7190614e3d565b80601f0160208091040260200160405190810160405280929190818152602001828054613d9d90614e3d565b8015613dea5780601f10613dbf57610100808354040283529160200191613dea565b820191906000526020600020905b815481529060010190602001808311613dcd57829003601f168201915b50505050508152602001600682018054613e0390614e3d565b80601f0160208091040260200160405190810160405280929190818152602001828054613e2f90614e3d565b8015613e7c5780601f10613e5157610100808354040283529160200191613e7c565b820191906000526020600020905b815481529060010190602001808311613e5f57829003601f168201915b50505050508152602001600782018054613e9590614e3d565b80601f0160208091040260200160405190810160405280929190818152602001828054613ec190614e3d565b8015613f0e5780601f10613ee357610100808354040283529160200191613f0e565b820191906000526020600020905b815481529060010190602001808311613ef157829003601f168201915b505050505081525050905081600d6000868152602001908152602001600020600082015181600001556020820151816001019080519060200190613f539291906141f3565b506040820151816002019080519060200190613f709291906141f3565b506060820151816003019080519060200190613f8d9291906141f3565b5090505082600f60008681526020019081526020016000208190555080600c60008581526020019081526020016000206000820151816000015560208201518160010160006101000a81548173ffffffffffffffffffffffffffffffffffffffff021916908373ffffffffffffffffffffffffffffffffffffffff160217905550604082015181600201908051906020019061402a9291906141f3565b506060820151816003015560808201518160040190805190602001906140519291906141f3565b5060a082015181600501908051906020019061406e9291906141f3565b5060c082015181600601908051906020019061408b9291906141f3565b5060e08201518160070190805190602001906140a89291906141f3565b5090505050505050565b600081600001549050919050565b6001816000016000828254019250508190555050565b61416c816040516024016140ea9190614a2f565b6040516020818303038152906040527f2c2ecbc2000000000000000000000000000000000000000000000000000000007bffffffffffffffffffffffffffffffffffffffffffffffffffffffff19166020820180517bffffffffffffffffffffffffffffffffffffffffffffffffffffffff838183161783525050505061416f565b50565b60008151905060006a636f6e736f6c652e6c6f679050602083016000808483855afa5050505050565b60405180610100016040528060008152602001600073ffffffffffffffffffffffffffffffffffffffff1681526020016060815260200160008152602001606081526020016060815260200160608152602001606081525090565b8280546141ff90614e3d565b90600052602060002090601f0160209004810192826142215760008555614268565b82601f1061423a57805160ff1916838001178555614268565b82800160010185558215614268579182015b8281111561426757825182559160200191906001019061424c565b5b50905061427591906142a1565b5090565b6040518060800160405280600081526020016060815260200160608152602001606081525090565b5b808211156142ba5760008160009055506001016142a2565b5090565b60006142d16142cc84614ce3565b614cbe565b9050828152602081018484840111156142e957600080fd5b6142f4848285614dfb565b509392505050565b60008135905061430b81614fd6565b92915050565b600082601f83011261432257600080fd5b81356143328482602086016142be565b91505092915050565b60008135905061434a81614fed565b92915050565b60006020828403121561436257600080fd5b6000614370848285016142fc565b91505092915050565b60008060006060848603121561438e57600080fd5b600084013567ffffffffffffffff8111156143a857600080fd5b6143b486828701614311565b935050602084013567ffffffffffffffff8111156143d157600080fd5b6143dd86828701614311565b925050604084013567ffffffffffffffff8111156143fa57600080fd5b61440686828701614311565b9150509250925092565b600080600080600080600060e0888a03121561442b57600080fd5b600088013567ffffffffffffffff81111561444557600080fd5b6144518a828b01614311565b975050602088013567ffffffffffffffff81111561446e57600080fd5b61447a8a828b01614311565b965050604088013567ffffffffffffffff81111561449757600080fd5b6144a38a828b01614311565b955050606088013567ffffffffffffffff8111156144c057600080fd5b6144cc8a828b01614311565b945050608088013567ffffffffffffffff8111156144e957600080fd5b6144f58a828b01614311565b93505060a088013567ffffffffffffffff81111561451257600080fd5b61451e8a828b01614311565b92505060c088013567ffffffffffffffff81111561453b57600080fd5b6145478a828b01614311565b91505092959891949750929550565b60008060008060008060c0878903121561456f57600080fd5b600087013567ffffffffffffffff81111561458957600080fd5b61459589828a01614311565b965050602087013567ffffffffffffffff8111156145b257600080fd5b6145be89828a01614311565b955050604087013567ffffffffffffffff8111156145db57600080fd5b6145e789828a01614311565b945050606087013567ffffffffffffffff81111561460457600080fd5b61461089828a01614311565b935050608087013567ffffffffffffffff81111561462d57600080fd5b61463989828a01614311565b92505060a061464a89828a0161433b565b9150509295509295509295565b60006020828403121561466957600080fd5b60006146778482850161433b565b91505092915050565b6000806040838503121561469357600080fd5b60006146a18582860161433b565b92505060206146b28582860161433b565b9150509250929050565b60006146c883836148d4565b905092915050565b60006146dc83836149a0565b905092915050565b6146ed81614db3565b82525050565b6146fc81614db3565b82525050565b600061470d82614d34565b6147178185614d6f565b93508360208202850161472985614d14565b8060005b85811015614765578484038952815161474685826146bc565b945061475183614d55565b925060208a0199505060018101905061472d565b50829750879550505050505092915050565b600061478282614d3f565b61478c8185614d80565b93508360208202850161479e85614d24565b8060005b858110156147da57848403895281516147bb85826146d0565b94506147c683614d62565b925060208a019950506001810190506147a2565b50829750879550505050505092915050565b6147f581614dc5565b82525050565b600061480682614d4a565b6148108185614d91565b9350614820818560208601614e0a565b61482981614f76565b840191505092915050565b600061483f82614d4a565b6148498185614da2565b9350614859818560208601614e0a565b61486281614f76565b840191505092915050565b600061487a602283614da2565b915061488582614f87565b604082019050919050565b600060408301600083015184820360008601526148ad82826147fb565b915050602083015184820360208601526148c782826147fb565b9150508091505092915050565b6000610100830160008301516148ed6000860182614a11565b50602083015161490060208601826146e4565b506040830151848203604086015261491882826147fb565b915050606083015161492d6060860182614a11565b506080830151848203608086015261494582826147fb565b91505060a083015184820360a086015261495f82826147fb565b91505060c083015184820360c086015261497982826147fb565b91505060e083015184820360e086015261499382826147fb565b9150508091505092915050565b60006080830160008301516149b86000860182614a11565b50602083015184820360208601526149d082826147fb565b915050604083015184820360408601526149ea82826147fb565b91505060608301518482036060860152614a0482826147fb565b9150508091505092915050565b614a1a81614df1565b82525050565b614a2981614df1565b82525050565b6000602082019050614a4460008301846146f3565b92915050565b60006020820190508181036000830152614a648184614702565b905092915050565b60006020820190508181036000830152614a868184614777565b905092915050565b6000602082019050614aa360008301846147ec565b92915050565b60006020820190508181036000830152614ac28161486d565b9050919050565b6000602082019050614ade6000830184614a20565b92915050565b600061010082019050614afa600083018b614a20565b614b07602083018a6146f3565b8181036040830152614b198189614834565b9050614b286060830188614a20565b8181036080830152614b3a8187614834565b905081810360a0830152614b4e8186614834565b905081810360c0830152614b628185614834565b905081810360e0830152614b768184614834565b90509998505050505050505050565b6000608082019050614b9a6000830187614a20565b8181036020830152614bac8186614834565b90508181036040830152614bc08185614834565b90508181036060830152614bd48184614834565b905095945050505050565b600061010082019050614bf5600083018b614a20565b8181036020830152614c07818a614834565b90508181036040830152614c1b8189614834565b90508181036060830152614c2f8188614834565b90508181036080830152614c438187614834565b905081810360a0830152614c578186614834565b9050614c6660c08301856147ec565b81810360e0830152614c788184614890565b90509998505050505050505050565b6000606082019050614c9c6000830186614a20565b614ca96020830185614a20565b614cb66040830184614a20565b949350505050565b6000614cc8614cd9565b9050614cd48282614e6f565b919050565b6000604051905090565b600067ffffffffffffffff821115614cfe57614cfd614f47565b5b614d0782614f76565b9050602081019050919050565b6000819050602082019050919050565b6000819050602082019050919050565b600081519050919050565b600081519050919050565b600081519050919050565b6000602082019050919050565b6000602082019050919050565b600082825260208201905092915050565b600082825260208201905092915050565b600082825260208201905092915050565b600082825260208201905092915050565b6000614dbe82614dd1565b9050919050565b60008115159050919050565b600073ffffffffffffffffffffffffffffffffffffffff82169050919050565b6000819050919050565b82818337600083830152505050565b60005b83811015614e28578082015181840152602081019050614e0d565b83811115614e37576000848401525b50505050565b60006002820490506001821680614e5557607f821691505b60208210811415614e6957614e68614f18565b5b50919050565b614e7882614f76565b810181811067ffffffffffffffff82111715614e9757614e96614f47565b5b80604052505050565b6000614eab82614df1565b91507fffffffffffffffffffffffffffffffffffffffffffffffffffffffffffffffff821415614ede57614edd614ee9565b5b600182019050919050565b7f4e487b7100000000000000000000000000000000000000000000000000000000600052601160045260246000fd5b7f4e487b7100000000000000000000000000000000000000000000000000000000600052602260045260246000fd5b7f4e487b7100000000000000000000000000000000000000000000000000000000600052604160045260246000fd5b6000601f19601f8301169050919050565b7f54686973204164647265737320697320616c726561647920526567697374657260008201527f6564000000000000000000000000000000000000000000000000000000000000602082015250565b614fdf81614db3565b8114614fea57600080fd5b50565b614ff681614df1565b811461500157600080fd5b5056fea2646970667358221220d50aefe169960bac4f8141d131c75bcaafd34acf42bb6c6c0a3800e8a19f96a464736f6c63430008040033",
  "linkReferences": {},
  "deployedLinkReferences": {}
}