{
  "_format": "hh-sol-artifact-1",
  "contractName": "RideSharing",
  "sourceName": "contracts/Ridesharing.sol",
  "abi": [
    {
      "inputs": [
        {
          "internalType": "string",
          "name": "msg",
          "type": "string"
        }
      ],
      "name": "AlreadyRegistered",
      "type": "error"
    },
    {
      "inputs": [
        {
          "internalType": "string",
          "name": "msg",
          "type": "string"
        }
      ],
      "name": "lessThanFair",
      "type": "error"
    },
    {
      "inputs": [
        {
          "internalType": "string",
          "name": "msg",
          "type": "string"
        }
      ],
      "name": "ridenotCompleted",
      "type": "error"
    },
    {
      "anonymous": false,
      "inputs": [
        {
          "indexed": false,
          "internalType": "uint256",
          "name": "Type",
          "type": "uint256"
        },
        {
          "indexed": false,
          "internalType": "uint256",
          "name": "id",
          "type": "uint256"
        }
      ],
      "name": "UserType",
      "type": "event"
    },
    {
      "anonymous": false,
      "inputs": [
        {
          "indexed": false,
          "internalType": "uint256",
          "name": "driverId",
          "type": "uint256"
        },
        {
          "indexed": false,
          "internalType": "string",
          "name": "name",
          "type": "string"
        },
        {
          "indexed": false,
          "internalType": "string",
          "name": "nic",
          "type": "string"
        },
        {
          "indexed": false,
          "internalType": "string",
          "name": "regNum",
          "type": "string"
        }
      ],
      "name": "registeredDriver",
      "type": "event"
    },
    {
      "anonymous": false,
      "inputs": [
        {
          "indexed": false,
          "internalType": "uint256",
          "name": "RiderId",
          "type": "uint256"
        },
        {
          "indexed": false,
          "internalType": "string",
          "name": "name",
          "type": "string"
        },
        {
          "indexed": false,
          "internalType": "string",
          "name": "email",
          "type": "string"
        },
        {
          "indexed": false,
          "internalType": "string",
          "name": "cellno",
          "type": "string"
        }
      ],
      "name": "registeredRider",
      "type": "event"
    },
    {
      "inputs": [
        {
          "internalType": "uint256",
          "name": "",
          "type": "uint256"
        }
      ],
      "name": "RideIDTodriverId",
      "outputs": [
        {
          "internalType": "uint256",
          "name": "",
          "type": "uint256"
        }
      ],
      "stateMutability": "view",
      "type": "function"
    },
    {
      "inputs": [
        {
          "internalType": "address",
          "name": "",
          "type": "address"
        }
      ],
      "name": "addressToDriver",
      "outputs": [
        {
          "internalType": "uint256",
          "name": "Id",
          "type": "uint256"
        },
        {
          "internalType": "string",
          "name": "name",
          "type": "string"
        },
        {
          "internalType": "string",
          "name": "nic",
          "type": "string"
        },
        {
          "internalType": "string",
          "name": "email",
          "type": "string"
        },
        {
          "internalType": "string",
          "name": "cellno",
          "type": "string"
        },
        {
          "internalType": "string",
          "name": "LiscenceNo",
          "type": "string"
        },
        {
          "internalType": "bool",
          "name": "isRegistered",
          "type": "bool"
        },
        {
          "components": [
            {
              "internalType": "string",
              "name": "regNum",
              "type": "string"
            },
            {
              "internalType": "string",
              "name": "modelName",
              "type": "string"
            }
          ],
          "internalType": "struct RideSharing.Car",
          "name": "car",
          "type": "tuple"
        }
      ],
      "stateMutability": "view",
      "type": "function"
    },
    {
      "inputs": [
        {
          "internalType": "address",
          "name": "",
          "type": "address"
        }
      ],
      "name": "addressToRider",
      "outputs": [
        {
          "internalType": "uint256",
          "name": "Id",
          "type": "uint256"
        },
        {
          "internalType": "string",
          "name": "name",
          "type": "string"
        },
        {
          "internalType": "string",
          "name": "email",
          "type": "string"
        },
        {
          "internalType": "string",
          "name": "cellno",
          "type": "string"
        }
      ],
      "stateMutability": "view",
      "type": "function"
    },
    {
      "inputs": [
        {
          "internalType": "uint256",
          "name": "rideId",
          "type": "uint256"
        }
      ],
      "name": "completeRide",
      "outputs": [],
      "stateMutability": "nonpayable",
      "type": "function"
    },
    {
      "inputs": [
        {
          "internalType": "string",
          "name": "location",
          "type": "string"
        },
        {
          "internalType": "string",
          "name": "sourceLong",
          "type": "string"
        },
        {
          "internalType": "string",
          "name": "sourceLat",
          "type": "string"
        },
        {
          "internalType": "string",
          "name": "destLong",
          "type": "string"
        },
        {
          "internalType": "string",
          "name": "destLat",
          "type": "string"
        },
        {
          "internalType": "string",
          "name": "startTime",
          "type": "string"
        }
      ],
      "name": "createRide",
      "outputs": [
        {
          "internalType": "uint256",
          "name": "",
          "type": "uint256"
        }
      ],
      "stateMutability": "nonpayable",
      "type": "function"
    },
    {
      "inputs": [
        {
          "internalType": "address",
          "name": "",
          "type": "address"
        }
      ],
      "name": "driverIsRegistered",
      "outputs": [
        {
          "internalType": "bool",
          "name": "",
          "type": "bool"
        }
      ],
      "stateMutability": "view",
      "type": "function"
    },
    {
      "inputs": [],
      "name": "getAllRides",
      "outputs": [
        {
          "components": [
            {
              "internalType": "uint256",
              "name": "rideId",
              "type": "uint256"
            },
            {
              "internalType": "address payable",
              "name": "creator",
              "type": "address"
            },
            {
              "internalType": "string",
              "name": "StartTime",
              "type": "string"
            },
            {
              "internalType": "string",
              "name": "location",
              "type": "string"
            },
            {
              "internalType": "string",
              "name": "sourceLong",
              "type": "string"
            },
            {
              "internalType": "string",
              "name": "sourceLat",
              "type": "string"
            },
            {
              "internalType": "string",
              "name": "destLong",
              "type": "string"
            },
            {
              "internalType": "string",
              "name": "destLat",
              "type": "string"
            },
            {
              "internalType": "enum RideSharing.state",
              "name": "currState",
              "type": "uint8"
            },
            {
              "internalType": "bool",
              "name": "isPayed",
              "type": "bool"
            },
            {
              "internalType": "uint256",
              "name": "fair",
              "type": "uint256"
            }
          ],
          "internalType": "struct RideSharing.Ride[]",
          "name": "",
          "type": "tuple[]"
        }
      ],
      "stateMutability": "view",
      "type": "function"
    },
    {
      "inputs": [
        {
          "internalType": "address",
          "name": "_driver",
          "type": "address"
        }
      ],
      "name": "getDriverByAddress",
      "outputs": [
        {
          "internalType": "uint256",
          "name": "",
          "type": "uint256"
        }
      ],
      "stateMutability": "view",
      "type": "function"
    },
    {
      "inputs": [
        {
          "internalType": "uint256",
          "name": "DriverId",
          "type": "uint256"
        }
      ],
      "name": "getRidesByDriverId",
      "outputs": [
        {
          "components": [
            {
              "internalType": "uint256",
              "name": "rideId",
              "type": "uint256"
            },
            {
              "internalType": "address payable",
              "name": "creator",
              "type": "address"
            },
            {
              "internalType": "string",
              "name": "StartTime",
              "type": "string"
            },
            {
              "internalType": "string",
              "name": "location",
              "type": "string"
            },
            {
              "internalType": "string",
              "name": "sourceLong",
              "type": "string"
            },
            {
              "internalType": "string",
              "name": "sourceLat",
              "type": "string"
            },
            {
              "internalType": "string",
              "name": "destLong",
              "type": "string"
            },
            {
              "internalType": "string",
              "name": "destLat",
              "type": "string"
            },
            {
              "internalType": "enum RideSharing.state",
              "name": "currState",
              "type": "uint8"
            },
            {
              "internalType": "bool",
              "name": "isPayed",
              "type": "bool"
            },
            {
              "internalType": "uint256",
              "name": "fair",
              "type": "uint256"
            }
          ],
          "internalType": "struct RideSharing.Ride[]",
          "name": "",
          "type": "tuple[]"
        }
      ],
      "stateMutability": "view",
      "type": "function"
    },
    {
      "inputs": [
        {
          "internalType": "uint256",
          "name": "riderId",
          "type": "uint256"
        }
      ],
      "name": "getRidesByRiderId",
      "outputs": [
        {
          "components": [
            {
              "internalType": "uint256",
              "name": "rideId",
              "type": "uint256"
            },
            {
              "internalType": "address payable",
              "name": "creator",
              "type": "address"
            },
            {
              "internalType": "string",
              "name": "StartTime",
              "type": "string"
            },
            {
              "internalType": "string",
              "name": "location",
              "type": "string"
            },
            {
              "internalType": "string",
              "name": "sourceLong",
              "type": "string"
            },
            {
              "internalType": "string",
              "name": "sourceLat",
              "type": "string"
            },
            {
              "internalType": "string",
              "name": "destLong",
              "type": "string"
            },
            {
              "internalType": "string",
              "name": "destLat",
              "type": "string"
            },
            {
              "internalType": "enum RideSharing.state",
              "name": "currState",
              "type": "uint8"
            },
            {
              "internalType": "bool",
              "name": "isPayed",
              "type": "bool"
            },
            {
              "internalType": "uint256",
              "name": "fair",
              "type": "uint256"
            }
          ],
          "internalType": "struct RideSharing.Ride[]",
          "name": "",
          "type": "tuple[]"
        }
      ],
      "stateMutability": "view",
      "type": "function"
    },
    {
      "inputs": [
        {
          "internalType": "address",
          "name": "user",
          "type": "address"
        }
      ],
      "name": "getUserType",
      "outputs": [
        {
          "internalType": "uint256",
          "name": "",
          "type": "uint256"
        },
        {
          "internalType": "uint256",
          "name": "",
          "type": "uint256"
        },
        {
          "internalType": "uint256",
          "name": "",
          "type": "uint256"
        }
      ],
      "stateMutability": "view",
      "type": "function"
    },
    {
      "inputs": [
        {
          "internalType": "uint256",
          "name": "",
          "type": "uint256"
        }
      ],
      "name": "idToDriver",
      "outputs": [
        {
          "internalType": "uint256",
          "name": "Id",
          "type": "uint256"
        },
        {
          "internalType": "string",
          "name": "name",
          "type": "string"
        },
        {
          "internalType": "string",
          "name": "nic",
          "type": "string"
        },
        {
          "internalType": "string",
          "name": "email",
          "type": "string"
        },
        {
          "internalType": "string",
          "name": "cellno",
          "type": "string"
        },
        {
          "internalType": "string",
          "name": "LiscenceNo",
          "type": "string"
        },
        {
          "internalType": "bool",
          "name": "isRegistered",
          "type": "bool"
        },
        {
          "components": [
            {
              "internalType": "string",
              "name": "regNum",
              "type": "string"
            },
            {
              "internalType": "string",
              "name": "modelName",
              "type": "string"
            }
          ],
          "internalType": "struct RideSharing.Car",
          "name": "car",
          "type": "tuple"
        }
      ],
      "stateMutability": "view",
      "type": "function"
    },
    {
      "inputs": [
        {
          "internalType": "uint256",
          "name": "",
          "type": "uint256"
        }
      ],
      "name": "idToRide",
      "outputs": [
        {
          "internalType": "uint256",
          "name": "rideId",
          "type": "uint256"
        },
        {
          "internalType": "address payable",
          "name": "creator",
          "type": "address"
        },
        {
          "internalType": "string",
          "name": "StartTime",
          "type": "string"
        },
        {
          "internalType": "string",
          "name": "location",
          "type": "string"
        },
        {
          "internalType": "string",
          "name": "sourceLong",
          "type": "string"
        },
        {
          "internalType": "string",
          "name": "sourceLat",
          "type": "string"
        },
        {
          "internalType": "string",
          "name": "destLong",
          "type": "string"
        },
        {
          "internalType": "string",
          "name": "destLat",
          "type": "string"
        },
        {
          "internalType": "enum RideSharing.state",
          "name": "currState",
          "type": "uint8"
        },
        {
          "internalType": "bool",
          "name": "isPayed",
          "type": "bool"
        },
        {
          "internalType": "uint256",
          "name": "fair",
          "type": "uint256"
        }
      ],
      "stateMutability": "view",
      "type": "function"
    },
    {
      "inputs": [
        {
          "internalType": "uint256",
          "name": "",
          "type": "uint256"
        }
      ],
      "name": "idToRider",
      "outputs": [
        {
          "internalType": "uint256",
          "name": "Id",
          "type": "uint256"
        },
        {
          "internalType": "string",
          "name": "name",
          "type": "string"
        },
        {
          "internalType": "string",
          "name": "email",
          "type": "string"
        },
        {
          "internalType": "string",
          "name": "cellno",
          "type": "string"
        }
      ],
      "stateMutability": "view",
      "type": "function"
    },
    {
      "inputs": [
        {
          "internalType": "uint256",
          "name": "rideId",
          "type": "uint256"
        },
        {
          "internalType": "uint256",
          "name": "riderId",
          "type": "uint256"
        }
      ],
      "name": "joinRide",
      "outputs": [],
      "stateMutability": "nonpayable",
      "type": "function"
    },
    {
      "inputs": [
        {
          "internalType": "uint256",
          "name": "rideId",
          "type": "uint256"
        }
      ],
      "name": "payForRide",
      "outputs": [],
      "stateMutability": "payable",
      "type": "function"
    },
    {
      "inputs": [
        {
          "internalType": "string",
          "name": "_name",
          "type": "string"
        },
        {
          "internalType": "string",
          "name": "_nic",
          "type": "string"
        },
        {
          "internalType": "string",
          "name": "_email",
          "type": "string"
        },
        {
          "internalType": "string",
          "name": "_cellno",
          "type": "string"
        },
        {
          "internalType": "string",
          "name": "_regNum",
          "type": "string"
        },
        {
          "internalType": "string",
          "name": "_modelName",
          "type": "string"
        },
        {
          "internalType": "string",
          "name": "_LiscenceNo",
          "type": "string"
        }
      ],
      "name": "registerForDriver",
      "outputs": [],
      "stateMutability": "nonpayable",
      "type": "function"
    },
    {
      "inputs": [
        {
          "internalType": "string",
          "name": "_name",
          "type": "string"
        },
        {
          "internalType": "string",
          "name": "_email",
          "type": "string"
        },
        {
          "internalType": "string",
          "name": "_cellno",
          "type": "string"
        }
      ],
      "name": "registerForRider",
      "outputs": [],
      "stateMutability": "nonpayable",
      "type": "function"
    },
    {
      "inputs": [
        {
          "internalType": "uint256",
          "name": "",
          "type": "uint256"
        }
      ],
      "name": "riderIdtoride",
      "outputs": [
        {
          "internalType": "uint256",
          "name": "rideId",
          "type": "uint256"
        },
        {
          "internalType": "address payable",
          "name": "creator",
          "type": "address"
        },
        {
          "internalType": "string",
          "name": "StartTime",
          "type": "string"
        },
        {
          "internalType": "string",
          "name": "location",
          "type": "string"
        },
        {
          "internalType": "string",
          "name": "sourceLong",
          "type": "string"
        },
        {
          "internalType": "string",
          "name": "sourceLat",
          "type": "string"
        },
        {
          "internalType": "string",
          "name": "destLong",
          "type": "string"
        },
        {
          "internalType": "string",
          "name": "destLat",
          "type": "string"
        },
        {
          "internalType": "enum RideSharing.state",
          "name": "currState",
          "type": "uint8"
        },
        {
          "internalType": "bool",
          "name": "isPayed",
          "type": "bool"
        },
        {
          "internalType": "uint256",
          "name": "fair",
          "type": "uint256"
        }
      ],
      "stateMutability": "view",
      "type": "function"
    },
    {
      "inputs": [
        {
          "internalType": "uint256",
          "name": "",
          "type": "uint256"
        }
      ],
      "name": "riderIdtorideId",
      "outputs": [
        {
          "internalType": "uint256",
          "name": "",
          "type": "uint256"
        }
      ],
      "stateMutability": "view",
      "type": "function"
    },
    {
      "inputs": [
        {
          "internalType": "address",
          "name": "",
          "type": "address"
        }
      ],
      "name": "riderIsRegistered",
      "outputs": [
        {
          "internalType": "bool",
          "name": "",
          "type": "bool"
        }
      ],
      "stateMutability": "view",
      "type": "function"
    },
    {
      "inputs": [
        {
          "internalType": "uint256",
          "name": "rideId",
          "type": "uint256"
        },
        {
          "internalType": "uint256",
          "name": "fair",
          "type": "uint256"
        }
      ],
      "name": "setFair",
      "outputs": [],
      "stateMutability": "nonpayable",
      "type": "function"
    },
    {
      "inputs": [
        {
          "internalType": "uint256",
          "name": "rideId",
          "type": "uint256"
        }
      ],
      "name": "startRide",
      "outputs": [],
      "stateMutability": "nonpayable",
      "type": "function"
    }
  ],
  "bytecode": "0x608060405234801561001057600080fd5b50615e6a80620000216000396000f3fe6080604052600436106101405760003560e01c80639e473a47116100b6578063d7e78c611161006f578063d7e78c61146104e5578063e147d7871461052c578063e656b57814610569578063e9c14b1e146105a9578063ec7a5220146105d2578063f2c5c2f11461061657610140565b80639e473a4714610398578063a9b6bbde146103d5578063ba1ac37714610412578063bbe3803a1461043b578063c092e39914610478578063c416dd0b146104bc57610140565b80632acc07e0116101085780632acc07e014610244578063472b06c014610281578063632c728e146102aa57806366ec451c146102e7578063787660c31461032e5780638b3f863f1461035957610140565b806305c41e0e146101455780630c826fa1146101855780630df39bb1146101ae5780631840110a146101ca5780631a5378fa14610207575b600080fd5b34801561015157600080fd5b5061016c60048036038101906101679190615392565b61063f565b60405161017c94939291906158f9565b60405180910390f35b34801561019157600080fd5b506101ac60048036038101906101a791906153bb565b610807565b005b6101c860048036038101906101c39190615392565b61082c565b005b3480156101d657600080fd5b506101f160048036038101906101ec9190615392565b610e62565b6040516101fe9190615809565b60405180910390f35b34801561021357600080fd5b5061022e60048036038101906102299190615392565b610e7a565b60405161023b919061574c565b60405180910390f35b34801561025057600080fd5b5061026b60048036038101906102669190615133565b611484565b6040516102789190615809565b60405180910390f35b34801561028d57600080fd5b506102a860048036038101906102a3919061509c565b611905565b005b3480156102b657600080fd5b506102d160048036038101906102cc9190615392565b611b8e565b6040516102de919061574c565b60405180910390f35b3480156102f357600080fd5b5061030e60048036038101906103099190615392565b612198565b6040516103259b9a99989796959493929190615824565b60405180910390f35b34801561033a57600080fd5b5061034361255c565b604051610350919061574c565b60405180910390f35b34801561036557600080fd5b50610380600480360381019061037b9190615073565b612b02565b60405161038f939291906159fb565b60405180910390f35b3480156103a457600080fd5b506103bf60048036038101906103ba9190615073565b613244565b6040516103cc919061576e565b60405180910390f35b3480156103e157600080fd5b506103fc60048036038101906103f79190615073565b613264565b6040516104099190615809565b60405180910390f35b34801561041e57600080fd5b506104396004803603810190610434919061524c565b6132b5565b005b34801561044757600080fd5b50610462600480360381019061045d9190615392565b6136b6565b60405161046f9190615809565b60405180910390f35b34801561048457600080fd5b5061049f600480360381019061049a9190615073565b6136ce565b6040516104b3989796959493929190615953565b60405180910390f35b3480156104c857600080fd5b506104e360048036038101906104de9190615392565b613af9565b005b3480156104f157600080fd5b5061050c60048036038101906105079190615392565b613b67565b6040516105239b9a99989796959493929190615824565b60405180910390f35b34801561053857600080fd5b50610553600480360381019061054e9190615073565b613f2b565b604051610560919061576e565b60405180910390f35b34801561057557600080fd5b50610590600480360381019061058b9190615073565b613f4b565b6040516105a094939291906158f9565b60405180910390f35b3480156105b557600080fd5b506105d060048036038101906105cb9190615392565b614113565b005b3480156105de57600080fd5b506105f960048036038101906105f49190615392565b614181565b60405161060d989796959493929190615953565b60405180910390f35b34801561062257600080fd5b5061063d600480360381019061063891906153bb565b6145ac565b005b600660205280600052604060002060009150905080600001549080600101805461066890615baf565b80601f016020809104026020016040519081016040528092919081815260200182805461069490615baf565b80156106e15780601f106106b6576101008083540402835291602001916106e1565b820191906000526020600020905b8154815290600101906020018083116106c457829003601f168201915b5050505050908060020180546106f690615baf565b80601f016020809104026020016040519081016040528092919081815260200182805461072290615baf565b801561076f5780601f106107445761010080835404028352916020019161076f565b820191906000526020600020905b81548152906001019060200180831161075257829003601f168201915b50505050509080600301805461078490615baf565b80601f01602080910402602001604051908101604052809291908181526020018280546107b090615baf565b80156107fd5780601f106107d2576101008083540402835291602001916107fd565b820191906000526020600020905b8154815290600101906020018083116107e057829003601f168201915b5050505050905084565b6000600a60008481526020019081526020016000209050818160090181905550505050565b6000600a600083815260200190815260200160002060405180610160016040529081600082015481526020016001820160009054906101000a900473ffffffffffffffffffffffffffffffffffffffff1673ffffffffffffffffffffffffffffffffffffffff1673ffffffffffffffffffffffffffffffffffffffff1681526020016002820180546108bd90615baf565b80601f01602080910402602001604051908101604052809291908181526020018280546108e990615baf565b80156109365780601f1061090b57610100808354040283529160200191610936565b820191906000526020600020905b81548152906001019060200180831161091957829003601f168201915b5050505050815260200160038201805461094f90615baf565b80601f016020809104026020016040519081016040528092919081815260200182805461097b90615baf565b80156109c85780601f1061099d576101008083540402835291602001916109c8565b820191906000526020600020905b8154815290600101906020018083116109ab57829003601f168201915b505050505081526020016004820180546109e190615baf565b80601f0160208091040260200160405190810160405280929190818152602001828054610a0d90615baf565b8015610a5a5780601f10610a2f57610100808354040283529160200191610a5a565b820191906000526020600020905b815481529060010190602001808311610a3d57829003601f168201915b50505050508152602001600582018054610a7390615baf565b80601f0160208091040260200160405190810160405280929190818152602001828054610a9f90615baf565b8015610aec5780601f10610ac157610100808354040283529160200191610aec565b820191906000526020600020905b815481529060010190602001808311610acf57829003601f168201915b50505050508152602001600682018054610b0590615baf565b80601f0160208091040260200160405190810160405280929190818152602001828054610b3190615baf565b8015610b7e5780601f10610b5357610100808354040283529160200191610b7e565b820191906000526020600020905b815481529060010190602001808311610b6157829003601f168201915b50505050508152602001600782018054610b9790615baf565b80601f0160208091040260200160405190810160405280929190818152602001828054610bc390615baf565b8015610c105780601f10610be557610100808354040283529160200191610c10565b820191906000526020600020905b815481529060010190602001808311610bf357829003601f168201915b505050505081526020016008820160009054906101000a900460ff166002811115610c64577f4e487b7100000000000000000000000000000000000000000000000000000000600052602160045260246000fd5b6002811115610c9c577f4e487b7100000000000000000000000000000000000000000000000000000000600052602160045260246000fd5b81526020016008820160019054906101000a900460ff16151515158152602001600982015481525050905060016002811115610d01577f4e487b7100000000000000000000000000000000000000000000000000000000600052602160045260246000fd5b8161010001516002811115610d3f577f4e487b7100000000000000000000000000000000000000000000000000000000600052602160045260246000fd5b1415610d80576040517f56f5dc62000000000000000000000000000000000000000000000000000000008152600401610d7790615789565b60405180910390fd5b600081602001519050816101400151341015610dd1576040517fb399a5e0000000000000000000000000000000000000000000000000000000008152600401610dc8906157e9565b60405180910390fd5b60008173ffffffffffffffffffffffffffffffffffffffff166108fc349081150290604051600060405180830381858888f19350505050905080610e4a576040517f08c379a0000000000000000000000000000000000000000000000000000000008152600401610e41906157a9565b60405180910390fd5b60018361012001901515908115158152505050505050565b600b6020528060005260406000206000915090505481565b60606000806000600190505b610e906001614e70565b8111610ed3578460096000838152602001908152602001600020541415610ec0578280610ebc90615c12565b9350505b8080610ecb90615c12565b915050610e86565b5060008267ffffffffffffffff811115610f16577f4e487b7100000000000000000000000000000000000000000000000000000000600052604160045260246000fd5b604051908082528060200260200182016040528015610f4f57816020015b610f3c614e94565b815260200190600190039081610f345790505b5090506000600190505b83811161147857856009600083815260200190815260200160002054141561146557600e600087815260200190815260200160002060405180610160016040529081600082015481526020016001820160009054906101000a900473ffffffffffffffffffffffffffffffffffffffff1673ffffffffffffffffffffffffffffffffffffffff1673ffffffffffffffffffffffffffffffffffffffff16815260200160028201805461100a90615baf565b80601f016020809104026020016040519081016040528092919081815260200182805461103690615baf565b80156110835780601f1061105857610100808354040283529160200191611083565b820191906000526020600020905b81548152906001019060200180831161106657829003601f168201915b5050505050815260200160038201805461109c90615baf565b80601f01602080910402602001604051908101604052809291908181526020018280546110c890615baf565b80156111155780601f106110ea57610100808354040283529160200191611115565b820191906000526020600020905b8154815290600101906020018083116110f857829003601f168201915b5050505050815260200160048201805461112e90615baf565b80601f016020809104026020016040519081016040528092919081815260200182805461115a90615baf565b80156111a75780601f1061117c576101008083540402835291602001916111a7565b820191906000526020600020905b81548152906001019060200180831161118a57829003601f168201915b505050505081526020016005820180546111c090615baf565b80601f01602080910402602001604051908101604052809291908181526020018280546111ec90615baf565b80156112395780601f1061120e57610100808354040283529160200191611239565b820191906000526020600020905b81548152906001019060200180831161121c57829003601f168201915b5050505050815260200160068201805461125290615baf565b80601f016020809104026020016040519081016040528092919081815260200182805461127e90615baf565b80156112cb5780601f106112a0576101008083540402835291602001916112cb565b820191906000526020600020905b8154815290600101906020018083116112ae57829003601f168201915b505050505081526020016007820180546112e490615baf565b80601f016020809104026020016040519081016040528092919081815260200182805461131090615baf565b801561135d5780601f106113325761010080835404028352916020019161135d565b820191906000526020600020905b81548152906001019060200180831161134057829003601f168201915b505050505081526020016008820160009054906101000a900460ff1660028111156113b1577f4e487b7100000000000000000000000000000000000000000000000000000000600052602160045260246000fd5b60028111156113e9577f4e487b7100000000000000000000000000000000000000000000000000000000600052602160045260246000fd5b81526020016008820160019054906101000a900460ff1615151515815260200160098201548152505082848151811061144b577f4e487b7100000000000000000000000000000000000000000000000000000000600052603260045260246000fd5b6020026020010181905250828061146190615c12565b9350505b808061147090615c12565b915050610f59565b50809350505050919050565b600060011515600360003373ffffffffffffffffffffffffffffffffffffffff1673ffffffffffffffffffffffffffffffffffffffff16815260200190815260200160002060009054906101000a900460ff161515146114e357600080fd5b60006114ee33613264565b90506114fa6001614e7e565b60006115066001614e70565b905060006040518061016001604052808381526020013373ffffffffffffffffffffffffffffffffffffffff1681526020018681526020018b81526020018a815260200189815260200188815260200187815260200160006002811115611596577f4e487b7100000000000000000000000000000000000000000000000000000000600052602160045260246000fd5b81526020016000151581526020016000815250905080600a60008481526020019081526020016000206000820151816000015560208201518160010160006101000a81548173ffffffffffffffffffffffffffffffffffffffff021916908373ffffffffffffffffffffffffffffffffffffffff160217905550604082015181600201908051906020019061162c929190614f3e565b506060820151816003019080519060200190611649929190614f3e565b506080820151816004019080519060200190611666929190614f3e565b5060a0820151816005019080519060200190611683929190614f3e565b5060c08201518160060190805190602001906116a0929190614f3e565b5060e08201518160070190805190602001906116bd929190614f3e565b506101008201518160080160006101000a81548160ff02191690836002811115611710577f4e487b7100000000000000000000000000000000000000000000000000000000600052602160045260246000fd5b02179055506101208201518160080160016101000a81548160ff021916908315150217905550610140820151816009015590505082600960008481526020019081526020016000208190555080600e60008581526020019081526020016000206000820151816000015560208201518160010160006101000a81548173ffffffffffffffffffffffffffffffffffffffff021916908373ffffffffffffffffffffffffffffffffffffffff16021790555060408201518160020190805190602001906117dd929190614f3e565b5060608201518160030190805190602001906117fa929190614f3e565b506080820151816004019080519060200190611817929190614f3e565b5060a0820151816005019080519060200190611834929190614f3e565b5060c0820151816006019080519060200190611851929190614f3e565b5060e082015181600701908051906020019061186e929190614f3e565b506101008201518160080160006101000a81548160ff021916908360028111156118c1577f4e487b7100000000000000000000000000000000000000000000000000000000600052602160045260246000fd5b02179055506101208201518160080160016101000a81548160ff02191690831515021790555061014082015181600901559050508193505050509695505050505050565b60011515600460003373ffffffffffffffffffffffffffffffffffffffff1673ffffffffffffffffffffffffffffffffffffffff16815260200190815260200160002060009054906101000a900460ff1615151415611999576040517f0a7a3d7c000000000000000000000000000000000000000000000000000000008152600401611990906157c9565b60405180910390fd5b6119a36002614e7e565b60006119af6002614e70565b9050600060405180608001604052808381526020018681526020018581526020018481525090506001600460003373ffffffffffffffffffffffffffffffffffffffff1673ffffffffffffffffffffffffffffffffffffffff16815260200190815260200160002060006101000a81548160ff0219169083151502179055508060066000848152602001908152602001600020600082015181600001556020820151816001019080519060200190611a68929190614f3e565b506040820151816002019080519060200190611a85929190614f3e565b506060820151816003019080519060200190611aa2929190614f3e565b5090505080600860003373ffffffffffffffffffffffffffffffffffffffff1673ffffffffffffffffffffffffffffffffffffffff168152602001908152602001600020600082015181600001556020820151816001019080519060200190611b0c929190614f3e565b506040820151816002019080519060200190611b29929190614f3e565b506060820151816003019080519060200190611b46929190614f3e565b509050507f22e9c31ba948c6fb17673cf7d4f73d44f2090424bd885b5c4adb3b24b00ba0fe82868686604051611b7f94939291906158f9565b60405180910390a15050505050565b60606000806000600190505b611ba46001614e70565b8111611be75784600f6000838152602001908152602001600020541415611bd4578280611bd090615c12565b9350505b8080611bdf90615c12565b915050611b9a565b5060008267ffffffffffffffff811115611c2a577f4e487b7100000000000000000000000000000000000000000000000000000000600052604160045260246000fd5b604051908082528060200260200182016040528015611c6357816020015b611c50614e94565b815260200190600190039081611c485790505b5090506000600190505b83811161218c5785600f600083815260200190815260200160002054141561217957600c600082815260200190815260200160002060405180610160016040529081600082015481526020016001820160009054906101000a900473ffffffffffffffffffffffffffffffffffffffff1673ffffffffffffffffffffffffffffffffffffffff1673ffffffffffffffffffffffffffffffffffffffff168152602001600282018054611d1e90615baf565b80601f0160208091040260200160405190810160405280929190818152602001828054611d4a90615baf565b8015611d975780601f10611d6c57610100808354040283529160200191611d97565b820191906000526020600020905b815481529060010190602001808311611d7a57829003601f168201915b50505050508152602001600382018054611db090615baf565b80601f0160208091040260200160405190810160405280929190818152602001828054611ddc90615baf565b8015611e295780601f10611dfe57610100808354040283529160200191611e29565b820191906000526020600020905b815481529060010190602001808311611e0c57829003601f168201915b50505050508152602001600482018054611e4290615baf565b80601f0160208091040260200160405190810160405280929190818152602001828054611e6e90615baf565b8015611ebb5780601f10611e9057610100808354040283529160200191611ebb565b820191906000526020600020905b815481529060010190602001808311611e9e57829003601f168201915b50505050508152602001600582018054611ed490615baf565b80601f0160208091040260200160405190810160405280929190818152602001828054611f0090615baf565b8015611f4d5780601f10611f2257610100808354040283529160200191611f4d565b820191906000526020600020905b815481529060010190602001808311611f3057829003601f168201915b50505050508152602001600682018054611f6690615baf565b80601f0160208091040260200160405190810160405280929190818152602001828054611f9290615baf565b8015611fdf5780601f10611fb457610100808354040283529160200191611fdf565b820191906000526020600020905b815481529060010190602001808311611fc257829003601f168201915b50505050508152602001600782018054611ff890615baf565b80601f016020809104026020016040519081016040528092919081815260200182805461202490615baf565b80156120715780601f1061204657610100808354040283529160200191612071565b820191906000526020600020905b81548152906001019060200180831161205457829003601f168201915b505050505081526020016008820160009054906101000a900460ff1660028111156120c5577f4e487b7100000000000000000000000000000000000000000000000000000000600052602160045260246000fd5b60028111156120fd577f4e487b7100000000000000000000000000000000000000000000000000000000600052602160045260246000fd5b81526020016008820160019054906101000a900460ff1615151515815260200160098201548152505082848151811061215f577f4e487b7100000000000000000000000000000000000000000000000000000000600052603260045260246000fd5b6020026020010181905250828061217590615c12565b9350505b808061218490615c12565b915050611c6d565b50809350505050919050565b600a6020528060005260406000206000915090508060000154908060010160009054906101000a900473ffffffffffffffffffffffffffffffffffffffff16908060020180546121e790615baf565b80601f016020809104026020016040519081016040528092919081815260200182805461221390615baf565b80156122605780601f1061223557610100808354040283529160200191612260565b820191906000526020600020905b81548152906001019060200180831161224357829003601f168201915b50505050509080600301805461227590615baf565b80601f01602080910402602001604051908101604052809291908181526020018280546122a190615baf565b80156122ee5780601f106122c3576101008083540402835291602001916122ee565b820191906000526020600020905b8154815290600101906020018083116122d157829003601f168201915b50505050509080600401805461230390615baf565b80601f016020809104026020016040519081016040528092919081815260200182805461232f90615baf565b801561237c5780601f106123515761010080835404028352916020019161237c565b820191906000526020600020905b81548152906001019060200180831161235f57829003601f168201915b50505050509080600501805461239190615baf565b80601f01602080910402602001604051908101604052809291908181526020018280546123bd90615baf565b801561240a5780601f106123df5761010080835404028352916020019161240a565b820191906000526020600020905b8154815290600101906020018083116123ed57829003601f168201915b50505050509080600601805461241f90615baf565b80601f016020809104026020016040519081016040528092919081815260200182805461244b90615baf565b80156124985780601f1061246d57610100808354040283529160200191612498565b820191906000526020600020905b81548152906001019060200180831161247b57829003601f168201915b5050505050908060070180546124ad90615baf565b80601f01602080910402602001604051908101604052809291908181526020018280546124d990615baf565b80156125265780601f106124fb57610100808354040283529160200191612526565b820191906000526020600020905b81548152906001019060200180831161250957829003601f168201915b5050505050908060080160009054906101000a900460ff16908060080160019054906101000a900460ff1690806009015490508b565b606060008061256b6001614e70565b67ffffffffffffffff8111156125aa577f4e487b7100000000000000000000000000000000000000000000000000000000600052604160045260246000fd5b6040519080825280602002602001820160405280156125e357816020015b6125d0614e94565b8152602001906001900390816125c85790505b5090506000600190505b6125f76001614e70565b8111612af957600a600082815260200190815260200160002060405180610160016040529081600082015481526020016001820160009054906101000a900473ffffffffffffffffffffffffffffffffffffffff1673ffffffffffffffffffffffffffffffffffffffff1673ffffffffffffffffffffffffffffffffffffffff16815260200160028201805461268c90615baf565b80601f01602080910402602001604051908101604052809291908181526020018280546126b890615baf565b80156127055780601f106126da57610100808354040283529160200191612705565b820191906000526020600020905b8154815290600101906020018083116126e857829003601f168201915b5050505050815260200160038201805461271e90615baf565b80601f016020809104026020016040519081016040528092919081815260200182805461274a90615baf565b80156127975780601f1061276c57610100808354040283529160200191612797565b820191906000526020600020905b81548152906001019060200180831161277a57829003601f168201915b505050505081526020016004820180546127b090615baf565b80601f01602080910402602001604051908101604052809291908181526020018280546127dc90615baf565b80156128295780601f106127fe57610100808354040283529160200191612829565b820191906000526020600020905b81548152906001019060200180831161280c57829003601f168201915b5050505050815260200160058201805461284290615baf565b80601f016020809104026020016040519081016040528092919081815260200182805461286e90615baf565b80156128bb5780601f10612890576101008083540402835291602001916128bb565b820191906000526020600020905b81548152906001019060200180831161289e57829003601f168201915b505050505081526020016006820180546128d490615baf565b80601f016020809104026020016040519081016040528092919081815260200182805461290090615baf565b801561294d5780601f106129225761010080835404028352916020019161294d565b820191906000526020600020905b81548152906001019060200180831161293057829003601f168201915b5050505050815260200160078201805461296690615baf565b80601f016020809104026020016040519081016040528092919081815260200182805461299290615baf565b80156129df5780601f106129b4576101008083540402835291602001916129df565b820191906000526020600020905b8154815290600101906020018083116129c257829003601f168201915b505050505081526020016008820160009054906101000a900460ff166002811115612a33577f4e487b7100000000000000000000000000000000000000000000000000000000600052602160045260246000fd5b6002811115612a6b577f4e487b7100000000000000000000000000000000000000000000000000000000600052602160045260246000fd5b81526020016008820160019054906101000a900460ff16151515158152602001600982015481525050828481518110612acd577f4e487b7100000000000000000000000000000000000000000000000000000000600052603260045260246000fd5b60200260200101819052508280612ae390615c12565b9350508080612af190615c12565b9150506125ed565b50809250505090565b6000806000806000806000600860008973ffffffffffffffffffffffffffffffffffffffff1673ffffffffffffffffffffffffffffffffffffffff16815260200190815260200160002060405180608001604052908160008201548152602001600182018054612b7190615baf565b80601f0160208091040260200160405190810160405280929190818152602001828054612b9d90615baf565b8015612bea5780601f10612bbf57610100808354040283529160200191612bea565b820191906000526020600020905b815481529060010190602001808311612bcd57829003601f168201915b50505050508152602001600282018054612c0390615baf565b80601f0160208091040260200160405190810160405280929190818152602001828054612c2f90615baf565b8015612c7c5780601f10612c5157610100808354040283529160200191612c7c565b820191906000526020600020905b815481529060010190602001808311612c5f57829003601f168201915b50505050508152602001600382018054612c9590615baf565b80601f0160208091040260200160405190810160405280929190818152602001828054612cc190615baf565b8015612d0e5780601f10612ce357610100808354040283529160200191612d0e565b820191906000526020600020905b815481529060010190602001808311612cf157829003601f168201915b50505050508152505090506000600760008a73ffffffffffffffffffffffffffffffffffffffff1673ffffffffffffffffffffffffffffffffffffffff1681526020019081526020016000206040518061010001604052908160008201548152602001600182018054612d8090615baf565b80601f0160208091040260200160405190810160405280929190818152602001828054612dac90615baf565b8015612df95780601f10612dce57610100808354040283529160200191612df9565b820191906000526020600020905b815481529060010190602001808311612ddc57829003601f168201915b50505050508152602001600282018054612e1290615baf565b80601f0160208091040260200160405190810160405280929190818152602001828054612e3e90615baf565b8015612e8b5780601f10612e6057610100808354040283529160200191612e8b565b820191906000526020600020905b815481529060010190602001808311612e6e57829003601f168201915b50505050508152602001600382018054612ea490615baf565b80601f0160208091040260200160405190810160405280929190818152602001828054612ed090615baf565b8015612f1d5780601f10612ef257610100808354040283529160200191612f1d565b820191906000526020600020905b815481529060010190602001808311612f0057829003601f168201915b50505050508152602001600482018054612f3690615baf565b80601f0160208091040260200160405190810160405280929190818152602001828054612f6290615baf565b8015612faf5780601f10612f8457610100808354040283529160200191612faf565b820191906000526020600020905b815481529060010190602001808311612f9257829003601f168201915b50505050508152602001600582018054612fc890615baf565b80601f0160208091040260200160405190810160405280929190818152602001828054612ff490615baf565b80156130415780601f1061301657610100808354040283529160200191613041565b820191906000526020600020905b81548152906001019060200180831161302457829003601f168201915b505050505081526020016006820160009054906101000a900460ff161515151581526020016007820160405180604001604052908160008201805461308590615baf565b80601f01602080910402602001604051908101604052809291908181526020018280546130b190615baf565b80156130fe5780601f106130d3576101008083540402835291602001916130fe565b820191906000526020600020905b8154815290600101906020018083116130e157829003601f168201915b5050505050815260200160018201805461311790615baf565b80601f016020809104026020016040519081016040528092919081815260200182805461314390615baf565b80156131905780601f1061316557610100808354040283529160200191613190565b820191906000526020600020905b81548152906001019060200180831161317357829003601f168201915b505050505081525050815250509050600082600001511480156131b857506000816000015114155b156131cd57600194508060000151925061322f565b60008260000151141580156131e6575060008160000151145b156131fb57600294508160000151935061322e565b600082600001511415801561321557506000816000015114155b1561322d576003945080600001519250816000015193505b5b5b84848497509750975050505050509193909250565b60036020528060005260406000206000915054906101000a900460ff1681565b600080600760008473ffffffffffffffffffffffffffffffffffffffff1673ffffffffffffffffffffffffffffffffffffffff16815260200190815260200160002090508060000154915050919050565b60011515600360003373ffffffffffffffffffffffffffffffffffffffff1673ffffffffffffffffffffffffffffffffffffffff16815260200190815260200160002060009054906101000a900460ff1615151415613349576040517f0a7a3d7c000000000000000000000000000000000000000000000000000000008152600401613340906157c9565b60405180910390fd5b6000604051806040016040528085815260200184815250905061336c6000614e7e565b60006133786000614e70565b905060006040518061010001604052808381526020018b81526020018a81526020018981526020018881526020018581526020016001151581526020018481525090506001600360003373ffffffffffffffffffffffffffffffffffffffff1673ffffffffffffffffffffffffffffffffffffffff16815260200190815260200160002060006101000a81548160ff021916908315150217905550806005600084815260200190815260200160002060008201518160000155602082015181600101908051906020019061344d929190614f3e565b50604082015181600201908051906020019061346a929190614f3e565b506060820151816003019080519060200190613487929190614f3e565b5060808201518160040190805190602001906134a4929190614f3e565b5060a08201518160050190805190602001906134c1929190614f3e565b5060c08201518160060160006101000a81548160ff02191690831515021790555060e0820151816007016000820151816000019080519060200190613507929190614f3e565b506020820151816001019080519060200190613524929190614f3e565b50505090505080600760003373ffffffffffffffffffffffffffffffffffffffff1673ffffffffffffffffffffffffffffffffffffffff168152602001908152602001600020600082015181600001556020820151816001019080519060200190613590929190614f3e565b5060408201518160020190805190602001906135ad929190614f3e565b5060608201518160030190805190602001906135ca929190614f3e565b5060808201518160040190805190602001906135e7929190614f3e565b5060a0820151816005019080519060200190613604929190614f3e565b5060c08201518160060160006101000a81548160ff02191690831515021790555060e082015181600701600082015181600001908051906020019061364a929190614f3e565b506020820151816001019080519060200190613667929190614f3e565b5050509050507f3de04171a543da1b7f9e1fabae52c6c8f0ab266b234a95ede56668caebce1bec828b8b896040516136a294939291906158f9565b60405180910390a150505050505050505050565b60096020528060005260406000206000915090505481565b60076020528060005260406000206000915090508060000154908060010180546136f790615baf565b80601f016020809104026020016040519081016040528092919081815260200182805461372390615baf565b80156137705780601f1061374557610100808354040283529160200191613770565b820191906000526020600020905b81548152906001019060200180831161375357829003601f168201915b50505050509080600201805461378590615baf565b80601f01602080910402602001604051908101604052809291908181526020018280546137b190615baf565b80156137fe5780601f106137d3576101008083540402835291602001916137fe565b820191906000526020600020905b8154815290600101906020018083116137e157829003601f168201915b50505050509080600301805461381390615baf565b80601f016020809104026020016040519081016040528092919081815260200182805461383f90615baf565b801561388c5780601f106138615761010080835404028352916020019161388c565b820191906000526020600020905b81548152906001019060200180831161386f57829003601f168201915b5050505050908060040180546138a190615baf565b80601f01602080910402602001604051908101604052809291908181526020018280546138cd90615baf565b801561391a5780601f106138ef5761010080835404028352916020019161391a565b820191906000526020600020905b8154815290600101906020018083116138fd57829003601f168201915b50505050509080600501805461392f90615baf565b80601f016020809104026020016040519081016040528092919081815260200182805461395b90615baf565b80156139a85780601f1061397d576101008083540402835291602001916139a8565b820191906000526020600020905b81548152906001019060200180831161398b57829003601f168201915b5050505050908060060160009054906101000a900460ff1690806007016040518060400160405290816000820180546139e090615baf565b80601f0160208091040260200160405190810160405280929190818152602001828054613a0c90615baf565b8015613a595780601f10613a2e57610100808354040283529160200191613a59565b820191906000526020600020905b815481529060010190602001808311613a3c57829003601f168201915b50505050508152602001600182018054613a7290615baf565b80601f0160208091040260200160405190810160405280929190818152602001828054613a9e90615baf565b8015613aeb5780601f10613ac057610100808354040283529160200191613aeb565b820191906000526020600020905b815481529060010190602001808311613ace57829003601f168201915b505050505081525050905088565b6000600a6000838152602001908152602001600020905060028160080160006101000a81548160ff02191690836002811115613b5e577f4e487b7100000000000000000000000000000000000000000000000000000000600052602160045260246000fd5b02179055505050565b600c6020528060005260406000206000915090508060000154908060010160009054906101000a900473ffffffffffffffffffffffffffffffffffffffff1690806002018054613bb690615baf565b80601f0160208091040260200160405190810160405280929190818152602001828054613be290615baf565b8015613c2f5780601f10613c0457610100808354040283529160200191613c2f565b820191906000526020600020905b815481529060010190602001808311613c1257829003601f168201915b505050505090806003018054613c4490615baf565b80601f0160208091040260200160405190810160405280929190818152602001828054613c7090615baf565b8015613cbd5780601f10613c9257610100808354040283529160200191613cbd565b820191906000526020600020905b815481529060010190602001808311613ca057829003601f168201915b505050505090806004018054613cd290615baf565b80601f0160208091040260200160405190810160405280929190818152602001828054613cfe90615baf565b8015613d4b5780601f10613d2057610100808354040283529160200191613d4b565b820191906000526020600020905b815481529060010190602001808311613d2e57829003601f168201915b505050505090806005018054613d6090615baf565b80601f0160208091040260200160405190810160405280929190818152602001828054613d8c90615baf565b8015613dd95780601f10613dae57610100808354040283529160200191613dd9565b820191906000526020600020905b815481529060010190602001808311613dbc57829003601f168201915b505050505090806006018054613dee90615baf565b80601f0160208091040260200160405190810160405280929190818152602001828054613e1a90615baf565b8015613e675780601f10613e3c57610100808354040283529160200191613e67565b820191906000526020600020905b815481529060010190602001808311613e4a57829003601f168201915b505050505090806007018054613e7c90615baf565b80601f0160208091040260200160405190810160405280929190818152602001828054613ea890615baf565b8015613ef55780601f10613eca57610100808354040283529160200191613ef5565b820191906000526020600020905b815481529060010190602001808311613ed857829003601f168201915b5050505050908060080160009054906101000a900460ff16908060080160019054906101000a900460ff1690806009015490508b565b60046020528060005260406000206000915054906101000a900460ff1681565b6008602052806000526040600020600091509050806000015490806001018054613f7490615baf565b80601f0160208091040260200160405190810160405280929190818152602001828054613fa090615baf565b8015613fed5780601f10613fc257610100808354040283529160200191613fed565b820191906000526020600020905b815481529060010190602001808311613fd057829003601f168201915b50505050509080600201805461400290615baf565b80601f016020809104026020016040519081016040528092919081815260200182805461402e90615baf565b801561407b5780601f106140505761010080835404028352916020019161407b565b820191906000526020600020905b81548152906001019060200180831161405e57829003601f168201915b50505050509080600301805461409090615baf565b80601f01602080910402602001604051908101604052809291908181526020018280546140bc90615baf565b80156141095780601f106140de57610100808354040283529160200191614109565b820191906000526020600020905b8154815290600101906020018083116140ec57829003601f168201915b5050505050905084565b6000600a6000838152602001908152602001600020905060028160080160006101000a81548160ff02191690836002811115614178577f4e487b7100000000000000000000000000000000000000000000000000000000600052602160045260246000fd5b02179055505050565b60056020528060005260406000206000915090508060000154908060010180546141aa90615baf565b80601f01602080910402602001604051908101604052809291908181526020018280546141d690615baf565b80156142235780601f106141f857610100808354040283529160200191614223565b820191906000526020600020905b81548152906001019060200180831161420657829003601f168201915b50505050509080600201805461423890615baf565b80601f016020809104026020016040519081016040528092919081815260200182805461426490615baf565b80156142b15780601f10614286576101008083540402835291602001916142b1565b820191906000526020600020905b81548152906001019060200180831161429457829003601f168201915b5050505050908060030180546142c690615baf565b80601f01602080910402602001604051908101604052809291908181526020018280546142f290615baf565b801561433f5780601f106143145761010080835404028352916020019161433f565b820191906000526020600020905b81548152906001019060200180831161432257829003601f168201915b50505050509080600401805461435490615baf565b80601f016020809104026020016040519081016040528092919081815260200182805461438090615baf565b80156143cd5780601f106143a2576101008083540402835291602001916143cd565b820191906000526020600020905b8154815290600101906020018083116143b057829003601f168201915b5050505050908060050180546143e290615baf565b80601f016020809104026020016040519081016040528092919081815260200182805461440e90615baf565b801561445b5780601f106144305761010080835404028352916020019161445b565b820191906000526020600020905b81548152906001019060200180831161443e57829003601f168201915b5050505050908060060160009054906101000a900460ff16908060070160405180604001604052908160008201805461449390615baf565b80601f01602080910402602001604051908101604052809291908181526020018280546144bf90615baf565b801561450c5780601f106144e15761010080835404028352916020019161450c565b820191906000526020600020905b8154815290600101906020018083116144ef57829003601f168201915b5050505050815260200160018201805461452590615baf565b80601f016020809104026020016040519081016040528092919081815260200182805461455190615baf565b801561459e5780601f106145735761010080835404028352916020019161459e565b820191906000526020600020905b81548152906001019060200180831161458157829003601f168201915b505050505081525050905088565b81600b600083815260200190815260200160002081905550600060066000838152602001908152602001600020604051806080016040529081600082015481526020016001820180546145fe90615baf565b80601f016020809104026020016040519081016040528092919081815260200182805461462a90615baf565b80156146775780601f1061464c57610100808354040283529160200191614677565b820191906000526020600020905b81548152906001019060200180831161465a57829003601f168201915b5050505050815260200160028201805461469090615baf565b80601f01602080910402602001604051908101604052809291908181526020018280546146bc90615baf565b80156147095780601f106146de57610100808354040283529160200191614709565b820191906000526020600020905b8154815290600101906020018083116146ec57829003601f168201915b5050505050815260200160038201805461472290615baf565b80601f016020809104026020016040519081016040528092919081815260200182805461474e90615baf565b801561479b5780601f106147705761010080835404028352916020019161479b565b820191906000526020600020905b81548152906001019060200180831161477e57829003601f168201915b50505050508152505090506000600a600085815260200190815260200160002060405180610160016040529081600082015481526020016001820160009054906101000a900473ffffffffffffffffffffffffffffffffffffffff1673ffffffffffffffffffffffffffffffffffffffff1673ffffffffffffffffffffffffffffffffffffffff16815260200160028201805461483790615baf565b80601f016020809104026020016040519081016040528092919081815260200182805461486390615baf565b80156148b05780601f10614885576101008083540402835291602001916148b0565b820191906000526020600020905b81548152906001019060200180831161489357829003601f168201915b505050505081526020016003820180546148c990615baf565b80601f01602080910402602001604051908101604052809291908181526020018280546148f590615baf565b80156149425780601f1061491757610100808354040283529160200191614942565b820191906000526020600020905b81548152906001019060200180831161492557829003601f168201915b5050505050815260200160048201805461495b90615baf565b80601f016020809104026020016040519081016040528092919081815260200182805461498790615baf565b80156149d45780601f106149a9576101008083540402835291602001916149d4565b820191906000526020600020905b8154815290600101906020018083116149b757829003601f168201915b505050505081526020016005820180546149ed90615baf565b80601f0160208091040260200160405190810160405280929190818152602001828054614a1990615baf565b8015614a665780601f10614a3b57610100808354040283529160200191614a66565b820191906000526020600020905b815481529060010190602001808311614a4957829003601f168201915b50505050508152602001600682018054614a7f90615baf565b80601f0160208091040260200160405190810160405280929190818152602001828054614aab90615baf565b8015614af85780601f10614acd57610100808354040283529160200191614af8565b820191906000526020600020905b815481529060010190602001808311614adb57829003601f168201915b50505050508152602001600782018054614b1190615baf565b80601f0160208091040260200160405190810160405280929190818152602001828054614b3d90615baf565b8015614b8a5780601f10614b5f57610100808354040283529160200191614b8a565b820191906000526020600020905b815481529060010190602001808311614b6d57829003601f168201915b505050505081526020016008820160009054906101000a900460ff166002811115614bde577f4e487b7100000000000000000000000000000000000000000000000000000000600052602160045260246000fd5b6002811115614c16577f4e487b7100000000000000000000000000000000000000000000000000000000600052602160045260246000fd5b81526020016008820160019054906101000a900460ff16151515158152602001600982015481525050905081600d6000868152602001908152602001600020600082015181600001556020820151816001019080519060200190614c7b929190614f3e565b506040820151816002019080519060200190614c98929190614f3e565b506060820151816003019080519060200190614cb5929190614f3e565b5090505082600f60008681526020019081526020016000208190555080600c60008581526020019081526020016000206000820151816000015560208201518160010160006101000a81548173ffffffffffffffffffffffffffffffffffffffff021916908373ffffffffffffffffffffffffffffffffffffffff1602179055506040820151816002019080519060200190614d52929190614f3e565b506060820151816003019080519060200190614d6f929190614f3e565b506080820151816004019080519060200190614d8c929190614f3e565b5060a0820151816005019080519060200190614da9929190614f3e565b5060c0820151816006019080519060200190614dc6929190614f3e565b5060e0820151816007019080519060200190614de3929190614f3e565b506101008201518160080160006101000a81548160ff02191690836002811115614e36577f4e487b7100000000000000000000000000000000000000000000000000000000600052602160045260246000fd5b02179055506101208201518160080160016101000a81548160ff021916908315150217905550610140820151816009015590505050505050565b600081600001549050919050565b6001816000016000828254019250508190555050565b60405180610160016040528060008152602001600073ffffffffffffffffffffffffffffffffffffffff16815260200160608152602001606081526020016060815260200160608152602001606081526020016060815260200160006002811115614f28577f4e487b7100000000000000000000000000000000000000000000000000000000600052602160045260246000fd5b8152602001600015158152602001600081525090565b828054614f4a90615baf565b90600052602060002090601f016020900481019282614f6c5760008555614fb3565b82601f10614f8557805160ff1916838001178555614fb3565b82800160010185558215614fb3579182015b82811115614fb2578251825591602001919060010190614f97565b5b509050614fc09190614fc4565b5090565b5b80821115614fdd576000816000905550600101614fc5565b5090565b6000614ff4614fef84615a57565b615a32565b90508281526020810184848401111561500c57600080fd5b615017848285615b6d565b509392505050565b60008135905061502e81615e06565b92915050565b600082601f83011261504557600080fd5b8135615055848260208601614fe1565b91505092915050565b60008135905061506d81615e1d565b92915050565b60006020828403121561508557600080fd5b60006150938482850161501f565b91505092915050565b6000806000606084860312156150b157600080fd5b600084013567ffffffffffffffff8111156150cb57600080fd5b6150d786828701615034565b935050602084013567ffffffffffffffff8111156150f457600080fd5b61510086828701615034565b925050604084013567ffffffffffffffff81111561511d57600080fd5b61512986828701615034565b9150509250925092565b60008060008060008060c0878903121561514c57600080fd5b600087013567ffffffffffffffff81111561516657600080fd5b61517289828a01615034565b965050602087013567ffffffffffffffff81111561518f57600080fd5b61519b89828a01615034565b955050604087013567ffffffffffffffff8111156151b857600080fd5b6151c489828a01615034565b945050606087013567ffffffffffffffff8111156151e157600080fd5b6151ed89828a01615034565b935050608087013567ffffffffffffffff81111561520a57600080fd5b61521689828a01615034565b92505060a087013567ffffffffffffffff81111561523357600080fd5b61523f89828a01615034565b9150509295509295509295565b600080600080600080600060e0888a03121561526757600080fd5b600088013567ffffffffffffffff81111561528157600080fd5b61528d8a828b01615034565b975050602088013567ffffffffffffffff8111156152aa57600080fd5b6152b68a828b01615034565b965050604088013567ffffffffffffffff8111156152d357600080fd5b6152df8a828b01615034565b955050606088013567ffffffffffffffff8111156152fc57600080fd5b6153088a828b01615034565b945050608088013567ffffffffffffffff81111561532557600080fd5b6153318a828b01615034565b93505060a088013567ffffffffffffffff81111561534e57600080fd5b61535a8a828b01615034565b92505060c088013567ffffffffffffffff81111561537757600080fd5b6153838a828b01615034565b91505092959891949750929550565b6000602082840312156153a457600080fd5b60006153b28482850161505e565b91505092915050565b600080604083850312156153ce57600080fd5b60006153dc8582860161505e565b92505060206153ed8582860161505e565b9150509250929050565b6000615403838361561c565b905092915050565b61541481615b00565b82525050565b61542381615b00565b82525050565b600061543482615a98565b61543e8185615abb565b93508360208202850161545085615a88565b8060005b8581101561548c578484038952815161546d85826153f7565b945061547883615aae565b925060208a01995050600181019050615454565b50829750879550505050505092915050565b6154a781615b12565b82525050565b6154b681615b12565b82525050565b6154c581615b5b565b82525050565b6154d481615b5b565b82525050565b60006154e582615aa3565b6154ef8185615acc565b93506154ff818560208601615b7c565b61550881615d17565b840191505092915050565b600061551e82615aa3565b6155288185615add565b9350615538818560208601615b7c565b61554181615d17565b840191505092915050565b6000615559601583615add565b915061556482615d28565b602082019050919050565b600061557c601483615add565b915061558782615d51565b602082019050919050565b600061559f602283615add565b91506155aa82615d7a565b604082019050919050565b60006155c2601c83615add565b91506155cd82615dc9565b602082019050919050565b600060408301600083015184820360008601526155f582826154da565b9150506020830151848203602086015261560f82826154da565b9150508091505092915050565b600061016083016000830151615635600086018261572e565b506020830151615648602086018261540b565b506040830151848203604086015261566082826154da565b9150506060830151848203606086015261567a82826154da565b9150506080830151848203608086015261569482826154da565b91505060a083015184820360a08601526156ae82826154da565b91505060c083015184820360c08601526156c882826154da565b91505060e083015184820360e08601526156e282826154da565b9150506101008301516156f96101008601826154bc565b5061012083015161570e61012086018261549e565b5061014083015161572361014086018261572e565b508091505092915050565b61573781615b51565b82525050565b61574681615b51565b82525050565b600060208201905081810360008301526157668184615429565b905092915050565b600060208201905061578360008301846154ad565b92915050565b600060208201905081810360008301526157a28161554c565b9050919050565b600060208201905081810360008301526157c28161556f565b9050919050565b600060208201905081810360008301526157e281615592565b9050919050565b60006020820190508181036000830152615802816155b5565b9050919050565b600060208201905061581e600083018461573d565b92915050565b60006101608201905061583a600083018e61573d565b615847602083018d61541a565b8181036040830152615859818c615513565b9050818103606083015261586d818b615513565b90508181036080830152615881818a615513565b905081810360a08301526158958189615513565b905081810360c08301526158a98188615513565b905081810360e08301526158bd8187615513565b90506158cd6101008301866154cb565b6158db6101208301856154ad565b6158e961014083018461573d565b9c9b505050505050505050505050565b600060808201905061590e600083018761573d565b81810360208301526159208186615513565b905081810360408301526159348185615513565b905081810360608301526159488184615513565b905095945050505050565b600061010082019050615969600083018b61573d565b818103602083015261597b818a615513565b9050818103604083015261598f8189615513565b905081810360608301526159a38188615513565b905081810360808301526159b78187615513565b905081810360a08301526159cb8186615513565b90506159da60c08301856154ad565b81810360e08301526159ec81846155d8565b90509998505050505050505050565b6000606082019050615a10600083018661573d565b615a1d602083018561573d565b615a2a604083018461573d565b949350505050565b6000615a3c615a4d565b9050615a488282615be1565b919050565b6000604051905090565b600067ffffffffffffffff821115615a7257615a71615ce8565b5b615a7b82615d17565b9050602081019050919050565b6000819050602082019050919050565b600081519050919050565b600081519050919050565b6000602082019050919050565b600082825260208201905092915050565b600082825260208201905092915050565b600082825260208201905092915050565b6000615af982615b31565b9050919050565b6000615b0b82615b31565b9050919050565b60008115159050919050565b6000819050615b2c82615df2565b919050565b600073ffffffffffffffffffffffffffffffffffffffff82169050919050565b6000819050919050565b6000615b6682615b1e565b9050919050565b82818337600083830152505050565b60005b83811015615b9a578082015181840152602081019050615b7f565b83811115615ba9576000848401525b50505050565b60006002820490506001821680615bc757607f821691505b60208210811415615bdb57615bda615cb9565b5b50919050565b615bea82615d17565b810181811067ffffffffffffffff82111715615c0957615c08615ce8565b5b80604052505050565b6000615c1d82615b51565b91507fffffffffffffffffffffffffffffffffffffffffffffffffffffffffffffffff821415615c5057615c4f615c5b565b5b600182019050919050565b7f4e487b7100000000000000000000000000000000000000000000000000000000600052601160045260246000fd5b7f4e487b7100000000000000000000000000000000000000000000000000000000600052602160045260246000fd5b7f4e487b7100000000000000000000000000000000000000000000000000000000600052602260045260246000fd5b7f4e487b7100000000000000000000000000000000000000000000000000000000600052604160045260246000fd5b6000601f19601f8301169050919050565b7f72696465206973206e6f7420636f6d706c657465640000000000000000000000600082015250565b7f4661696c656420746f2073656e64204574686572000000000000000000000000600082015250565b7f54686973204164647265737320697320616c726561647920526567697374657260008201527f6564000000000000000000000000000000000000000000000000000000000000602082015250565b7f76616c75652073656e74206973206c657373207468616e206661697200000000600082015250565b60038110615e0357615e02615c8a565b5b50565b615e0f81615aee565b8114615e1a57600080fd5b50565b615e2681615b51565b8114615e3157600080fd5b5056fea264697066735822122055ff4b5b0d7b25a930841656eec64a5a1ad77cbe49819bdfeb277b3b2a6cce7f64736f6c63430008040033",
  "linkReferences": {},
  "deployedLinkReferences": {}
}